:020000040800F2
:100000004854002009030008FF580008B5480008BC
:100010007D580008D50A0008A96400080000000007
:10002000000000000000000000000000490200087D
:10003000DB15000800000000A50200085D5C000858
:1000400023030008230300082303000823030008F8
:1000500023030008230300082303000823030008E8
:1000600023030008E1160008E71600082303000830
:100070007D120008230300088912000823030008EA
:10008000230300082303000823030008210B0008B2
:10009000150B00082303000823030008ED160008D1
:1000A0002D5D0008495D00082303000823030008B4
:1000B000995D0008A55D00082303000823030008DC
:1000C00023030008230300082303000849590008FC
:1000D00023030008F163000823030008FD63000800
:1000E000230300082303000823030008B15D000870
:1000F000BD5D000823030008230300082303000854
:100100002303000823030008230300082303000837
:100110002303000823030008230300082303000827
:1001200095120008A1120008AD120008B9120008CB
:10013000230300082303000823030008750B0008AD
:10014000690B0008230300082303000823030008A9
:1001500023030008C5120008D11200081964000822
:1001600023030008230300082303000823030008D7
:1001700023030008230300082303000800000000F5
:10018000230300082303000800F002F800F04CF8F5
:100190000AA090E8000C82448344AAF10107DA45E2
:1001A00001D100F041F8AFF2090EBAE80F0013F0E8
:1001B000010F18BFFB1A43F0010318471894000001
:1001C000389400000A4410F8014B14F00F0508BFE2
:1001D00010F8015B240908BF10F8014B6D1E05D013
:1001E00010F8013B6D1E01F8013BF9D1641E03D0EC
:1001F000641E01F8015BFBD19142E4D3704700001B
:100200000023002400250026103A28BF78C1FBD81F
:10021000520728BF30C148BF0B6070471FB508F0B8
:1002200036FF1FBD10B510BD00F002FA1146FFF7F2
:10023000F5FF07F015FB00F020FA03B4FFF7F2FF1B
:1002400003BC00F023FA00002C4B19680868B0E8E2
:10025000F04F80F30988BFF36F8F4FF0000080F3F9
:10026000118870470000000008480068006880F3AB
:1002700008884FF0000080F3148862B661B6BFF3BF
:100280004F8FBFF36F8F00DF00BF00BF08ED00E0AE
:10029000DFF80C00016841F470010160704700BF95
:1002A00088ED00E0EFF30980BFF36F8F134B1A68FE
:1002B0001EF0100F08BF20ED108A20E9F04F1060EB
:1002C00009B44FF0500080F31188BFF34F8FBFF394
:1002D0006F8F08F017F84FF0000080F3118809BC09
:1002E00019680868B0E8F04F1EF0100F08BFB0ECB6
:1002F000108A80F30988BFF36F8F704730000020A9
:10030000EFF305807047000009488047094800471F
:10031000FEE7FEE7FEE7FEE7FEE7FEE7FEE7FEE7B5
:10032000FEE7FEE704480549054A064B7047000012
:100330001D5D000889010008484E00204854002037
:10034000485000204850002053EA020C00F0698019
:100350002DE9F04B4FF00006002B1FBFB3FA83F5D9
:1003600003FA05F424FA05F65E4012BF1643B2FA0A
:1003700082F502FA05F4C5F120051EBF22FA05FC3C
:1003800044EA0C04203556EA044C4FEA144418BFE2
:10039000641C4FF000084FF00009904271EB030C11
:1003A00039D3002919BFB1FA81F701FA07F6B0FA7B
:1003B00080F700FA07F6C7F120071EBF20FA07FCF6
:1003C00046EA0C062037B6FBF4FCA7EB0507103F06
:1003D00007F01F0BCBF120060CFA0BFB2CFA06F6EC
:1003E00044BFB3460026202FA4BF5E464FF0000B4B
:1003F0005BEA060C08BF4FF0010B19EB0B09ABFBD6
:10040000027C48EB0608C01B06FB02CC0BFB03CCAE
:1004100071EB0C01C1E70B46024641464846BDE878
:10042000F08B13B54FF000004FF00001AFF30080E8
:10043000BDE81C40704710B5431C02E010F8011BDA
:1004400071B18107FAD14FF0013202C88C1A8C4386
:1004500014EAC211F9D0C01A0A0603D0C01E10BD9A
:10046000C01A10BD0A0401D0801E10BD0902FCD0C4
:10047000401E10BD032A40F2308010F0030C00F043
:10048000158011F8013BBCF1020F624498BF11F8CE
:1004900001CB00F8013B38BF11F8013BA2F1040287
:1004A00098BF00F801CB38BF00F8013B11F00303FF
:1004B00000F02580083AC0F0088051F8043B083A63
:1004C00051F804CBA0E80810F5E7121D5CBF51F805
:1004D000043B40F8043BAFF30080D20724BF11F87F
:1004E000013B11F801CB48BF11F8012B24BF00F8E4
:1004F000013B00F801CB48BF00F8012B704710B555
:10050000203AC0F00B80B1E81850203AA0E818500B
:10051000B1E81850A0E81850BFF4F5AF5FEA027CCC
:1005200024BFB1E81850A0E8185044BF18C918C03B
:10053000BDE810405FEA827C24BF51F8043B40F8DC
:10054000043B08BF7047D20728BF31F8023B48BFC1
:1005500011F8012B28BF20F8023B48BF00F8012BFF
:10056000704702F0FF0343EA032242EA024200F02E
:1005700037B84FF0000200B513469446964620392E
:1005800022BFA0E80C50A0E80C50B1F12001BFF44C
:10059000F7AF090728BFA0E80C5048BF0CC05DF8B2
:1005A00004EB890028BF40F8042B08BF704748BF00
:1005B00020F8022B11F0804F18BF00F8012B704774
:1005C00070477047704710B500F02AF8006810BDFA
:1005D00010B5044600F024F8046010BD4FF000028E
:1005E0000429C0F0128010F0030C3FF4C4AFCCF12A
:1005F000040CBCF1020F18BF00F8012BA8BF20F8B3
:10060000022BA1EB0C01FFF7B6BF5FEAC17C24BF50
:1006100000F8012B00F8012B48BF00F8012B7047B0
:1006200000487047E44D002000487047E44D00202A
:100630007546FFF7F9FFAE4605006946534620F0C0
:100640000700854618B020B5FFF76CFEBDE82040D6
:100650004FF000064FF000074FF000084FF0000B7E
:1006600021F00701AC46ACE8C009ACE8C009ACE831
:10067000C009ACE8C0098D46704710B50446AFF319
:1006800000802046BDE81040FFF7D7BD0149182083
:10069000ABBEFEE72600020070470000B7EE000A7E
:1006A00080ED100A9FED040A80ED110A80ED120A18
:1006B00080ED130A704700000000000030B50C46C2
:1006C00005000CD0022C0AD90548A11E0288284634
:1006D00001F08AF8291901F8020D000A487030BDAE
:1006E000C001002030B50C46050008D0022C06D908
:1006F000FF22611E01F08EF8291901F8010C30BDAE
:1007000010B5B6217E2000F06FF80A2001F056FFE8
:1007100004217D2000F068F80A2001F04FFF00213D
:100720007C2000F061F80A2001F048FF0021412000
:1007300000F05AF80A2001F041FF0821532000F090
:1007400053F80A2001F03AFF0421582000F04CF839
:10075000BDE810400A2001F031BF00002DE9FC4146
:10076000DFF87C8015460E460746002422461021FD
:10077000404602F03BF847F080008DF8040001226B
:1007800001A9184803F084F9164802F06EFD032809
:10079000FAD001226946134802F07AFF114802F0AC
:1007A00064FD0428FAD04FF47A77AC4210D23B466D
:1007B000012269460B4802F0BDFE0A4802F055FDD1
:1007C0000428FAD09DF800003055641CE4B2ECE730
:1007D00001221021404602F009F8BDE8FC8100002A
:1007E00000000240BC04002013B5114C002210216F
:1007F000204601F0FBFF012269460E4803F048F94C
:100800000C4802F032FD0328FAD0012201A9094860
:1008100003F03EF9074802F028FD0328FAD0012032
:1008200001F0CCFE01221021204601F0DFFF1CBDAB
:1008300000000240BC04002010B5B621142000F0D6
:1008400053F81E2001F0BAFE00210F2000F04CF8F2
:100850000A2001F0B3FE0021162000F045F80A201E
:1008600001F0ACFE0121182000F03EF8BDE8104078
:100870000A2001F0A3BE00002DE9FC41184E0D46F0
:100880000746002422460121304601F0AFFF47F021
:1008900080008DF8000001226946124803F0F8F844
:1008A000104802F0E2FC0328FAD04FF47A773B4676
:1008B000012201A90B4802F03DFE0A4802F0D5FCD6
:1008C0000428FAD09DF804002855641CE4B2062CD4
:1008D000EDD301221146304601F088FFBDE8FC81CE
:1008E00000040240BC04002013B5104C002201217A
:1008F000204601F07BFF012269460D4803F0C8F84D
:100900000B4802F0B2FC0328FAD0012201A90848E2
:1009100003F0BEF8064802F0A8FC0328FAD0012232
:100920001146204601F062FF1CBD00000004024099
:10093000BC0400207CB50546002016460C460090FD
:100940000190062269461220FFF708FF9DF801007A
:100950009DF80010000200B2084300EE100AF8EE05
:10096000C00A9FED550A60EE800AC5ED000A9DF8A9
:1009700003009DF80210000200B2084300EE900A46
:10098000F8EEE00A60EE800AC5ED010A9DF8050068
:100990009DF80410000200B2084300EE900A694678
:1009A0000220F8EEE00A20EE800A85ED020AFFF749
:1009B00063FF9DF801009DF80010000200B208439B
:1009C00000EE100A0222F8EEC00A9FED3C0A60EE2B
:1009D000800AC4ED000A9DF803009DF80210000291
:1009E00000B2084300EE900AF8EEE00A60EE800ADA
:1009F000C4ED010A9DF805009DF80410000200B244
:100A0000084300EE900A69462220F8EEE00A20EE44
:100A1000800A84ED020AFFF7A1FE9DF800009DF810
:100A20000110C00040EA5110B0F5806F01DBA0F565
:100A3000006008F09CF89FED221B53EC112B08F08E
:100A4000C1F89FED211B53EC112B07F061FE07F05D
:100A50002DFE30601E4895ED000AD0ED000A30EE04
:100A6000600A85ED000A95ED010AD0ED010A30EE2D
:100A7000600A85ED010A95ED020AD0ED020A30EE1A
:100A8000600A85ED020A94ED000AD0ED030A30EE0B
:100A9000600A84ED000A94ED010AD0ED040A30EEFC
:100AA000600A84ED010A94ED020AD0ED050A30EEE9
:100AB000600A84ED020A7CBDE7416B3A58A08B3A8C
:100AC000000000000000C03F0000000000003740B0
:100AD000C8470020FEE7000000B58BB000200121D0
:100AE000CDE90601059000900190029003900490DA
:100AF0000E20CDE908106946054800F057FF022195
:100B0000034800F0DDFE024801F058FB0BB000BDC9
:100B100018040020014801F044B800001804002027
:100B2000014801F03EB800001804002000B58BB069
:100B300001220E2100200792CDE9051003900490B8
:100B4000CDE908210090019002906946054800F027
:100B50002DFF0221034800F0B3FE024801F02EFBF6
:100B60000BB000BD40040020014801F01AB800009D
:100B700040040020014801F014B8000040040020A7
:100B80002DE9F0470BACDDE9087694E82005DDF8A7
:100B90002890002411F804C000F804C0641CE4B2DA
:100BA000032CF7D310F8031F62F3020141F0380160
:100BB0000170018863F389110180417867F3850131
:100BC0004170B0F8011066F38E11A0F80110428850
:100BD00069F3CF124280818865F309018180B0F802
:100BE000051068F38C01A0F80510C2886AF34F1253
:100BF000C28001894EF203026FF309010181B0F84E
:100C000009101140A0F80910817A01F01F014181FB
:100C1000BDE8F08730B5174801210388164803B1B5
:100C20000170164A144C1588183402220DB1226046
:100C300000E0216073B101701149098811B14FF4CE
:100C40007A71C1800F490988002902D04FF61841F6
:100C5000C18030BD0378012BEED10023037090F9E1
:100C60000130012B03D0022BE6D14170E4E7427042
:100C7000E2E7000070010020D80000206C01002095
:100C8000680100206A0100202DE9F04F6F48DFF86D
:100C9000B8A16F4952462DED048B81B0B0F8009099
:100CA0006C480B88BAF90450B0F800806A4843EAEF
:100CB0000901B2F90860B0F800C0B2F9060005F108
:100CC000320741EA0801DFF894B10022644C41EA9E
:100CD0000C01642F46D800F13207642F42D8322E1F
:100CE00040DC16F1320F3DDBD9BBE169594540DCF0
:100CF0005C4B99423DD800254FF434789FED5A8AD9
:100D00005A4E914605EB450006EB8007B7F9060001
:100D100000F5B471414512D900EE100A544805EBB4
:100D20000511B8EEC00A00EB8100F0EE480A06F0AB
:100D300011FEBDEEC00A10EE100A788001E0A7F89F
:100D400002906D1C042DDDDBB6F926000090B6F98B
:100D50001A30B6F90E20B6F90210002007F0B2F8EA
:100D600047E000E029B142F2C63041427BB3A080A7
:100D700034E007F0FCFE9FED3F8B53EC182B07F09F
:100D80006FFD9FED3E9B53EC192B07F01BFF07F007
:100D9000BFFEA080284607F0EAFE53EC182B07F0B0
:100DA0005FFD53EC192B07F00DFF07F0B1FE6080DB
:100DB000704207F0DCFE53EC182B07F051FD53ECAA
:100DC000192B07F0FFFE07F0A3FEE08011E0FFE71C
:100DD000B9F1000F01D0A18000E0A280B8F1000FAE
:100DE00001D0618005E0BCF1000F01D0608000E01F
:100DF0006280BAF90000323064281FD821482249A5
:100E000000880988084319D194ED070A10EE100AEA
:100E1000584504DC10EE100A124988420ED9B4F984
:100E200006009FED1A1A00EE900AF8EEE00A40EE76
:100E3000410ABDEEE00A10EE100AE08001B0BDEC00
:100E4000048BBDE8F08F0000DC4900206201002027
:100E50006001002064010020660100200000A04025
:100E6000D80000200000A0C0000000006C49002055
:100E7000184800200000000000A08440000000008E
:100E80000040BF40680100206A01002000005C4271
:100E90002DE9F0416C486C4C2DED068B183C016837
:100EA00003200229B4F9121091FBF0F03AD000F6B9
:100EB0001C40E080D4ED070A9FED641A80EE810AA1
:100EC00084ED080A10EE100A08F070F841EC100BDF
:100ED00005F0E2FD51EC100B07F0E8FB2063206AFF
:100EE00008F064F841EC100B05F03AFE51EC100BE1
:100EF00007F0DCFB08EE100A574B84ED0B8A5448D0
:100F000054491D88554B00880A881B8840EA020115
:100F1000294319430AD042F2C6314E420027E8B3B2
:100F2000A1804EE041F288310844C2E74C4DB5F94A
:100F3000060007F01CFE9FED4B9B53EC192B07F0AE
:100F40008FFC9FED4AAB53EC1A2B07F03BFE07F0EA
:100F5000DFFDA080B5F9040007F009FE53EC192B62
:100F600007F07EFC53EC1A2B07F02CFE07F0D0FDA7
:100F70006080B4F90200E081B4F9041000EE100AB8
:100F80002182D4ED0C0AB8EEC00A20EE201A00EE41
:100F9000101AB8EEC00A00EE481A00E00DE0BDEEEF
:100FA000C10A10EE102A628000EE100AB8EEC00AE4
:100FB00020EE081A00EE101A2BE00AB1A68000E01D
:100FC000A7800DB1668003E00BB1618000E067800F
:100FD000B4F90210E181B4F9040000EE101A208285
:100FE000D4ED0C0AB8EEC00A20EE201A00EE100A6A
:100FF000B8EEC00A00EE481ABDEEC10A10EE102A83
:10100000628000EE101AB8EEC00A20EE081A00EE58
:10101000100AB8EEC00A00EE201ABDEEC10A10EEAA
:10102000100AA080B4F90200B4F9081090FBF1F0A6
:101030006080B4F90400B4F9081090FBF1F0A080CE
:10104000BDEC068BBDE8F081F00000203333654233
:101050006001002062010020640100206601002080
:10106000DC4900200000000000A0844000000000D7
:101070000040BF402DED068B00243E4D9FED3E8A83
:1010800004EB041005EB8000B0EE480A3B49F0EE9B
:10109000400A06F0B3FC641CE4B2042CF0D33749D8
:1010A0009FED370A0C313748F0EE400A06F0A6FCF7
:1010B000324D354F354EDFED369A9FED36AADFEDD6
:1010C000368A9FED369A1C3DB3EE088AA5F11804C6
:1010D00097ED010ABDEEC00A10EE100A00B200EE54
:1010E000100A2848F8EEC00AB2EE0C0A06F032FCEC
:1010F000BDEEC00A10EE100A6082D6ED000A80EE46
:10110000A90A30EE0A0A30EE080AC0EE080A30EEEC
:10111000A80A20EE090ABDEEC00A10EE100AA0814E
:1011200004F0EEFB06F0E2F9286828B9B4F90C10D7
:101130001448983004F0A4FB2868012805D1B4F9BC
:101140000C101048983004F09BFB286802280BD044
:1011500040F6C4110B48983004F092FB06F08EF96B
:10116000012006F0C1FBB3E7608A41F29411084404
:1011700001B2EFE71848002000007A450C0100207A
:101180000000FA4428490020CC49002098010020A2
:101190009A99193E0000C842CDCC4C3E00009643BF
:1011A00030B52F4C054689B0A52004F8010B152059
:1011B00020802C480078A0702B4800F5807151F8F1
:1011C0004E2F40F84A2F09790171274805214A30EE
:1011D000FFF788FA40F20130A08040F20110E08071
:1011E0002148DFED230A803804AB90F849102181B3
:1011F000B0F8B80060811D4840F22A324FF4A06177
:1012000090ED010A032083E8070020EE200A012068
:101210000DF1040C0222BDEEC00A1E2106238DED45
:10122000070A00908CE807000D482A4611A10D30EE
:1012300000F09AFA34F8042B0B4821464F30921CE8
:10124000FFF718F908481E214A30FFF737FA09B0AE
:101250000549BDE830401E224A31074803F0E2BA92
:10126000C64D002028010020784C0020CC490020E9
:1012700000007A4453433100C4070020014801F0C4
:101280002BB80000C8080020014801F025B8000074
:1012900028090020014801F01FB8000014050020B3
:1012A000014801F019B8000088090020014801F048
:1012B00013B8000008080020014801F00DB8000034
:1012C00074050020014801F007B80000E80900207B
:1012D000014801F001B80000680800202DE9F04F36
:1012E00085680024099E802D18D0894DC563894DDD
:1012F000456490F83450012D15D0012580F8345004
:1013000090F83550012D10D0002180F834100224BF
:10131000002180F834102046BDE8F08F4FF4807132
:1013200041650120F8E70220F6E7022580F83550F4
:101330000025456505682F6847F480272F600568FC
:101340002B6103685E608368402B03682AD0996034
:101350000168CA60714D704E704FDFF8BC81DFF8D4
:10136000B891DFF8B8A1DFF8B4B1EA14DFF8A8E16A
:101370000168183630379302A9F148090AF1600A6A
:101380000BF1180BAEF1300E4FF0006C41452DD92A
:10139000A94205D0494503D0514501D0B14205D1FC
:1013A000202220E09A600268D160D3E759451AD024
:1013B000714518D0594D7835A94214D0564D303565
:1013C000A94210D0B9420BD0534A183A914207D0E3
:1013D000524A9032914203D04F4A4832914201D151
:1013E0001A4600E062464C494C392EE0DFF82C8169
:1013F00008F1A80841452AD9A94205D0494503D09A
:10140000514501D0B14201D120221CE059451AD0EA
:10141000714518D0414D7835A94214D03E4D303534
:10142000A94210D0B9420BD03B4A183A914207D09A
:101430003A4A9032914203D0374A4832914201D120
:101440001A4600E06246344950390A605AE0DFF833
:10145000CC8008F1480841452AD9A94205D0494520
:1014600003D0514501D0B14201D120221CE05945A1
:101470001AD0714518D0294D7835A94214D0264D7F
:101480003035A94210D0B9420BD0234A183A9142C4
:1014900007D0224A9032914203D01F4A48329142EB
:1014A00001D11A4600E062461C491039CA6029E0A1
:1014B000A94205D0494503D0514501D0B14201D1DF
:1014C00020221CE059451AD0714518D0134D7835AB
:1014D000A94214D0104D3035A94210D0B9420BD0DA
:1014E0000D4A183A914207D00C4A9032914203D0EB
:1014F000094A4832914201D11A4600E06246074942
:1015000010398A6001680A6842F001020A60FFE649
:101510002D7500085975000858640240106002409B
:1015200001681823CAB2103AB2FBF3F2054B6FF30D
:101530000901032A9B5CC36500D9091D8165084622
:10154000704700004C91000810B5014600208B69DF
:101550008A6A4FF0C07453B1B3F5005F15D072B111
:10156000012A0CD0022A0AD0032A09D104E01AB1B8
:10157000012A06D0022A03D1C96AC90100D5012077
:1015800010BDC96AA142FAD010BD002AF7D0012AC5
:10159000F2D0022AF3D0032AF3D010BD30B504688C
:1015A000256825F480252560046863608368402BE6
:1015B000036803D099600068C26030BD9A6000681B
:1015C000C16030BD704701680A68D20604D5C96899
:1015D000C90601D506F02EBD70477047F0B53F49EA
:1015E00091F849000A2845D20122A1F89E20022242
:1015F000A1F8A0200322A1F8A2200422A1F8A4208F
:101600000522A1F8A62040F201170622A1F8A82081
:101610007E1C0722A1F8AA20751C6C1CA1F8AC70D6
:10162000A1F8AE60631CA1F8B050A1F8B2405A1CFA
:10163000A1F8B430A1F8B62001280CD002280DD0B2
:1016400003280ED004280FD0052810D0062801D179
:10165000A1F8B820F0BDA1F8B870F0BDA1F8B8604D
:10166000F0BDA1F8B850F0BDA1F8B840F0BDA1F8A8
:10167000B830F0BD6522A1F89E206622A1F8A02016
:101680006722A1F8A2206822A1F8A4206922A1F86B
:10169000A6206A22A1F8A8204FF4B3766B22A1F805
:1016A000AA20751C6C1CA1F8AC60621CA1F8AE509D
:1016B000A1F8B040A1F8B220531CA1F8B420A1F8C1
:1016C000B6306528CAD06628CBD06728CCD0682829
:1016D000BED06928BCD06A28C9D0F0BDF84B002024
:1016E000082000F07FBF102000F07CBF174810B525
:1016F000006888B080051FD51548017801291BD1E5
:101700000024047022468902124801F06FF8FF207D
:101710008DF818006620009001200294CDE9034066
:10172000034606AA69460C4800F0DCF80B480C4951
:101730000088A0F586700880202000F053FF08B0D4
:101740004FF40070BDE8104000F04CBF143C014065
:101750001C000020001C024018040020E2000020B1
:101760002401002072B6FEE72DE9F04F0BACDDE955
:10177000097694E8200C0EAC94E800435FF0000476
:1017800011F804C000F804C0641CE4B2032CF7D3C1
:1017900010F8031F62F3020163F3C50101700188B1
:1017A00067F389110180417866F385014170B0F8D3
:1017B000011065F38E11A0F8011042886AF3CF1270
:1017C000428082886BF309028280B0F8051068F3CA
:1017D0008C01A0F80510C28869F34F12C280C0F8CE
:1017E00008E0BDE8F08F000010B558B1084C491E64
:1017F0000BD310F8013B5340DBB234F8133083EACB
:101800001222F4E74FF6FF7010BD104610BD000025
:101810007892000810B5054C04E000BF10F8013BB9
:101820005340E25C491EF9D2104610BD7891000881
:101830001C49DFED1D0A91ED0D0A30EE200ADFEDA7
:101840001E0ABCEEC00A10EE100A82B2174842818E
:1018500091ED0E0A80ED090A91ED0F0A144980ED11
:101860000A0A91ED0D0ABCEEC00A10EE101A89B2F8
:101870008182511A00EE101A0E4AB8EEC00A10EE1C
:10188000101A80ED070A914202D930EE200A06E0D4
:1018900010EE101A094A914203DD30EE600A80ED25
:1018A000070A7047C847002000003443D8000020D2
:1018B000184A0020000034C30000B4430000344341
:1018C00090F82020012A07D0022A05D0416A41F46D
:1018D0008021416201207047006842690A434261E9
:1018E00000207047F0B590F820500468A468012DDE
:1018F00005D0022D03D0416A41F4802153E014F059
:10190000406F01D1E5004BD5C4F30164022C03D92B
:10191000416A41F4000146E00125A5401D608D6843
:101920004FF4C0739DB1CE6835434E6845EAC60595
:10193000066803EB0417F5514FF4C275076805EB11
:1019400004150E697E51097D012905D009E00E8834
:10195000CD6845EA4655EBE701684E5946F4807676
:101960004E511179D2F805504FF4C67641EA05255B
:10197000016806EB04168D511178D2F801204FF45E
:10198000C47541EA0221026805EB04155151006853
:1019900003EB0411425842F0010242500020F0BD16
:1019A000416A41F4001141620120F0BD10B590F888
:1019B0002020012A07D0022A05D0416A41F4802163
:1019C0004162012010BD3B48D0F8002242F00102E4
:1019D000C0F80022D0F8002222F47C52C0F8002285
:1019E000D0F800224B6A42EA0322C0F800220A7DA6
:1019F00002F01F0301229A40D0F81C329343C0F832
:101A00001C32CB69B3B9D0F80C329343C0F80C3216
:101A10008C894B6864F31F434C6900EBC404C4F821
:101A200040320C890B6864F31F434C6900EBC4041B
:101A3000C4F84432CB69012B16D1D0F80C321343D1
:101A4000C0F80C320C884B6864F31F434C6900EB00
:101A5000C404C4F840320C89CB6864F31F434C695A
:101A600000EBC404C4F844328B69002BD0F8043274
:101A70000ED01343C0F804320B69002BD0F8143297
:101A800008D01343C0F81432096A012904D008E0D1
:101A90009343EFE79343F5E7D0F81C121143C0F8E6
:101AA0001C12D0F8001221F00101C0F80012002031
:101AB00010BD000000640040704730B590F8204031
:101AC000012C05D0022C03D0416A41F480215DE055
:101AD0000468002955D02469A40754D04FF4D87461
:101AE000056804EB01142D5915F00405956005688F
:101AF0002D594ED0ED08556005682C5904F00204AC
:101B0000D4604FF4DA74056804EB01142D5905F024
:101B10000F05156105682D59C5F307259561056801
:101B20002C59240C54614FF4DC72046802EB01124E
:101B3000A4581C700468A458240A5C700468A45853
:101B4000240C9C700468A258120EDA704FF4DE72F6
:101B5000046802EB0112A4581C710468A458240AFA
:101B60005C710468A458240C9C710468A258120E7D
:101B7000DA71006881B1016941F020010161002042
:101B800030BDE468A8E7416A41F4001141620120D8
:101B900030BD6D0D1560AFE7C16841F02001C16037
:101BA000EDE72DE9F05F0546006800244669D0F8AE
:101BB00004908768D0F80CB0D0F810A0D0F8188046
:101BC000F10748D0F90714D001218160B80703D587
:101BD000284600F020FB0CE0780702D54FF40064A3
:101BE00007E0380702D54FF4805402E0284600F0A1
:101BF00011FBF80516D529684FF480708860B80588
:101C000003D5284600F009FB0CE0780502D544F422
:101C1000005407E0380502D544F4804402E0284629
:101C200000F0FAFAF80316D529684FF4803088607E
:101C3000B80303D5284600F0F2FA0CE0780302D589
:101C400044F4004407E0380302D544F4803402E051
:101C5000284600F0E3FA300707D55FEACB6004D5E9
:101C60002968102044F40074C86070074FF008071A
:101C700007D55FEA0B7004D52868C760284600F0D6
:101C8000A9F9B00706D52868C068800702D02846A1
:101C900000F0A2F9700607D55FEACA6004D529688A
:101CA000102044F480640861B00607D55FEA0A702A
:101CB00004D528680761284600F07CFAF00606D5AE
:101CC00028680069800702D0284600F074FAB00343
:101CD00008D55FEAC96005D5296810204860284604
:101CE00000F06AFAF00307D55FEA097004D52868A6
:101CF0004760284600F094FA300446D55FEA497000
:101D000040D5F00504D55FEAC87001D044F0010465
:101D1000B00504D55FEA887001D544F0020470056F
:101D200004D55FEA487001D544F00404300529D594
:101D300018F0700F26D008F07000402815D006DC8F
:101D4000102809D020280AD0302816D10AE05028BF
:101D50000ED0602811D10EE044F008040DE044F0EC
:101D600010040AE044F0200407E044F0400404E0DA
:101D700044F0800401E044F480742868816921F013
:101D800070018161296804204860002C05D0686AD0
:101D9000204368622846FFF78FFEBDE8F09F70B5CC
:101DA000040003D094F8200010B104E0012070BDBD
:101DB000204600F081F82068016841F001010160CF
:101DC00000F01AFD0546052604E000F015FD401B55
:101DD0000A2811D820684068C007F6D0206801683A
:101DE00021F00201016000F007FD05460BE000F064
:101DF00003FD401B0A2806D9606A40F40030606287
:101E000084F82060D2E7206840688007EFD4207E05
:101E10000128206801683DD021F080010160607ECA
:101E200001282068016838D021F040010160A07EBF
:101E300001282068016833D021F020010160E07E94
:101E40000128206801682ED041F010010160207F38
:101E500001282068016829D021F008010160607F15
:101E600001282068016824D021F004010160D4E930
:101E700002010843D4E90412114308436168491E72
:101E800008432168C86100206062012084F82000B6
:101E9000002070BD41F08001C0E741F04001C5E77E
:101EA00041F02001CAE721F01001CFE741F008011D
:101EB000D4E741F00401D9E7F0B587B00446142116
:101EC0006846FEF756FB3E4B3E48DFF8F0E01968E7
:101ED000D4F800C03B4A032502260927103000240D
:101EE000491CF4452AD11960012907D1016841F044
:101EF00000710160006800F000700590106840F00B
:101F0000080010601068CDE9005600F00800CDE927
:101F1000047069462C48CDE9024500F06FFB0022B1
:101F20000521132000F0ACFE132000F09BFE0022E0
:101F30000521142000F0A4FE14203AE0DFF88CE024
:101F4000F44538D1D0F800C04CF0806CC0F800C027
:101F5000D0F800C001290CF0806CCDF814C01960D5
:101F600007D1016841F000710160006800F0007065
:101F70000590106840F002001060106802AB00F09D
:101F8000020005906020CDE9000683E8B0006946B4
:101F90000F4800F033FB002205213F2000F070FEC7
:101FA0003F2000F05FFE00220521402000F068FE87
:101FB000402000F057FE07B0F0BD00000064004074
:101FC0001800002030380240000C02400068004039
:101FD000000402407047000010B570498AB0884282
:101FE0007ED16F4B6F4A00216C48FFF766FD6D484C
:101FF0006B49A0F10A030268A1F12800B2F5407F05
:102000002ED0A2F54074013C02D10488012C38D0B6
:10201000A2F54073023B21D10A8852BA00EE102A81
:10202000604AB8EE400A1C3282ED0D0A4B885BBA5A
:1020300000EE103AB8EE400A82ED0E0A8B885BBAC9
:1020400000EE103AB8EE400A82ED0F0AC98849BA8C
:1020500000EE101AB8EE400A80ED090A0AB010BD71
:102060000288002AFAD10A8852BA1A804A8852BADB
:102070005A808A8852BA9A80C98849BAD98001217F
:1020800048E0484A1C88203A14805C8854809C8828
:102090009480DB88D3800B885BBA13818B78937232
:1020A000CB78D3724A7902F00103838002F00203F5
:1020B000C38002F00403038102F00803438102F0AD
:1020C0004003838102F08003C38102F01003038286
:1020D00002F0200242820A7902F00103838200E0CA
:1020E0001AE002F00203C38202F00403038302F049
:1020F0000803438302F01003838302F02003C383A9
:1021000002F04003038402F080024284C98849BA85
:10211000418000210180A1E7234988429ED10068C7
:102120002249884205D107AB6A4600211E48FFF7C5
:10213000C4FC00991E48A1F20121072913D2C9B29B
:10214000BDF81C2001EB410100EB810152BA8A80ED
:10215000BDF81E2052BACA80BDF8202052BA0A81AA
:102160009DF822208A720099A1F205210729D2D276
:10217000C9B2BDF81C2001EB410100EB810052BA4D
:102180008280BDF81E1049BAC180BDF8201049BA3E
:1021900001819DF82210817260E700001804002080
:1021A00084010020FC490020400400200068004019
:1021B0006C490020704770477047000070B50446B6
:1021C00090F82000012804D0606A40F4002060628A
:1021D00018E0022084F820002068016821F0010145
:1021E000016000F009FB05460EE000BF00F004FBB3
:1021F000401B0A2808D9606A40F40030606205205C
:1022000084F82000012070BD20684068C007EDD12F
:10221000606270BD70477047704770477047704785
:1022200070472DE9F0410446876D00F0E5FA064657
:1022300094F835000025022806D08020606584F8D7
:1022400034500120BDE8F0812068016821F01601BA
:1022500001602068416921F080014161206C08B96A
:10226000A06C20B12068016821F00801016020689D
:10227000016821F0010101600CE000F0BDFA801B53
:10228000052807D920206065032084F8350084F8EC
:102290003450D7E720680068C007EED194F85C108E
:1022A0003F208840B860012084F8350084F834501D
:1022B0000020C7E790F83510022903D0802141653E
:1022C00001207047052180F835100068016821F071
:1022D00001010160002070472DE9F84304464FF0EA
:1022E0000009CDF8009063484FF41651A56D0068C1
:1022F000B0FBF1F72E6894F85C10082000FA01F1A9
:1023000031420FD021680A6852070BD50A6822F0C3
:1023100004020A6094F85C108840A860606D40F088
:102320000100606594F85C104FF0010808FA01F0B4
:10233000304208D021684969090604D5A860606D5B
:1023400040F00200606594F85C1004208840304240
:1023500008D021680968890704D5A860606D40F03D
:102360000400606594F85C1010208840304218D05A
:1023700021680968090714D5A86020680168490325
:1023800004D50068000308D5A16C07E00168C90501
:1023900003D4016821F008010160216C09B12046D5
:1023A000884794F85C1020208840304231D0216862
:1023B0000968C9062DD5A86094F83500052820685D
:1023C000016806D0490347D5006800031DD4616C3D
:1023D0001CE021F0160101602068416921F08001B4
:1023E0004161206C08B9A06C20B12068016821F01F
:1023F0000801016094F85C103F208840A86084F8D0
:10240000358084F83490216D1FE0E16B09B12046DE
:102410008847606D00282BD0606DC00714D0052060
:1024200084F835002068016821F0010101600098FE
:10243000401C0090B84203D820680068C007F6D15D
:1024400084F8358084F83490E16C002910D001B014
:102450002046BDE8F04308470168C905D5D40168A6
:1024600021F01001016084F8358084F83490CCE7C5
:10247000BDE8F8832C0000202DE9F041044600F06F
:10248000BBF906465CB1022084F83500002584F8CB
:1024900034502068016821F0010101600DE0012045
:1024A000BDE8F08100F0A8F9801B052805D920209F
:1024B0006065032084F83500F2E720680068C007F3
:1024C000F0D12268116820480140D4E90103184383
:1024D000D4E903363343184363691843A3691843A7
:1024E000E3691843236A18430843616A042903D146
:1024F000D4E90B1319430843106020684069666AE9
:1025000020F0070130460E43012704280CD1A06AB1
:102510000643E06A40B12046FFF716F820B140209C
:10252000606584F83570BAE7206846612046FEF79A
:10253000F7FF94F85C203F2191408160656584F845
:1025400035700020ACE700003F8010F02DE9F0412D
:102550000446866D90F83400002501280DD0012036
:1025600084F8340094F835700020012F07D084F8E7
:10257000340002252846BDE8F0810220FBE702274F
:1025800084F8357060652046FFF708F894F85C1011
:102590003F208840B0602068016841F0160101606A
:1025A000206C20B12068016841F0080101602068BA
:1025B000016841F001010160DCE7000070B50446EC
:1025C00000F01AF90546601C02D004480078044463
:1025D00000F012F9401BA042FAD370BD2000002089
:1025E00070470000044910B50A68024202D0086032
:1025F000FFF7F6FF10BD0000143C01402DE9F84F35
:10260000DFF8BCA10022012503264FF00F090AF1D3
:10261000040BAAF1040E00BF0B6805FA02F4234074
:10262000A34270D10F7907F00307012F01D0022FC9
:1026300016D187684FEA420806FA08FC27EA0C0719
:10264000D1F80CC00CFA08FC4CEA070CC0F808C022
:102650004768A7430C79C4F3001494403C4344609A
:102660000C79E443A4070AD0C4684FEA420C06FA86
:102670000CF7BC438F6807FA0CF72743C7600C7947
:1026800004F00304022C12D1D40800EB840CDCF813
:1026900020405707FF0E09FA07F824EA0804D1F88A
:1026A000108008FA07F848EA0408CCF8208004688B
:1026B0004FEA420C06FA0CF7BC430F7907F0030708
:1026C00007FA0CF7274307604C6814F4403F70D0BA
:1026D0003C4C276847F480472760246822F00307B2
:1026E00004F480440094384C07EB040CDCF80848F0
:1026F00097074FEA177809FA08F7BC43334FB842F7
:1027000002D1002724E054E0314FB84201D1012723
:102710001EE0304FB84201D1022719E02E4FB842D7
:1027200001D1032714E02D4FB84201D104270FE057
:102730002B4FB84201D105270AE02A4FB84201D1F8
:10274000062705E0284FB84201D1072700E00827F7
:1027500007FA08F72743CCF80878DAF8004057461C
:10276000D1F804C09C435FEACC2C00D51C433C60EC
:10277000DBF800405F46D1F804C09C435FEA8C2C34
:1027800000D51C433C60DEF800407746D1F804C019
:102790009C435FEA8C3C00D51C433C60084F083FDB
:1027A0003C68D1F804C09C435FEACC3C00D51C4394
:1027B0003C60521C102AFFF42FAFBDE8F88F0000D8
:1027C000083C014044380240003001400000024013
:1027D0000004024000080240000C024000100240C9
:1027E0000014024000180240001C02400AB181613E
:1027F00070470904FBE7000001488068704700004B
:102800002000002070B5040025D094F83D0000257C
:1028100020B984F83C50204600F050F9242084F878
:102820003D002068016821F0010101602068016815
:1028300041F4004101602068016821F40041016019
:1028400000F00AFB4D4A6168914201D84C4900E012
:102850004C49884201D2012070BD4B492368B0FB2E
:10286000F1F15E6826F03F060E435E6063689342B6
:1028700006D94FF4967359434FF47A73B1FBF3F1D1
:102880002368491C1E6A26F03F06314319626168BD
:10289000914210D84900401EB0FBF1F2521CC2F325
:1028A0000B02042A01D2042022E0B0FBF1F0401C0C
:1028B000C0F30B001CE0A268F2B301EBC10303EB11
:1028C0000116431EB3FBF6F35B1C43F480431B0568
:1028D00049D092B301EBC10202EB0111401EB0FBE3
:1028E000F1F0401CC0F30B0040F4804040F4004085
:1028F0002168CA694CF6FF739A431043C861D4E952
:10290000071001432068026822F0C00211430160F1
:10291000D4E9030101432068826848F2FF339A43F7
:1029200011438160D4E9050108432168CA6822F097
:10293000FF021043C86001E00EE016E02068016865
:1029400041F0010101602564202084F83D002563E9
:1029500084F83E50002070BD01EB4106431EB3FBDE
:10296000F6F35B1CB3E70120C2E701EB4101401E17
:10297000B0FBF1F0401CC0F30B00B7E7A0860100EC
:1029800080841E0000093D0040420F002DE9FF4FEA
:1029900083B09A46DDE9119793460446DDF84080FE
:1029A000FFF72AFF054694F83D0020287FD1192320
:1029B000012240492046009502F00EF8002876D109
:1029C00094F83C00012872D0012084F83C00206873
:1029D0000168C90703D1016841F001010160206865
:1029E000016821F400610160212084F83D0040204D
:1029F00084F83E0000262664C4F82480A4F82A90B7
:102A0000608D20852C48E062CDE9007553465A461A
:102A10002046049901F066FF70B930E02A46394635
:102A2000204602F058F858B1206C042804D12068E0
:102A3000016841F400710160012007B0BDE8F08F2A
:102A4000606A216800780861606A401C6062218DBC
:102A5000491E89B22185628D521E628522685369A2
:102A6000DB435B070BD469B100781061606A401CDE
:102A70006062208D401E2085608D401E6085208D07
:102A80000028CBD12A463946204601F07FFF002896
:102A9000CAD154F83D0B016841F400710160202057
:102AA00004F81E09E67766770020C6E7FFE70220F4
:102AB000C3E70000020010000000FFFFF0B587B080
:102AC000044614216846FDF754FD1D4920688842DC
:102AD00033D11C480024016841F004010160016801
:102AE00001F004010591016841F0010101600068F5
:102AF000122500F0010005904FF40070CDE90005AB
:102B000002AA0326042782E8D00069460E48FFF790
:102B100075FDB801CDE9000502AA694682E8D0003A
:102B20000A48FFF76BFD07481030016841F40001C7
:102B30000160006800F40000059007B0F0BD0000DF
:102B4000005C0040303802400008024000000240B3
:102B5000024881680278114481607047200000209B
:102B60000B4810B5016841F400710160016841F43F
:102B700080610160016841F480710160032000F010
:102B80009FF80F2000F006F800F050F8002010BD6C
:102B9000003C024030B505461F4887B0002401685C
:102BA00041F002010160006806A900F002000090F7
:102BB00001A800F031F90498A8B100F04DF94000E7
:102BC0001649174AB0FBF1F11648491E026040F25F
:102BD000E732C0E90324C0E90114846101F012F86E
:102BE000040003D015E000F037F9E9E70D4801F0E3
:102BF000B1F804000DD11D2000F034F8102D07D2DB
:102C0000002229461D2000F03BF80748056000E03F
:102C1000012407B0204630BD4038024040420F003A
:102C200000040040480A0020240000200C4882B024
:102C3000016841F480410160006800F48040009028
:102C40000748001F016841F08051016000680022C0
:102C500000F0805000900F21901E02B000F010B8DC
:102C600044380240002809DB00F01F020121914096
:102C70004009800000F1E020C0F80011704700001A
:102C8000F0B40E4B1B680C46C3F30223C3F10705D7
:102C9000042D00D90425191D072901D2002300E0C5
:102CA000DB1E012606FA05F1491E214099409E408F
:102CB000761E16403143F0BC03F01FBD0CED00E062
:102CC000064900F0070208684FF6FF03184040EA83
:102CD0000220034A10430860704700000CED00E03A
:102CE0000000FA052DE9F0470E46050065D0DFF833
:102CF0001481D8F80000F7B200F00700B04207D204
:102D000088F80070D8F8000000F00700B04254D1F5
:102D100028683D4C810712D5400703D5206840F450
:102D2000E05020602878000703D5206840F4604018
:102D300020602068A96820F0F0000843206028780F
:102D4000C0072DD0304968680839012812D0022800
:102D500013D0032811D00968890700292DDA2168CA
:102D600021F0030101432160FFF746FD814641F256
:102D7000883A0EE009688903EFE709688901ECE702
:102D8000FFF73AFDA0EB0901514502D90320BDE848
:102D9000F0872068696800F00C00B0EB810FEFD17C
:102DA000D8F80010404601F00701B14207D907707A
:102DB000006800F00700B04201D00120E7E7287862
:102DC000400705D52068E96820F4E05008432060FA
:102DD0002878000706D52068296920F4604040EA79
:102DE000C100206000F058F82168084AC1F30311BF
:102DF000515CC8400649086006480068FFF7CAFEF3
:102E00000020C4E7003C024008380240549100080A
:102E10002C000020240000200F2202600C4A1368BE
:102E200003F003034360136803F0F0038360136847
:102E300003F4E053C36012684FF4E05303EAD20294
:102E400002610448006800F0070008607047000055
:102E500008380240003C02400448054900680968FF
:102E6000044AC1F38221515CC84070472C00002005
:102E70000838024064910008044805490068096860
:102E8000044AC1F34231515CC84070472C00002015
:102E90000838024064910008154810B5006810F029
:102EA0000C02144813D01449042A0FD0082A0ED15A
:102EB0000F4C241F2268236802F03F025B0207D5F3
:102EC0002068C0F38810A0FB010106E0084610BD91
:102ED0002168C1F38811A1FB00010023FDF734FA3A
:102EE0002168C1F30141491C4900B0FBF1F010BD5C
:102EF000083802400024F400001BB7002DE9F84F09
:102F000004006ED02078DFF84C93C007A9F10405C7
:102F10004AD009F104000168C1F38101012908D0F8
:102F20000068C0F3810002280AD1D9F800004002ED
:102F300006D52868800337D560680028E1D033E0E3
:102F40006068B0F5803F10D0B0F5A02F286810D091
:102F500020F480302860286820F480202860606891
:102F6000A8B1FFF749FC06460DE0286840F4803020
:102F7000F4E740F480202860F7E700BFFFF73CFC4F
:102F8000801B642873D828688003F7D50CE0FFF70E
:102F900033FC064605E000BFFFF72EFC801B6428CB
:102FA000F0D828688003F7D42078DFF8AC82800757
:102FB0004FF0000A3ED5A748001D016811F00C0F24
:102FC00008D00068C0F3810002280BD1D9F80000B6
:102FD000400207D42868800716D5E068012800D190
:102FE00012E033E1E068B8B10120C8F80000FFF753
:102FF00003FC064605E000BFFFF7FEFB801B02282E
:10300000C0D828688007F7D52868216920F0F80023
:1030100040EAC10028600DE0C8F800A0FFF7ECFB13
:10302000064604E0FFF7E8FB801B02281FD828684B
:103030008007F7D42078000722D5864F874861693A
:10304000703771B101210160FFF7D6FB064604E03D
:10305000FFF7D2FB801B022809D838688007F7D514
:103060000EE0C0F800A0FFF7C7FB064605E082E0CF
:10307000FFF7C2FB801B02287DD838688007F7D491
:103080002078400768D5DFF8CCB100270BF13C0B66
:10309000DBF80000C0000BD4DBF8001041F08051D9
:1030A000CBF80010DBF80000012700F08050009002
:1030B0006B4E3068C00510D4306840F480703060CA
:1030C000FFF79AFB009005E0FFF796FB0099401A86
:1030D000022850D83068C005F6D55E4EA0686C3620
:1030E00001280FD00528306810D020F00100306092
:1030F000306820F004003060A068B8B1FFF77CFBB6
:1031000000900FE0306840F00100F4E740F0040068
:103110003060F7E7FFF770FB0099411A41F2883001
:10312000814266D830688007F4D50EE0FFF764FB73
:10313000009007E0FFF760FB0099411A41F28830E8
:10314000814256D830688007F4D42FB1DBF80010E4
:1031500021F08051CBF80010A069C8B33D49091D8A
:103160000968C1F3810102294AD00228504607D0DC
:10317000C8F8600000E03CE0FFF73EFB04463BE09F
:103180004746C8F86000FFF737FB064605E000BF7A
:10319000FFF732FB801B02282BD828688001F7D468
:1031A000D4E907010843A16A2E4A490802EB01410C
:1031B000626A41EA8211084394F82C1040EA0161E6
:1031C000C9F8001001203866FFF716FB044606E038
:1031D0003EE000BFFFF710FB001B022809D828685B
:1031E0008001F7D534E000BFFFF706FB001B022883
:1031F00002D90320BDE8F88F28688001F4D427E0C5
:103200000128F7D0D9F80000E26900F4800191426A
:103210001CD1226A00F03F01914217D147F6C071DC
:10322000626A0140B1EB821F10D1A26A4FF0FF33F6
:1032300000F4403103EB5202B1EB024F06D194F897
:103240002C1000F07060B0EB016F01D00120D1E7CD
:103250000020CFE70438024000004742800E47427A
:10326000007000400000FFFF704790F85100704769
:1032700038B5016804464A688868C043430606D5E5
:10328000C30704D1D3435B0601D4216C05E0830757
:1032900008D4D3431B0605D4616C01B02046BDE8B9
:1032A00030400847830603D5430601D5C30551D4F2
:1032B000D3439B064ED443060AD494F85130032BD3
:1032C00049D0636D43F004036365CB688B6800935A
:1032D000830609D4636D43F0010363658B68009333
:1032E0000B6823F040030B60C00506D4606D40F00E
:1032F00008006065206880680090606D002829D013
:103300002068416821F0E0014160012084F851000B
:10331000900701D4D00722D02068416821F0030132
:103320004160114DE06C40B10565E06CFEF7C2FFF5
:1033300018B1606D40F040006065A06C002809D0B5
:103340000565A06CFEF7B6FF002803D0606D40F065
:103350004000606538BDC8688868009038BD204668
:10336000FFF782FF38BD00005559000870B5040012
:1033700009D0606A002540B125616561A56294F8B5
:10338000510040B10CE0012070BD6068B0F5827F53
:10339000F4D0E561F2E784F85050204600F044F89C
:1033A000022084F851002068016821F0400101608A
:1033B000A088218900F4827001F404410843A189A6
:1033C00001F400610843217C01F002010843217DE2
:1033D00001F001010843218B01F400710843217FB2
:1033E00001F03801084394F8201001F080010843EF
:1033F000218D01F40051084321680860A06904216F
:1034000001EA104094F8241001F0100108432168EB
:1034100048602068C16921F40061C16165650120CF
:1034200084F85100002070BD2DE9F04186B00646B9
:1034300014216846FDF79DF83849306888426AD102
:1034400037480024016841F480510160006800F4AD
:103450008050059032481438016841F00201016043
:10346000016801F002010591016841F0010101606C
:103470000068022500F0010005901820CDE9000544
:1034800002AA03274FF0050882E890016946254803
:10349000FFF7B4F88020CDE9000502AA694682E86A
:1034A00090012148FFF7AAF8214D20487F062860A7
:1034B000C5E901744FF48068C5E903486C61AC61EB
:1034C000EC612C6228466C62FEF7D6FF08B1FEF76D
:1034D00049F9F564AE63164D144860354830E5E8A7
:1034E00002074020A5E81101114845F81449603051
:1034F000AC61EC612C626C62FEF7BEFF08B1FEF7B6
:1035000031F9B564002205212320AE63FFF7B8FB33
:103510002320FFF7A7FB06B0BDE8F0810030014093
:10352000443802400004024000000240106402409F
:10353000140500202DE9F84F044640680025984600
:1035400016460F464FF0040BB0F5827F01D1A068FC
:1035500088B194F85000012818D0012084F8500058
:10356000FFF74AF9814694F851004FF0000A01280C
:103570000ED0022582E084F851B013460A46204658
:10358000CDF8008000F000F9BDE8F88F0220FBE7DD
:10359000002F72D0002E70D084F851B0C4F854A01F
:1035A000A763A687E687C4F830A0A4F834A0A4F8DF
:1035B00036A0C4F840A0C4F844A0A068B0F5004FFD
:1035C00009D12068016821F040010160206801688C
:1035D00021F48041016020680168490603D4016834
:1035E00041F040010160E068D8B139E020688168AD
:1035F000C90709D0007BA16B0870A06B401CA063B9
:10360000E08F401EE0870CE0FFF7F6F8A0EB090121
:10361000414503D3B8F1FF3F03D036E0B8F1000FC6
:1036200033D0E08F0028E1D11DE020688168C90710
:1036300009D0C068A16B0880A06B801CA063E08FDC
:10364000401EE0870CE0FFF7D7F8A0EB09014145E9
:1036500003D3B8F1FF3F03D017E0B8F1000F14D047
:10366000E08F0028E1D14A464146204602F02EFA7A
:1036700008B120206065606D00B10125012084F84B
:10368000510084F850A028467EE70325F6E70000A5
:103690002DE9F041044600268068042318B96568C6
:1036A000B5F5827F0ED094F85050012D13D001272C
:1036B00084F8507094F851C00025BCF1010F0DD072
:1036C000022654E084F851302046BDE8F04113460C
:1036D0000A4600F04BB90220BDE8F08171B16AB131
:1036E00084F851306565A163A287E287256465642B
:1036F000A586E586B0F5004F02D00BE0012636E046
:103700002068016821F0400101602068016821F40F
:1037100080410160E16C18480864E16C1748C86397
:10372000E16C1748C864E06C0565E38F2168A26B03
:103730000C31E06CFEF70AFF38B1606D40F010000C
:103740006065012684F8517011E02068016849061F
:1037500003D4016841F0400101602068416841F0F4
:10376000200141602068416841F00101416084F816
:1037700050503046B0E7000087590008A5590008AE
:1037800065590008704770472DE9F84F044690F8D6
:10379000500000270A9E1D4692468B464FF00109B5
:1037A00001280ED0012084F85000FFF725F880464C
:1037B00094F85100616801280CD0B1F5827F07D1DF
:1037C00002E00220BDE8F88FA16809B9042801D001
:1037D0000227C2E0BBF1000F27D0BAF1000F24D0BE
:1037E0001DB394F85100042802D0052084F851003C
:1037F00000206065C4F838A0E587A587C4F830B01C
:10380000E586A5862064606420680168490603D4C3
:10381000016841F040010160E068B0F5006F606848
:1038200005D0E8B3012D46D07FE0012795E008B12F
:10383000012D39D1206B21680088C860206B801C65
:103840002063E08E401EE0862EE0206881688907B4
:103850000FD5E18E69B1B9F1010F0AD1216B098849
:10386000C160206B801C2063E08E401EE0864FF01C
:10387000000920688168C9070CD0E18F51B1C06888
:10388000A16B0880A06B801CA063E08F401EE087C6
:103890004FF00109FEF7B0FFA0EB0800B04200E0D6
:1038A00009E001D3701C50D1E08E0028CDD1E08F0B
:1038B0000028CAD13FE0206B216800780873206B94
:1038C000401C2063E08E401EE0862EE02068816868
:1038D00089070FD5E18E69B1B9F1010F0AD1216BCA
:1038E00009780173206B401C2063E08E401EE08647
:1038F0004FF0000920688168C9070CD0E18F51B1F1
:10390000C068A16B0870A06B401CA063E08F401ED4
:10391000E0874FF00109FEF76FFFA0EB0800B0420F
:1039200002D3701C01D010E07EB1E08E0028CDD112
:10393000E08F0028CAD142463146204602F0F4F812
:1039400028B101272020606507E0032705E0A06873
:1039500018B92068C16880680090012084F851007F
:10396000002084F8500038462CE700002DE9F04193
:10397000044690F85000002601280DD0012784F855
:10398000507094F851000025D4F804C001280FD0DD
:10399000BCF5827F0AD102E00220BDE8F081D4F8B4
:1039A00008C0BCF1000F01D1042801D0022660E05C
:1039B00049B342B33BB394F85100042802D0052028
:1039C00084F8510065652163A386E386A263A3871B
:1039D000E3872564656494F85100042815D0E16CF0
:1039E000264808642648E16CC863E16C2548C86431
:1039F000E06C0565E38F2168A26B0C31E06CFEF78B
:103A0000A5FDE0B906E0012633E0E16C1E4808643C
:103A10001E48E8E72068416841F001014160A06C60
:103A20000564A06CC563A06CC564A06C0565E38EDD
:103A30002268216B0C32A06CFEF788FD38B1606DF6
:103A400040F010006065012684F8517011E0206894
:103A50000168490603D4016841F040010160206813
:103A6000416841F0200141602068416841F0020155
:103A7000416084F8505030468FE700009B590008A1
:103A8000735A00086559000887590008A5590008AD
:103A90002DE9F041044690F850000026012809D095
:103AA000012784F8507094F851000025012804D0B3
:103AB00002264EE00220BDE8F08189B182B10320E8
:103AC00084F8510065652163A286E286A56365647A
:103AD0002564A587E587A068B0F5004F02D00BE00C
:103AE000012636E02068016821F04001016020686D
:103AF000016841F480410160A16C18480864A16C20
:103B00001748C863A16C1748C864A06C0565E38EAC
:103B10002268216B0C32A06CFEF718FD38B1606D85
:103B200040F010006065012684F8517011E02068B3
:103B30000168490603D4016841F040010160206832
:103B4000416841F0200141602068416841F0020174
:103B5000416084F850503046ADE7000091590008AC
:103B60000F5A000865590008704770477047704742
:103B70007047704770B590F83C20012A32D001247C
:103B800080F83C40022280F83D2003685A689D6816
:103B900022F070060A6832435A60134B02689A4258
:103BA00014D0B2F1804F11D0104B9A420ED0104B6E
:103BB0009A420BD00F4B9A4208D00F4B9A4205D035
:103BC0000E4B9A4202D00E4B9A4204D1496825F01E
:103BD00080031943916080F83D40002180F83C103B
:103BE000084670BD022070BD000001400004004086
:103BF00000080040000C004000040140004001406B
:103C00000018004010B5040003D094F83D0010B136
:103C100007E0012010BD002084F83C00204600F0A1
:103C20001FF8022084F83D00211D206802F0CCF826
:103C3000012084F8460084F83E0084F83F0084F8B0
:103C4000400084F8410084F8420084F8430084F87E
:103C5000440084F8450084F83D00002010BD0000B9
:103C600008B5374A01683748914212D1016841F0DE
:103C7000010101600068002200F00100009011467F
:103C80001820FEF7FDFF1820FEF7ECFF002211467A
:103C90004CE0B1F1804F19D02B4A914227D10168F5
:103CA00041F0020101600068002200F00200009073
:103CB00005212B20FEF7E4FF2B20FEF7D3FF002287
:103CC00005212C20FEF7DCFF2C2033E01D48001FCF
:103CD000016841F0010101600068002200F001006C
:103CE000009005211C20FEF7CBFF1C2022E0174A84
:103CF00091420ED1016841F48031016000680022D8
:103D000000F48030009005211820FEF7B9FF18203C
:103D100010E00F4A914211D1016841F40031016075
:103D20000068002200F40030052100901920FEF701
:103D3000A7FF1920BDE80840FEF794BF08BD0000AA
:103D400000000140443802400004014000400140AE
:103D50000044014090F83D10012901D00120704736
:103D6000022180F83D100168CA6842F00102CA6071
:103D700000681149884214D0B0F1804F11D00F492A
:103D800088420ED00E4988420BD00E49884208D096
:103D90000D49884205D00D49884202D00C4988421D
:103DA00004D1816801F00701062903D0016841F0C0
:103DB0000101016000207047000001400004004044
:103DC00000080040000C0040000401400040014099
:103DD0000018004070B5044690F83C00002501280A
:103DE00017D0012684F83C60022084F83D0020684A
:103DF000826822F0770222F47F42826008685028AD
:103E000038D00DDC20284FD005DC90B3102811D11C
:103E10004AE0022070BD302846D040280AD13BE05D
:103E200060282FD070280DD0B0F5805F03D0B0F59A
:103E3000005F12D0012584F83D60002084F83C002A
:103E4000284670BDCB68D1E90121206802F02DF829
:103E50002068816841F0770109E0CB68D1E9012150
:103E6000206802F022F82068816841F48041816076
:103E7000E1E719E0CA684968206802F0EBF85021D0
:103E8000206806E0CA684968206802F0F4F86021FA
:103E9000206802F014F8CEE7CA684968206802F08A
:103EA000D9F840212068F4E7226801461046F0E77F
:103EB000704770B50446006801694FF00005C943BA
:103EC000890715D4C168C943890711D4E91E016166
:103ED00001202077206880698007204602D0FFF704
:103EE000E7FF04E000F0C2F8204600F054F925771F
:103EF00020680169C943490717D4C168C943490704
:103F000013D46FF0040101610220207720688069DA
:103F100010F4407F204602D0FFF7CAFF04E000F013
:103F2000A5F8204600F037F9257720680169C943D4
:103F3000090716D4C168C943090712D46FF00801F4
:103F40000161042020772068C0698007204602D0E4
:103F5000FFF7AEFF04E000F089F8204600F01BF9FF
:103F6000257720680169C943C90617D4C168C943C8
:103F7000C90613D46FF01001016108202077206872
:103F8000C06910F4407F204602D0FFF791FF04E0A3
:103F900000F06CF8204600F0FEF8257720680169F3
:103FA000C943C90708D1C168C943C90704D1891EDB
:103FB0000161204600F054F920680169C9430906EF
:103FC00009D4C168C943090605D46FF080010161B5
:103FD0002046FFF7CDFD20680169C943490609D491
:103FE000C168C943490605D46FF04001016120460C
:103FF00000F040F920680169C94389060BD4C16803
:10400000C943890607D46FF0200101612046BDE84D
:104010007040FFF7AEBD70BD10B586B004461421E8
:104020006846FCF7A6FA0E492068884215D10D486B
:10403000016841F0200101600068012100F02000CA
:104040000590402000900220CDE90101039003205B
:10405000049069460448FEF7D1FA06B010BD00008E
:10406000004401403038024000140240704770B5EF
:10407000044690F83C0000260D4601280FD0012090
:1040800084F83C006AB1042A1DD0082A2FD00C2ADB
:104090003FD00126002084F83C00304670BD02204D
:1040A00070BD206801F014FF2068816941F00801AB
:1040B00081612068816921F0040181612068816942
:1040C0002A69114311E0206801F032FF20688169FC
:1040D00041F4006181612068816921F4806181611E
:1040E000206881692A6941EA02218161D2E720685A
:1040F00001F054FF2068C16941F00801C1612068E6
:10410000C16921F00401C1612068C1692A691143B4
:1041100011E0206801F076FF2068C16941F4006178
:10412000C1612068C16921F48061C1612068C169F1
:104130002A6941EA0221C161ACE710B5040003D04D
:1041400094F83D0010B107E0012010BD002084F874
:104150003C00204600F01EF8022084F83D00211D9E
:10416000206801F031FE012084F8460084F83E000A
:1041700084F83F0084F8400084F8410084F842004D
:1041800084F8430084F8440084F8450084F83D0036
:10419000002010BD7047704710B50446022249B197
:1041A00004290ED0082913D094F84100012816D014
:1041B000012010BD94F83E000128F9D184F83E207A
:1041C0000FE094F83F000128F2D184F83F2008E086
:1041D00094F840000128EBD184F8402001E084F8F5
:1041E00041200122206801F053FE16492068164A3A
:1041F000884201D0904203D1436C43F400434364AE
:104200002068884213D0B0F1804F10D00F49884207
:104210000DD00F4988420AD00E49884207D09042FB
:1042200005D00D49884202D00C49884204D18168EA
:1042300001F00701062903D0016841F00101016086
:10424000002010BD000001400004014000040040B7
:1042500000080040000C00400040014000180040F1
:1042600000680349884201D1FEF772BC7047000024
:10427000000400407047704770470000F8B50168BF
:1042800004460868CA684B6910F00F0F4FF000052C
:104290005AD003F0010602F49077374365D0C10786
:1042A00005D0D10503D5216C41F0010121644107FE
:1042B00005D5D90703D0216C41F0020121648107A3
:1042C00005D5D90703D0216C41F004012164010711
:1042D00007D502F02001314303D0216C41F00801E1
:1042E0002164216C00293BD0800604D5900602D5BC
:1042F000204601F05AFF20684069216CC0F380100D
:1043000001F00801014320462BD001F019FF20687D
:104310004069400621D52068143050E8001F21F084
:10432000400140E80012002AF5D1A06BA8B16C4909
:104330000165A06BFDF7BEFF002811D0A06B016DD9
:1043400001B0BDE8F040084783060ED593060CD5B2
:104350002046BDE8F84001F028BF2046FFF78CFF5B
:10436000F8BDFFF789FF2564F8BD266B2023012ED9
:1043700079D1C60677D5D60675D508684868009005
:104380004869400640D5A16B086840680004000CED
:10439000EAD0A28D8242E7D9E085C869B0F5807F76
:1043A0002DD020680C3050E8001F21F4807140E8C7
:1043B0000012002AF5D12068143050E8001F21F0C7
:1043C000010140E80012002AF5D12068143050E8BD
:1043D000001F21F0400140E80012002AF5D184F8C6
:1043E0003E30256320680C3050E8001F21F010019A
:1043F00040E80012002AF5D1A06BFDF712FFA08D56
:10440000E18D401A81B229E0A08DE18D401A81B280
:10441000E08D0028A8D00029A6D020680C3050E8F4
:10442000002F22F4907240E80026002EF5D120687B
:10443000143050E8002F22F0010240E80026002E40
:10444000F5D184F83E30256320680C3050E8002F09
:1044500022F0100240E80023002BF5D12046FFF7A0
:104460000AFFF8BDFFE705062BD5150629D594F8F8
:104470003D002128F5D1A068B0F5805F01D1206909
:10448000B0B1206A411C2162216800784860E08C4C
:10449000401E0004000CE084E3D12068C16821F0D4
:1044A0008001C1602068C16841F04001C160D8E767
:1044B000206A0088C0F308004860206A801C2062DF
:1044C000E5E74006CDD55006CBD5CA68204622F098
:1044D0004002CA6084F83D3000F0EAF9C1E700000C
:1044E0009B60000870B5040004D094F83D000025DE
:1044F00010B106E0012070BD84F83C50204600F069
:1045000023F8242084F83D002068C16821F400517C
:10451000C160204601F0AAFE2068016921F49041A3
:1045200001612068416921F02A0141612068C16868
:1045300041F40051C1602564202084F83D0084F8D6
:104540003E00002070BD00002DE9F04F87B004460A
:1045500014216846FCF70DF8A648DFF89482143859
:104560000322D4F800C0A34B02211704002506152E
:104570004FF0070E4FF04009C4456FD1D3F800C08B
:104580004CF0100CC3F800C01B6803F01003059337
:10459000036843F002030360036803F0020305931A
:1045A000036843F00103036000688A4600F00100DD
:1045B00005908020CDE9000ACDE902529346F046ED
:1045C0006946CDF810E08C48FEF718F87010CDE978
:1045D000000ACDE9025B6946CDF810808748FEF7F6
:1045E0000DF8DFF820B2864958464FF0006802C047
:1045F0000915E0E802858E10E0E80351BA4640F85C
:10460000045C80E860045846CBF82450FDF734FF82
:1046100008B1FDF7A7F87B4F7948C4F838B0603788
:104620007830CBF8384087E801030015C7E903501C
:1046300007F118007D6180E8600438467D62FDF76F
:104640001BFF08B1FDF78EF86763002205212520C6
:10465000BC63FEF715FB252062E0FFE7DFF8A881C9
:10466000C44562D1634BAA461B1FD3F800C04CF46B
:10467000802CC3F800C01B6803F4802305930368F3
:1046800043F004030360006800F0040005904FF459
:1046900040608DE82300CDE9032E69465B48FDF7B5
:1046A000ADFFDFF860815A4908F1C0084046C8F8FC
:1046B00000104FF0006BC0E901B5C0E90356C8F81F
:1046C00020708915C8F81450C8E90651C8F824505C
:1046D000FDF7D2FE08B1FDF745F84E4DC4F838801D
:1046E0004B48C8F838403030C5F80890C5E9000B91
:1046F000C5E903A6C5F814A0C5F818A0C5E907A721
:104700002846C5F824A0FDF7B7FE08B1FDF72AF842
:104710006563002205212720AC63FEF7B1FA27204C
:10472000FEF7A0FA07B0BDE8F08FDFF8EC80C445D3
:10473000F8D1D3F800C04CF0200CC3F800C01B68BF
:1047400003F020030593036843F04003036000680F
:1047500000F0400005904FF48440CDE900010120B5
:10476000CDE902020820049069462C48FDF746FF77
:10477000DFF8A080224908F16008183940464FF060
:10478000206AC8F80010C0E901A5C0E90356C8F8BE
:104790001450C8F81850C8E90757C8F82450FDF756
:1047A0006BFE08B1FCF7DEFF1A4FC4F83880C03743
:1047B000C8F83840C7F80890C7E9035610487D612B
:1047C0006030BD61C7E9000A4FF48030C7E9075087
:1047D00038467D62FDF750FE08B1FCF7C3FF676302
:1047E000002205214720BC63FEF74AFA472097E7DD
:1047F0000010014044380240000402400000024022
:1048000040640240080800200048004000080240C0
:1048100028600240280900200014014000180240CE
:104820007047000070B5044690F83D00202836D14E
:1048300091B38AB394F83C00012830D0012084F869
:104840003C002162A284E28400252564212084F8B2
:104850003D00636B1348D863636B13481864636B44
:104860001248D864606B134605652668606B321D7C
:10487000FDF76CFE21686FF04000086084F83C5042
:104880002068143050E8001F41F0800140E8001219
:10489000002AF5D1002070BDFFE70120FBE70220D0
:1048A000F9E70000F560000837610008AB60000818
:1048B00070477047FEE701684A69D24352050FD43A
:1048C0006FF480624A61002140F8301F2022427359
:1048D0008173026942F00402026101730120704792
:1048E000002070472DE9F843044600680D46DDE9D5
:1048F000089701689846164641F4807101604B465E
:1049000000224FF001112046009700F065F848B1F1
:1049100020680068C00502D54FF4007020640320B1
:10492000BDE8F883216805F0FE0008613B464A4671
:104930001549204600F084F888B9206841698069EB
:1049400000903A464946204600F0C5F848B1206C30
:10495000042804D12068016841F40071016001203D
:10496000DEE7F5B2B8F1010F09D02168300A08611D
:104970003A464946204600F0AEF80028E7D12068C4
:1049800005610020CCE700000200010070B516466A
:104990000D4604460DE02046FFF78DFF08B10120CB
:1049A00070BD681C05D0FDF727FF801BA84207D803
:1049B00035B120684069C0434007ECD4002070BD89
:1049C000002044F8300F20216173A073216941F069
:1049D000200121612073E2E72DE9F0471E46904651
:1049E0000D460446C1F30747DDF8209008E0701C2F
:1049F00006D0FDF701FFA0EB0900B0420FD876B159
:104A00002068012F18D0806925EA00000004000CFE
:104A100014D000214145EAD00020BDE8F0870020F5
:104A200044F8300F20216173A073216941F0200107
:104A3000216120730120F0E74069E5E70121E9E702
:104A40002DE9F0479A4691460E46044600254FF060
:104A50002008C1F3074725E020684069C0434005AE
:104A600014D42068016841F40071016021686FF47A
:104A700080604861256384F83D8084F83E50206C56
:104A800040F00400206484F83C501FE0B9F1FF3F7F
:104A900008D0FDF7B1FEA0EB0A0149450CD8B9F1E9
:104AA000000F09D02068012F13D0806926EA00008A
:104AB0000004000C0BD0CFE744F8305F84F80D8081
:104AC000A573206940F02000206125730120BDE816
:104AD000F0874069EAE770B516460D4604460DE0DA
:104AE0002046FFF7E8FE08B1012070BD681C05D024
:104AF000FDF782FE801BA84207D835B120684069C7
:104B0000C0430006ECD4002070BD002044F8300FF4
:104B100020216173A073216941F02001216120737C
:104B2000E2E700002DE9F047384C00252DED088B19
:104B300004F1240904F1280804F1180640F6B837F6
:104B40009FED33BB4A4641463046FBF7F3FE94EDFA
:104B50000A0A79EE809A94ED0B0A3AEE00AA94EDD7
:104B60000C0A7AEE80AA94ED060A78EE808A94ED1B
:104B7000070A39EE009A94ED080A38EE000A10EEA2
:104B8000100A04F013FA53EC1B2B04F025F903F080
:104B90008DFD08EE100ABD4233D100EE105AB8EE7A
:104BA000C00AC9EE800A00EE105AB8EEC00AC4ED81
:104BB000030ACAEE000A00EE105AB8EEC00AC4EDAD
:104BC000040ACAEE800A00EE105AB8EEC00AC4ED1C
:104BD000050AC8EE800A00EE105AB8EEC00AC4ED0D
:104BE000000AC9EE000A00EE105AB8EEC00AC4ED81
:104BF000010AC8EE000AC4ED020ABDEC088BBDE84C
:104C0000F0876D1CBD429DDDF7E70000C84700201E
:104C100014AE47E17A94234086B0072002F064FE88
:104C2000FBF76EFDFBF708FE02F0EEFDFFF77AFFE3
:104C30002948FBF733FD41F230100090264841F23D
:104C40009413264A0021483802F0D8FE224C244F03
:104C500004F12400039008380290103001900C38C1
:104C60000490083004F1300B04F13C0A04F13809D7
:104C700004F1340804F1400604F1180500902846B8
:104C8000039A0099FBF756FE94ED090A02F04AFDDB
:104C90002946009800F05EF9DDE9010100F05AF9BB
:104CA0005846049900F056F904F12801304691EC79
:104CB000030A1039D1EC031A00F0EEFC53464A46C1
:104CC0004146304602F06AFC002003F0F3F9F86236
:104CD000012002F009FED2E7C84700206C910008CD
:104CE000980000202DE9F0470E4607460025DFF822
:104CF0009C91C3E0785DA52875D1781904460521FB
:104D000001F0F2FB00286ED06078A17840EA01281B
:104D100005EB08000930B04274D8204608F10901BB
:104D200001F0C4FB00285ED06079A17940EA01203F
:104D300040F20221A0F20222884264D017DCB0F5D2
:104D4000817F3BD009DC01281AD003281FD0052819
:104D500026D0B0EB610051D129E0B0F5827F34D08C
:104D6000A0F58070053837D0FC2847D13CE0092AEF
:104D700044D2DFE802F0434F565D646B72797B00EA
:104D80000B20804602464148E11D8F3805E0202077
:104D9000804602463D48E11D8338FBF76BFB2DE062
:104DA0000D20804602463948E11D6338F5E70420AE
:104DB000804602463548E11D5638EEE7042080461D
:104DC00002463248E11D5238E7E70220804602469B
:104DD0002E48E11D4E38E0E70120804602462B4870
:104DE000E11D4C38D9E747E01B20804602462748A2
:104DF000E11D4B38FBF73EFBFCF7F0FB05EB080031
:104E00000930C5B23AE01020804602461F48E11D35
:104E10003038C2E71020804602461C48E11D203889
:104E2000BBE70120804602461848E11D1038B4E770
:104E30000120804602461548E11D0F38ADE70120EC
:104E4000804602461148E11D0E38A6E7072080463D
:104E500002460E48E11D0D389FE7062080460246B7
:104E60000A48E11D801F98E7042000E006208046E4
:104E70000246E11D484690E76D1CEDB2B542FFF4D5
:104E800039AFBDE8F04701F0F1BA00008C4C0020CA
:104E900030B52A4C87B0A52004F8010B33202080C0
:104EA00027480078A070274800F58071D1F81220BB
:104EB00040F84A2F897D0171224805214A30FBF7CD
:104EC00011FC40F20130A0804FF48870E0801D4852
:104ED000803890F849102181B0F8B80060811A48F4
:104EE000FBF7A9FA0DF10C0C174D40F22A333222D0
:104EF00001218CE82E000A210822CDE90021029030
:104F00000E480023012211A10D30FBF739FE34F8C1
:104F1000042B0C4821464F30921CFBF7ABFA094892
:104F20003C214A30FBF7CAFB07B00649BDE83040D8
:104F30003C224A310648FFF775BC00008A4D00202C
:104F400028010020784C0020A0010020434C3100B3
:104F5000C40700202F4A91ED000A90ED001AD2ED0F
:104F6000041AF0EE400A02F1300041EE210AC1EDD0
:104F7000000AD0ED030AD2ED041A92ED011AD0ED29
:104F8000012A90ED022A00EEA11A31EE621A72EEA9
:104F9000E02A31EE423A90ED001A32EE602A03EE3A
:104FA000211A80ED001AC0ED012A80ED022AD2ED0F
:104FB000022A42EEA10AC0ED030AD2ED030A71EE05
:104FC000201AC1EE210A82EE211AD1ED001A30EE2C
:104FD000610A40EE801AB7EE000A70EE600AC1ED79
:104FE000001AD0ED001A21EEA00A80ED000AD0EDE3
:104FF000011A61EEA00AC0ED010AD0ED021A40EEDE
:10500000411AC0ED021A90ED030A00EEC10A80EDCC
:10501000030A7047980000200F4810B50D49016041
:105020000321416000214FF410228160C0E9031286
:105030004FF400124261017641768176C1760177A4
:105040004177FCF7ACFE002803D0BDE81040FCF728
:1050500089BB10BD00640040180400200F4810B543
:105060000D4901600321416000214FF4102281604D
:10507000C0E903124FF40012426101764176817655
:10508000C17601774177FCF78AFE002803D0BDE89E
:105090001040FCF767BB10BD0068004040040020D2
:1050A000294808B5016841F480010160016801F4F4
:1050B00080010091016841F4001101600068002244
:1050C00000F40010009005210C20FDF7D9FD0C2004
:1050D000FDF7C8FD002205210E20FDF7D1FD0E20B1
:1050E000FDF7C0FD002205213820FDF7C9FD38205D
:1050F000FDF7B8FD002205213920FDF7C1FD39205B
:10510000FDF7B0FD002205213A20FDF7B9FD3A2058
:10511000FDF7A8FD002205213B20FDF7B1FD3B2056
:10512000FDF7A0FD002205214520FDF7A9FD452042
:10513000FDF798FD002205214620FDF7A1FDBDE801
:1051400008404620FDF78EBD3038024010B5AAB0A9
:105150001C2221496846FBF7D2F90021684602F07B
:10516000CFFB1E4C1C491C2260611C3107A8FBF7B9
:10517000C6F9002107A802F0C3FB174920601C22D2
:1051800038310EA8FBF7BBF900210EA802F0B8FBDE
:105190001149A0601C22543115A8FBF7B0F9002179
:1051A00015A802F0ADFB0C4960601C2270311CA8F0
:1051B000FBF7A5F900211CA802F0A2FB0649E0605C
:1051C0001C228C3123A8FBF79AF9002123A802F0B6
:1051D00097FB20612AB010BDA490000800000020B9
:1051E0002DE9F04786B014216846FBF7C2F95C4808
:1051F0004FF0000A016841F002010160016801F00E
:1052000002010591016841F040010160016801F06F
:1052100040010591016841F001010160016801F060
:1052200001010591016841F008010160016801F088
:1052300008010591016841F004010160016801F075
:1052400004010591016841F080010160016801F0ED
:1052500080010591016841F020010160016801F0C1
:1052600020010591016841F01001016000683D4E88
:1052700000F010000590012240213046FDF7B6FAFB
:10528000394F4FF4E055002229463846FDF7AEFA73
:10529000DFF8D880012210214046FDF7A7FADFF899
:1052A000D090012211464846FDF7A0FA0124402083
:1052B000CDE900040294694630460394FDF79EF957
:1052C000CDE90054CDE9024A69463846FDF796F922
:1052D00008204FF48815CDE9000569460294304650
:1052E000FDF78CF91020CDE900040226CDE9024635
:1052F00069464046FDF782F93020CDE90005694650
:1053000002941C48FDF77AF96002CDE90005694670
:1053100002941948FDF772F9CDE9024600946946F6
:1053200048460194FDF76AF9002205210920FDF79E
:10533000A7FC0920FDF796FC002205210A20FDF7B5
:105340009FFC0A20FDF78EFC002205211720FDF7A7
:1053500097FC1720FDF786FC06B0BDE8F08700003B
:105360003038024000180240001C02400000024099
:105370000004024000080240001002400D4810B531
:105380000B4901600C49416000214FF4804281606B
:10539000C0E9031241618161C1610162FDF732FA26
:1053A000002803D0BDE81040FCF7DCB910BD0000B8
:1053B000005C004068040020801A0600104810B508
:1053C0000E4901604FF48271416000210222816028
:1053D000C0E9031201224261520282611022C0E937
:1053E0000721416281620A21C162FDF7BFFF0028E7
:1053F00003D0BDE81040FCF7B5B910BD0030014046
:10540000BC04002010B588B01C216846FBF7B1F839
:10541000144813490024C0E9001441F28731C0E95F
:10542000024104618461FEF7EDFB08B1FCF79AF9D3
:105430000C48FEF782FE08B1FCF794F96020CDE934
:10544000000402940022694606480494FEF70FFE09
:1054500008B1FCF787F90348FEF7DEFD08B010BD80
:1054600000440140F406002010B586B0002418481E
:1054700000940194029403940494144905940160E7
:1054800044F29F11C0E9011442F20F71C0E9031404
:1054900044618461FEF7B6FB08B1FCF763F94FF491
:1054A0008050009069460A48FEF794FC08B1FCF76A
:1054B00059F9049404A906480594FEF75BFB0028FB
:1054C00001D0FCF74FF906B010BD0000000001400C
:1054D000D405002010B586B000241648009401942D
:1054E0000294039404944FF080410594016042F2C9
:1054F000D001C0E901146321C0E903148461FEF7FF
:1055000081FB08B1FCF72EF94FF4805000906946FA
:105510000848FEF75FFC08B1FCF724F9049404A9DD
:1055200004480594FEF726FB002801D0FCF71AF981
:1055300006B010BD1C06002010B586B00024174828
:105540000094019402940394049413490594016017
:1055500044F29F11C0E901146321C0E903144461BE
:105560008461FEF74FFB08B1FCF7FCF84FF4805064
:10557000009069460948FEF72DFC08B1FCF7F2F8E7
:10558000049404A905480594FEF7F4FA002801D014
:10559000FCF7E8F806B010BD0004014064060020E6
:1055A0001FB5002110480091019102910D4A03910D
:1055B000026044F29F12C0E901216322C0E9032185
:1055C0008161FEF71FFB08B1FCF7CCF84FF4805067
:1055D000009069460448FEF7FDFB002801D0FCF767
:1055E000C1F81FBD00400140AC0600200C4810B5BA
:1055F0000A4901604FF4E1314160002181600C22D1
:10560000C160C0E904128161C161FEF76BFF00282F
:1056100003D0BDE81040FCF7A5B810BD0010014054
:105620003C0700200C4810B50A4901600B49416055
:10563000002181600C22C160C0E904128161C16156
:10564000FEF750FF002803D0BDE81040FCF78AB8F1
:1056500010BD00000048004080070020A086010027
:105660000C4810B50A4901604FF4E1314160002156
:1056700081600C22C160C0E904128161C161FEF742
:1056800031FF002803D0BDE81040FCF76BB810BD17
:1056900000140140C4070020F5EEC01AB0EE413AF4
:1056A000F0EE603AB0EE404AF1EE10FA00B5024674
:1056B00009D1B5EEC02AF1EE10FA04D1F5EEC02AF8
:1056C000F1EE10FA78D021EEA10A02EE020A02EE03
:1056D000A20A02F071F821EE805A62EE004A92EDC1
:1056E000011AD2ED030A22EE800AD2ED002A21EE41
:1056F000202AD2ED021A22EE811A5C4802EEE12A3B
:1057000001EEA01AF6EE001A52EEA21A40EEA01A0E
:1057100060EE020A64EEA12A45EE610A40EE412ADB
:1057200025EE010A90ED071A04EEC20AB5EEC01A82
:10573000F1EE10FA2CDD90ED071AD0ED081A21EEEB
:10574000222A9FED4B1A42EE011AC0ED081AD0ED45
:10575000071A21EEA02AD0ED091A42EE011AC0ED77
:10576000091AD0ED071A21EE802AD0ED0A1A42EE6E
:10577000011AC0ED0A1A90ED081A34EE014A90EDB4
:10578000091A73EE813A90ED0A1A33EE013A07E0F6
:105790009FED381A80ED081A80ED091A80ED0A1A7B
:1057A00090ED061A01EE224A90ED061A41EE203ADB
:1057B000D0ED060A00EE803A9FED2F0AD2ED021AD4
:1057C00024EE002A63EE802A23EE001A92EC020AED
:1057D00092ED033A60EEC23A41EEE23A43EE413ACC
:1057E00073EE804A60EE023AC2ED004A41EE813A21
:1057F00043EE623A33EEA04A60EE223A20EE010A0E
:1058000082ED014A40EEC13A00EEA20A43EE023AAE
:1058100001EEC20A73EEA13A70EE030A24EEA40A66
:10582000C2ED023AC2ED030A04EE040A03EEA30A33
:1058300000EEA00A01F0C0FFD2ED000A60EE800A7F
:10584000C2ED000AD2ED010A60EE800AC2ED010A43
:10585000D2ED020A60EE800AC2ED020AD2ED030A1E
:1058600020EE800A82ED030A00BD000098000020AF
:105870006F12833A000000006F12033AFEE7000047
:1058800070B5044600202DED028B02464FEA01055B
:1058900034F91010002934F9101000DC494209B223
:1058A000914200DD0A46401CC0B20428F0D3AA424F
:1058B00022DD104603F05BF941EC180B284603F09B
:1058C00056F953EC182B02F0CBFF02F0EFFE00EE7E
:1058D000100A002034F9101000EE901AF8EEE00AD9
:1058E00060EE800AFDEEE00A10EE901A24F8101027
:1058F000401CC0B20428EDD3BDEC028B70BDFEE7A6
:1059000010B50F4C00206080A080E080FBF790FF76
:105910000C48C07A032801D0012805D1FBF77AF999
:1059200094F90100012805D0022807D1BDE81040F4
:10593000FBF7AEBABDE81040FBF7A6B910BD0000FA
:10594000D8000020DC4900200148FDF791BC000090
:10595000BC04002010B5806B0021C187C186FDF713
:1059600083FC10BD10B5806B01684A6822F0030209
:105970004A60416D41F010014165012180F85110EC
:10598000FDF772FC10BD10B5806BFDF7FCFE10BD7D
:1059900010B5806BFEF7E9F810BD10B5806BFEF70F
:1059A000E6F810BD70B50546846BFCF725FF02468E
:1059B00028680068C00526D42068416821F02001CD
:1059C0004160A06818B96068B0F5827F16D0206881
:1059D000416821F0010141606421204600F076F821
:1059E00008B1202060650020E087012084F8510084
:1059F000606D40B12046FDF737FC70BD20684168FE
:105A000021F00301E7E72046FDF7BCFE70BD38B585
:105A10000546846BFCF7F0FE024628680068C00566
:105A200023D42068416821F020014160206841684A
:105A300021F0020141606421204600F075F818B1A0
:105A4000606D40F020006065A068002118B92068F2
:105A5000C26880680090E186012084F85100606D82
:105A600018B12046FDF700FC38BD2046FEF77CF853
:105A700038BD70B50546846BFCF7BEFE024628684B
:105A80000068C0051ED42068416821F020014160F3
:105A90006421204600F048F818B1606D40F0200005
:105AA00060652068416821F0030141600020E086C4
:105AB000E087012084F85100606D18B12046FDF7A1
:105AC000D3FB70BD2046FEF751F870BDF8B5044613
:105AD00040684FF48273984221D1A0684FF48065EA
