:020000040800F2
:10000000604F0020E9020008E7290008D124000819
:10001000E52900085B050008A13800080000000081
:10002000000000000000000000000000290200089D
:100030005106000800000000850200081D3300087A
:100040000303000803030008030300080303000878
:100050000303000803030008030300080303000868
:100060000303000803030008030300080303000858
:100070008D05000803030008990500080303000824
:1000800003030008030300080303000869050008D0
:100090005D050008030300080303000803030008CC
:1000A000D9330008F53300080303000803030008F0
:1000B0006134000803030008030300080303000879
:1000C00003030008030300080303000803030008F8
:1000D00003030008D537000803030008E1370008D0
:1000E00003030008030300080303000803030008D8
:1000F0006D3400080303000803030008030300082D
:1001000003030008030300080303000803030008B7
:1001100003030008030300080303000803030008A7
:1001200003030008A5050008B10500080303000843
:100130000303000803030008030300088105000807
:100140007505000803030008030300080303000803
:1001500003030008BD050008C9050008953800081C
:100160000303000803030008030300080303000857
:100170000303000803030008030300080000000055
:10018000030300080303000800F002F800F03CF845
:100190000AA090E8000C82448344AAF10107DA45E2
:1001A00001D100F031F8AFF2090EBAE80F0013F0F8
:1001B000010F18BFFB1A43F0010318473C5400001D
:1001C0005C540000103A24BF78C878C1FAD85207AE
:1001D00024BF30C830C144BF04680C6070470000C1
:1001E0000023002400250026103A28BF78C1FBD840
:1001F000520728BF30C148BF0B6070471FB505F0DC
:10020000DDF81FBD10B510BD00F074F91146FFF701
:10021000F5FF03F0E1FB00F092F903B4FFF7F2FF02
:1002200003BC00F093F900002C4B19680868B0E893
:10023000F04F80F30988BFF36F8F4FF0000080F319
:10024000118870470000000008480068006880F3CB
:1002500008884FF0000080F3148862B661B6BFF3DF
:100260004F8FBFF36F8F00DF00BF00BF08ED00E0CE
:10027000DFF80C00016841F470010160704700BFB5
:1002800088ED00E0EFF30980BFF36F8F134B1A681E
:100290001EF0100F08BF20ED108A20E9F04F10600B
:1002A00009B44FF0500080F31188BFF34F8FBFF3B4
:1002B0006F8F04F023F94FF0000080F3118809BC20
:1002C00019680868B0E8F04F1EF0100F08BFB0ECD6
:1002D000108A80F30988BFF36F8F7047BC0000203D
:1002E000EFF3058070470000094880470948004740
:1002F000FEE7FEE7FEE7FEE7FEE7FEE7FEE7FEE7D6
:10030000FEE7FEE704480549054A064B7047000032
:10031000C93300088901000860490020604F0020AF
:10032000604B0020604B002053EA020C00F0698013
:100330002DE9F04B4FF00006002B1FBFB3FA83F5F9
:1003400003FA05F424FA05F65E4012BF1643B2FA2A
:1003500082F502FA05F4C5F120051EBF22FA05FC5C
:1003600044EA0C04203556EA044C4FEA144418BF02
:10037000641C4FF000084FF00009904271EB030C31
:1003800039D3002919BFB1FA81F701FA07F6B0FA9B
:1003900080F700FA07F6C7F120071EBF20FA07FC16
:1003A00046EA0C062037B6FBF4FCA7EB0507103F26
:1003B00007F01F0BCBF120060CFA0BFB2CFA06F60C
:1003C00044BFB3460026202FA4BF5E464FF0000B6B
:1003D0005BEA060C08BF4FF0010B19EB0B09ABFBF6
:1003E000027C48EB0608C01B06FB02CC0BFB03CCCF
:1003F00071EB0C01C1E70B46024641464846BDE899
:10040000F08B13B54FF000004FF00001AFF3008008
:10041000BDE81C40704710B5203AC0F00B80B1E831
:100420001850203AA0E81850B1E81850A0E8185029
:10043000BFF4F5AF5FEA027C24BFB1E81850A0E832
:10044000185044BF18C918C0BDE810405FEA827C4C
:1004500024BF51F8043B40F8043B08BF7047D20763
:1004600028BF31F8023B48BF11F8012B28BF20F804
:10047000023B48BF00F8012B70474FF0000200B567
:10048000134694469646203922BFA0E80C50A0E8B7
:100490000C50B1F12001BFF4F7AF090728BFA0E865
:1004A0000C5048BF0CC05DF804EB890028BF40F831
:1004B000042B08BF704748BF20F8022B11F0804F73
:1004C00018BF00F8012B704770477047704710B590
:1004D00000F008F8006810BD10B5044600F002F8FE
:1004E000046010BD00487047FC4800200048704779
:1004F000FC4800207546FFF7F9FFAE460500694647
:10050000534620F00700854618B020B5FFF7FAFEE5
:10051000BDE820404FF000064FF000074FF0000804
:100520004FF0000B21F00701AC46ACE8C009ACE885
:10053000C009ACE8C009ACE8C0098D467047044664
:10054000AFF300802046FFF768FE00000149182045
:10055000ABBEFEE7260002007047FEE7014800F050
:10056000ECB9000090070020014800F0E6B9000057
:1005700090070020014800F0E0B90000B807002013
:10058000014800F0DAB90000B8070020014800F087
:1005900027BD00008C0A0020014800F021BD0000AA
:1005A000EC0A0020014800F01BBD00004C0B0020AD
:1005B000014800F015BD0000CC090020014800F002
:1005C0000FBD0000AC0B0020014800F009BD000089
:1005D0002C0A002001681823CAB2103AB2FBF3F2C9
:1005E000054B6FF30901032A9B5CC36500D9091D04
:1005F00081650846704700003C55000810B501466B
:1006000000208B698A6A4FF0C07453B1B3F5005F64
:1006100015D072B1012A0CD0022A0AD0032A09D1BE
:1006200004E01AB1012A06D0022A03D1C96AC9011D
:1006300000D5012010BDC96AA142FAD010BD002A20
:10064000F7D0012AF2D0022AF3D0032AF3D010BD4A
:10065000704772B6FEE790F82020012A07D0022AE0
:1006600005D0416A41F48021416201207047006851
:1006700042690A43426100207047F0B590F820506B
:100680000468A468012D05D0022D03D0416A41F40D
:10069000802153E014F0406F01D1E5004BD5C4F345
:1006A0000164022C03D9416A41F4000146E00125AE
:1006B000A5401D608D684FF4C0739DB1CE68354371
:1006C0004E6845EAC605066803EB0417F5514FF47A
:1006D000C275076805EB04150E697E51097D012975
:1006E00005D009E00E88CD6845EA4655EBE701687C
:1006F0004E5946F480764E511179D2F805504FF498
:10070000C67641EA0525016806EB04168D5111787D
:10071000D2F801204FF4C47541EA0221026805EBCA
:1007200004155151006803EB0411425842F00102D4
:1007300042500020F0BD416A41F4001141620120A5
:10074000F0BD000010B590F82020012A07D0022A41
:1007500005D0416A41F480214162012010BD3B482F
:10076000D0F8002242F00102C0F80022D0F80022A6
:1007700022F47C52C0F80022D0F800224B6A42EAF0
:100780000322C0F800220A7D02F01F0301229A40D2
:10079000D0F81C329343C0F81C32CB69B3B9D0F8FF
:1007A0000C329343C0F80C328C894B6864F31F43BE
:1007B0004C6900EBC404C4F840320C890B6864F344
:1007C0001F434C6900EBC404C4F84432CB69012BCD
:1007D00016D1D0F80C321343C0F80C320C884B6899
:1007E00064F31F434C6900EBC404C4F840320C8925
:1007F000CB6864F31F434C6900EBC404C4F8443273
:100800008B69002BD0F804320ED01343C0F80432A9
:100810000B69002BD0F8143208D01343C0F81432FF
:10082000096A012904D008E09343EFE79343F5E711
:10083000D0F81C121143C0F81C12D0F8001221F09D
:100840000101C0F80012002010BD0000006400404B
:10085000704730B590F82040012C05D0022C03D011
:10086000416A41F480215DE00468002955D0246983
:10087000A40754D04FF4D874056804EB01142D5923
:1008800015F00405956005682D594ED0ED085560AA
:1008900005682C5904F00204D4604FF4DA7405683A
:1008A00004EB01142D5905F00F05156105682D594C
:1008B000C5F30725956105682C59240C54614FF444
:1008C000DC72046802EB0112A4581C700468A4587E
:1008D000240A5C700468A458240C9C700468A25814
:1008E000120EDA704FF4DE72046802EB0112A458A3
:1008F0001C710468A458240A5C710468A458240C70
:100900009C710468A258120EDA71006881B1016905
:1009100041F020010161002030BDE468A8E7416A90
:1009200041F400114162012030BD6D0D1560AFE74B
:10093000C16841F02001C160EDE72DE9F05F054697
:10094000006800244669D0F804908768D0F80CB09D
:10095000D0F810A0D0F81880F10748D0F90714D0CB
:1009600001218160B80703D5284600F0D8FA0CE0D1
:10097000780702D54FF4006407E0380702D54FF43A
:10098000805402E0284600F0C9FAF80516D5296817
:100990004FF480708860B80503D5284600F0C1FA8E
:1009A0000CE0780502D544F4005407E0380502D580
:1009B00044F4804402E0284600F0B2FAF80316D569
:1009C00029684FF480308860B80303D5284600F0CA
:1009D000AAFA0CE0780302D544F4004407E0380397
:1009E00002D544F4803402E0284600F09BFA300738
:1009F00007D55FEACB6004D52968102044F4007461
:100A0000C86070074FF0080707D55FEA0B7004D580
:100A10002868C760284600F0A9F9B00706D52868FD
:100A2000C068800702D0284600F0A2F9700607D5FA
:100A30005FEACA6004D52968102044F48064086124
:100A4000B00607D55FEA0A7004D528680761284612
:100A500000F034FAF00606D528680069800702D055
:100A6000284600F02CFAB00308D55FEAC96005D526
:100A7000296810204860284600F022FAF00307D5C4
:100A80005FEA097004D528684760284600F04CFAF0
:100A9000300446D55FEA497040D5F00504D55FEAD9
:100AA000C87001D044F00104B00504D55FEA887035
:100AB00001D544F00204700504D55FEA487001D501
:100AC00044F00404300529D518F0700F26D008F042
:100AD0007000402815D006DC102809D020280AD044
:100AE000302816D10AE050280ED0602811D10EE02F
:100AF00044F008040DE044F010040AE044F020043F
:100B000007E044F0400404E044F0800401E044F4D1
:100B100080742868816921F070018161296804204E
:100B20004860002C05D0686A204368622846FFF7B9
:100B30008FFEBDE8F09F70B5040003D094F820004C
:100B400010B104E0012070BD204600F081F820685B
:100B5000016841F00101016000F082FC05460526B4
:100B600004E000F07DFC401B0A2811D82068406892
:100B7000C007F6D02068016821F00201016000F092
:100B80006FFC05460BE000F06BFC401B0A2806D901
:100B9000606A40F40030606284F82060D2E7206828
:100BA00040688007EFD4207E0128206801683DD08E
:100BB00021F080010160607E01282068016838D042
:100BC00021F040010160A07E01282068016833D037
:100BD00021F020010160E07E0128206801682ED00C
:100BE00041F010010160207F01282068016829D0B0
:100BF00021F008010160607F01282068016824D08D
:100C000021F004010160D4E902010843D4E904128F
:100C1000114308436168491E08432168C8610020E8
:100C20006062012084F82000002070BD41F0800146
:100C3000C0E741F04001C5E741F02001CAE721F0DB
:100C40001001CFE741F00801D4E741F00401D9E7F2
:100C5000F0B587B0044614216846FFF70EFC3E4B02
:100C60003E48DFF8F0E01968D4F800C03B4A03259D
:100C70000226092710300024491CF4452AD11960A6
:100C8000012907D1016841F000710160006800F09E
:100C900000700590106840F0080010601068CDE901
:100CA000005600F00800CDE9047069462C48CDE9F3
:100CB000024500F0CFFA00220521132000F042FC8B
:100CC000132000F031FC00220521142000F03AFC32
:100CD00014203AE0DFF88CE0F44538D1D0F800C0B9
:100CE0004CF0806CC0F800C0D0F800C001290CF0B6
:100CF000806CCDF814C0196007D1016841F0007113
:100D00000160006800F000700590106840F002007B
:100D10001060106802AB00F0020005906020CDE981
:100D2000000683E8B00069460F4800F093FA0022FD
:100D300005213F2000F006FC3F2000F0F5FB0022DB
:100D40000521402000F0FEFB402000F0EDFB07B045
:100D5000F0BD000000640040A800002030380240D0
:100D6000000C024000680040000402407047000090
:100D70002DE9F0410646006847490027DFF81C814D
:100D8000474D8AB0884256D1464B6A4600213046CC
:100D9000FFF75FFD0098434C332831D1424801886A
:100DA000491C89B20180642905D107804FF4806114
:100DB000404600F047FB2088C0F30A013B48018011
:100DC0006178CA08A17842EA4112C2F30A0242805D
:100DD000E278890941EA8202217942EA8122C2F35A
:100DE0000A0282804A08617942EAC112C2F30A0209
:100DF000C280C1F3011282728909C172E1888181C6
:100E00000098A0F20120072815D210F0FF012088D9
:100E100001EB410342BA264800EB830082806288DE
:100E200052BAC280A28852BA0281A279827202D1D9
:100E30002888401C28801F49306888421FD107AB92
:100E40006A4600213046FFF704FD0098A0F2012019
:100E5000072814D2C0B200EB40021748BDF81C109E
:100E600000EB820049BA8180BDF81E1049BAC180EA
:100E7000BDF8201049BA01819DF82210817228889E
:100E8000B0F5FA7F05D12F804FF48051404600F035
:100E9000D9FA0AB0BDE8F08100640040001C0240AD
:100EA000120000206A00002014000020240100200D
:100EB000BC0100200068004010020020704770470D
:100EC0007047000070B5044690F82000012804D057
:100ED000606A40F40020606218E0022084F820007C
:100EE0002068016821F00101016000F0B9FA0546AF
:100EF0000EE000BF00F0B4FA401B0A2808D9606A6F
:100F000040F400306062052084F82000012070BDAC
:100F100020684068C007EDD1606270BD70477047BF
:100F2000704770477047704770472DE9F04104469D
:100F3000876D00F095FA064694F8350000250228E2
:100F400006D08020606584F834500120BDE8F0812F
:100F50002068016821F0160101602068416921F0D4
:100F600080014161206C08B9A06C20B12068016843
:100F700021F0080101602068016821F00101016091
:100F80000CE000F06DFA801B052807D92020606571
:100F9000032084F8350084F83450D7E720680068CF
:100FA000C007EED194F85C103F208840B860012063
:100FB00084F8350084F834500020C7E790F83510E5
:100FC000022903D08021416501207047052180F866
:100FD00035100068016821F00101016000207047B0
:100FE0002DE9F84304464FF00009CDF8009063481E
:100FF0004FF41651A56D0068B0FBF1F72E6894F818
:101000005C10082000FA01F131420FD021680A6813
:1010100052070BD50A6822F004020A6094F85C10AB
:101020008840A860606D40F00100606594F85C1035
:101030004FF0010808FA01F0304208D021684969F0
:10104000090604D5A860606D40F00200606594F860
:101050005C1004208840304208D021680968890764
:1010600004D5A860606D40F00400606594F85C10E1
:1010700010208840304218D021680968090714D52B
:10108000A86020680168490304D50068000308D5FA
:10109000A16C07E00168C90503D4016821F00801CB
:1010A0000160216C09B12046884794F85C1020202B
:1010B0008840304231D021680968C9062DD5A86022
:1010C00094F8350005282068016806D0490347D503
:1010D000006800031DD4616C1CE021F01601016062
:1010E0002068416921F080014161206C08B9A06C41
:1010F00020B12068016821F00801016094F85C10BB
:101100003F208840A86084F8358084F83490216DB1
:101110001FE0E16B09B120468847606D00282BD0A5
:10112000606DC00714D0052084F835002068016880
:1011300021F0010101600098401C0090B84203D8E2
:1011400020680068C007F6D184F8358084F83490B0
:10115000E16C002910D001B02046BDE8F0430847FB
:101160000168C905D5D4016821F01001016084F837
:10117000358084F83490CCE7BDE8F883B8000020CF
:101180002DE9F041044600F06BF906465CB10220FF
:1011900084F83500002584F834502068016821F077
:1011A000010101600DE00120BDE8F08100F058F977
:1011B000801B052805D920206065032084F83500B0
:1011C000F2E720680068C007F0D122681168204863
:1011D0000140D4E901031843D4E9033633431843EB
:1011E00063691843A3691843E3691843236A1843E2
:1011F0000843616A042903D1D4E90B131943084356
:10120000106020684069666A20F0070130460E438E
:10121000012704280CD1A06A0643E06A40B12046A9
:10122000FFF7ECF920B14020606584F83570BAE72B
:10123000206846612046FFF7CDF994F85C203F21F5
:1012400091408160656584F835700020ACE700004E
:101250003F8010F02DE9F84FDFF8BCA100220125F6
:1012600003264FF00F090AF1040BAAF1040E00BF88
:101270000B6805FA02F42340A34270D10F7907F0FE
:101280000307012F01D0022F16D187684FEA4208C9
:1012900006FA08FC27EA0C07D1F80CC00CFA08FC87
:1012A0004CEA070CC0F808C04768A7430C79C4F3A0
:1012B000001494403C4344600C79E443A4070AD0F2
:1012C000C4684FEA420C06FA0CF7BC438F6807FA71
:1012D0000CF72743C7600C7904F00304022C12D1E9
:1012E000D40800EB840CDCF820405707FF0E09FA05
:1012F00007F824EA0804D1F8108008FA07F848EA49
:101300000408CCF8208004684FEA420C06FA0CF777
:10131000BC430F7907F0030707FA0CF72743076070
:101320004C6814F4403F70D03C4C276847F4804729
:101330002760246822F0030704F480440094384CAA
:1013400007EB040CDCF8084897074FEA177809FA0E
:1013500008F7BC43334FB84202D1002724E054E0E1
:10136000314FB84201D101271EE0304FB84201D1C0
:10137000022719E02E4FB84201D1032714E02D4F68
:10138000B84201D104270FE02B4FB84201D1052705
:101390000AE02A4FB84201D1062705E0284FB8429B
:1013A00001D1072700E0082707FA08F72743CCF800
:1013B0000878DAF800405746D1F804C09C435FEA49
:1013C000CC2C00D51C433C60DBF800405F46D1F8D4
:1013D00004C09C435FEA8C2C00D51C433C60DEF8C3
:1013E00000407746D1F804C09C435FEA8C3C00D5AE
:1013F0001C433C60084F083F3C68D1F804C09C4344
:101400005FEACC3C00D51C433C60521C102AFFF420
:101410002FAFBDE8F88F0000083C0140443802407F
:101420000030014000000240000402400008024079
:10143000000C02400010024000140240001802405C
:10144000001C0240426921EA02030A4043EA0241C9
:10145000816170470AB1816170470904FBE70000B0
:101460000148806870470000AC0000200248816895
:101470000278114481607047AC0000200B4810B521
:10148000016841F400710160016841F4806101600C
:10149000016841F480710160032000F073F80F20AF
:1014A00000F006F800F024F8002010BD003C0240D7
:1014B00070B50D4D04464FF47A712878B1FBF0F009
:1014C0000A490968B1FBF0F000F010FB48B9102C94
:1014D00007D200222146501E00F034F800206C6034
:1014E00070BD012070BD0000AC000020B8000020DD
:1014F0000C4882B0016841F480410160006800F44A
:10150000804000900748001F016841F08051016051
:101510000068002200F0805000900F21901E02B061
:1015200000F010B844380240002809DB00F01F0228
:10153000012191404009800000F1E020C0F8001135
:1015400070470000F0B40E4B1B680C46C3F3022337
:10155000C3F10705042D00D90425191D072901D25F
:10156000002300E0DB1E012606FA05F1491E21409A
:1015700099409E40761E16403143F0BC02F091B96E
:101580000CED00E0064900F0070208684FF6FF0383
:10159000184040EA0220034A1043086070470000E8
:1015A0000CED00E00000FA052DE9F0470E460500BD
:1015B00065D0DFF81481D8F80000F7B200F007001A
:1015C000B04207D288F80070D8F8000000F0070099
:1015D000B04254D128683D4C810712D5400703D54D
:1015E000206840F4E05020602878000703D5206888
:1015F00040F4604020602068A96820F0F0000843B3
:1016000020602878C0072DD0304968680839012843
:1016100012D0022813D0032811D0096889070029A5
:101620002DDA216821F0030101432160FFF718FF43
:10163000814641F2883A0EE009688903EFE70968BC
:101640008901ECE7FFF70CFFA0EB0901514502D936
:101650000320BDE8F0872068696800F00C00B0EB5B
:10166000810FEFD1D8F80010404601F00701B142D8
:1016700007D90770006800F00700B04201D00120D0
:10168000E7E72878400705D52068E96820F4E050AE
:10169000084320602878000706D52068296920F4CF
:1016A000604040EAC100206000F038F82168084A34
:1016B000C1F30311515CC840064908600648006840
:1016C000FFF7F6FE0020C4E7003C02400838024065
:1016D00044550008B8000020B00000200448054927
:1016E00000680968044AC1F38221515CC840704710
:1016F000B800002008380240545500080448054945
:1017000000680968044AC1F34231515CC84070471F
:10171000B80000200838024054550008154810B59C
:10172000006810F00C02144813D01449042A0FD09A
:10173000082A0ED10F4C241F2268236802F03F02B2
:101740005B0207D52068C0F38810A0FB010106E00A
:10175000084610BD2168C1F38811A1FB00010023D8
:10176000FEF7E2FD2168C1F30141491C4900B0FBCD
:10177000F1F010BD083802400024F400001BB7004F
:101780002DE9F84F04006ED02078DFF84C93C007A5
:10179000A9F104054AD009F104000168C1F38101EF
:1017A000012908D00068C0F3810002280AD1D9F8C5
:1017B0000000400206D52868800337D560680028FD
:1017C000E1D033E06068B0F5803F10D0B0F5A02FD5
:1017D000286810D020F480302860286820F4802009
:1017E00028606068A8B1FFF73BFE06460DE0286858
:1017F00040F48030F4E740F480202860F7E700BF31
:10180000FFF72EFE801B642873D828688003F7D565
:101810000CE0FFF725FE064605E000BFFFF720FEBF
:10182000801B6428F0D828688003F7D42078DFF87C
:10183000AC8280074FF0000A3ED5A748001D016822
:1018400011F00C0F08D00068C0F3810002280BD102
:10185000D9F80000400207D42868800716D5E06850
:10186000012800D112E033E1E068B8B10120C8F8E6
:101870000000FFF7F5FD064605E000BFFFF7F0FDAD
:10188000801B0228C0D828688007F7D528682169FE
:1018900020F0F80040EAC10028600DE0C8F800A080
:1018A000FFF7DEFD064604E0FFF7DAFD801B0228A5
:1018B0001FD828688007F7D42078000722D5864FE4
:1018C00087486169703771B101210160FFF7C8FD78
:1018D000064604E0FFF7C4FD801B022809D83868DB
:1018E0008007F7D50EE0C0F800A0FFF7B9FD064667
:1018F00005E082E0FFF7B4FD801B02287DD8386840
:101900008007F7D42078400768D5DFF8CCB10027EE
:101910000BF13C0BDBF80000C0000BD4DBF800102F
:1019200041F08051CBF80010DBF80000012700F0F7
:10193000805000906B4E3068C00510D4306840F481
:1019400080703060FFF78CFD009005E0FFF788FDA8
:101950000099401A022850D83068C005F6D55E4E6E
:10196000A0686C3601280FD00528306810D020F010
:1019700001003060306820F004003060A068B8B129
:10198000FFF76EFD00900FE0306840F00100F4E7D3
:1019900040F004003060F7E7FFF762FD0099411A5C
:1019A00041F28830814266D830688007F4D50EE075
:1019B000FFF756FD009007E0FFF752FD0099411A2E
:1019C00041F28830814256D830688007F4D42FB174
:1019D000DBF8001021F08051CBF80010A069C8B3EB
:1019E0003D49091D0968C1F3810102294AD0022835
:1019F000504607D0C8F8600000E03CE0FFF730FD3B
:101A000004463BE04746C8F86000FFF729FD06465C
:101A100005E000BFFFF724FD801B02282BD82868B3
:101A20008001F7D4D4E907010843A16A2E4A490886
:101A300002EB0141626A41EA8211084394F82C10DA
:101A400040EA0161C9F8001001203866FFF708FD7F
:101A5000044606E03EE000BFFFF702FD001B02283F
:101A600009D828688001F7D534E000BFFFF7F8FCFB
:101A7000001B022802D90320BDE8F88F28688001E6
:101A8000F4D427E00128F7D0D9F80000E26900F487
:101A9000800191421CD1226A00F03F01914217D18E
:101AA00047F6C071626A0140B1EB821F10D1A26A91
:101AB0004FF0FF3300F4403103EB5202B1EB024F21
:101AC00006D194F82C1000F07060B0EB016F01D0DB
:101AD0000120D1E70020CFE7043802400000474250
:101AE000800E4742007000400000FFFF10B5401E0E
:101AF000B0F1807F01D3012010BD4FF0E024606180
:101B00000F21601701F0CDFE0020A06107202061A9
:101B1000002010BD7047704770B590F83C20012A36
:101B200032D0012480F83C40022280F83D20036836
:101B30005A689D6822F070060A6832435A60134B57
:101B400002689A4214D0B2F1804F11D0104B9A42E1
:101B50000ED0104B9A420BD00F4B9A4208D00F4B2D
:101B60009A4205D00E4B9A4202D00E4B9A4204D1B3
:101B7000496825F080031943916080F83D400021B9
:101B800080F83C10084670BD022070BD0000014086
:101B90000004004000080040000C00400004014028
:101BA000004001400018004010B5040003D094F834
:101BB0003D0010B107E0012010BD002084F83C007A
:101BC000204600F01FF8022084F83D00211D206807
:101BD00001F052FC012084F8460084F83E0084F8AD
:101BE0003F0084F8400084F8410084F8420084F803
:101BF000430084F8440084F8450084F83D00002048
:101C000010BD000008B52C4A01682C48914216D13D
:101C1000016841F0010101600068002200F001004C
:101C2000009011461820FFF78DFC1820FFF77CFC70
:101C3000002211461920FFF785FC192036E0B1F18A
:101C4000804F11D01E4A91421FD1016841F002011C
:101C500001600068002200F00200009005212C20A5
:101C6000FFF770FC2C2021E01448001F016841F0B0
:101C7000010101600068002200F0010000900521D0
:101C80001C20FFF75FFC1C2010E00E4A914211D18E
:101C9000016841F4803101600068002200F4803066
:101CA000009005211820FFF74DFC1820BDE80840E2
:101CB000FFF73ABC08BD0000000001404438024074
:101CC00000040140004001400168CA6822F001029E
:101CD000CA6001680A6A41F211131A4207D10A6AFE
:101CE0009B101A4203D10A6822F001020A60012106
:101CF00080F83D100020704770B5044690F83C0015
:101D00000025012817D0012684F83C60022084F8C1
:101D10003D002068826822F0770222F47F428260D0
:101D20000868502838D00DDC20284FD005DC90B34F
:101D3000102811D14AE0022070BD302846D040283A
:101D40000AD13BE060282FD070280DD0B0F5805F1D
:101D500003D0B0F5005F12D0012584F83D6000206B
:101D600084F83C00284670BDCB68D1E90121206889
:101D700001F0E6FB2068816841F0770109E0CB685B
:101D8000D1E90121206801F0DBFB2068816841F482
:101D900080418160E1E719E0CA684968206801F084
:101DA000E1FB5021206806E0CA684968206801F01C
:101DB000EAFB6021206801F0CDFBCEE7CA684968E4
:101DC000206801F0CFFB40212068F4E7226801463B
:101DD0001046F0E7704770B50446006801694FF09F
:101DE0000005C943890715D4C168C943890711D4BF
:101DF000E91E016101202077206880698007204664
:101E000002D0FFF7E7FF04E000F098F8204600F06A
:101E100096F8257720680169C943490717D4C16836
:101E2000C943490713D46FF00401016102202077F0
:101E30002068806910F4407F204602D0FFF7CAFF77
:101E400004E000F07BF8204600F079F82577206860
:101E50000169C943090716D4C168C943090712D4E7
:101E60006FF008010161042020772068C0698007B5
:101E7000204602D0FFF7AEFF04E000F05FF82046F6
:101E800000F05DF8257720680169C943C90617D4B9
:101E9000C168C943C90613D46FF01001016108205D
:101EA00020772068C06910F4407F204602D0FFF7F9
:101EB00091FF04E000F042F8204600F040F825775A
:101EC00020680169C943C90708D1C168C943C90766
:101ED00004D1891E0161204600F032F820680169B2
:101EE000C943090609D4C168C943090605D46FF07E
:101EF000800101612046FFF70DFE20680169C9439A
:101F0000490609D4C168C943490605D46FF04001A8
:101F10000161204600F015F820680169C94389066F
:101F20000BD4C168C943890607D46FF02001016151
:101F30002046BDE87040FFF7EEBD70BD70477047AA
:101F40007047704770477047F8B5016804460868E5
:101F5000CA684B6910F00F0F4FF000055AD003F01C
:101F6000010602F49077374365D0C10705D0D1054B
:101F700003D5216C41F001012164410705D5D90742
:101F800003D0216C41F002012164810705D5D907F6
:101F900003D0216C41F004012164010707D502F050
:101FA0002001314303D0216C41F008012164216CF0
:101FB00000293BD0800604D5900602D5204601F0CA
:101FC00023FB20684069216CC0F3801001F00801F8
:101FD000014320462BD001F0F0FA2068406940060A
:101FE00021D52068143050E8001F21F0400140E85E
:101FF0000012002AF5D1A06BA8B16C490165A06B55
:10200000FEF7DCFF002811D0A06B016D01B0BDE828
:10201000F040084783060ED593060CD52046BDE850
:10202000F84001F0F1BA2046FFF78DFFF8BDFFF749
:102030008AFF2564F8BD266B2023012E79D1C606C0
:1020400077D5D60675D50868486800904869400677
:1020500040D5A16B086840680004000CEAD0A28D4E
:102060008242E7D9E085C869B0F5807F2DD020682D
:102070000C3050E8001F21F4807140E80012002A63
:10208000F5D12068143050E8001F21F0010140E82C
:102090000012002AF5D12068143050E8001F21F00A
:1020A000400140E80012002AF5D184F83E30256353
:1020B00020680C3050E8001F21F0100140E80012A9
:1020C000002AF5D1A06BFEF730FFA08DE18D401AFC
:1020D00081B229E0A08DE18D401A81B2E08D002807
:1020E000A8D00029A6D020680C3050E8002F22F498
:1020F000907240E80026002EF5D12068143050E898
:10210000002F22F0010240E80026002EF5D184F8CD
:102110003E30256320680C3050E8002F22F010027A
:1021200040E80023002BF5D12046FFF70BFFF8BD58
:10213000FFE705062BD5150629D594F83D00212883
:10214000F5D1A068B0F5805F01D12069B0B1206AF7
:10215000411C2162216800784860E08C401E000428
:10216000000CE084E3D12068C16821F08001C160E7
:102170002068C16841F04001C160D8E7206A00884A
:10218000C0F308004860206A801C2062E5E7400632
:10219000CDD55006CBD5CA68204622F04002CA6091
:1021A00084F83D3000F093F9C1E70000AB3500083A
:1021B00070B5040004D094F83D00002510B106E08D
:1021C000012070BD84F83C50204600F023F8242004
:1021D00084F83D002068C16821F40051C1602046A8
:1021E00001F072FA2068016921F4904101612068D0
:1021F000416921F02A0141612068C16841F4005120
:10220000C1602564202084F83D0084F83E00002051
:1022100070BD00002DE9F04F87B0044614216846D8
:10222000FEF72BF99E48DFF8748214380322D4F8A5
:1022300000C09B4B02210025071516044FF0070E26
:102240004FF480794FF0400AC4456CD1D3F800C0F8
:102250004CF0100CC3F800C01B6803F0100305938A
:10226000036843F002030360036803F0020305936D
:10227000036843F0010303600068029500F0010069
:1022800005908020CDE900010720CDE903208B4691
:10229000904669468348FEF7DDFF7810CDE9000BD4
:1022A00002950720CDE9038069467F48FEF7D2FFFB
:1022B000DFF8FCB17D495846CBF800104FF00068BC
:1022C000C0E901850915C0E90351CBF82060CBF8BE
:1022D0001450CBE90659CBF82450FEF751FF08B152
:1022E000FEF7B7F9724F7148C4F838B060377830EC
:1022F000CBF8384087E801050015C7E903507D6138
:10230000BD61C7E9075638467D62FEF739FF08B15F
:10231000FEF79FF96763002205212520BC63FFF7C4
:1023200011F9252055E0DFF88C81C44556D15C4B6E
:102330001B1FD3F800C04CF4802CC3F800C01B68EE
:1023400003F480230593036843F0040303600068EB
:1023500000F0040005904FF440608DE82300CDE9C3
:10236000032E69465448FEF775FF51485349C03063
:102370004FF000680160C0E90185C0E9035745617D
:10238000C0E90659C0E90865BB46FEF7F9FE08B189
:10239000FEF75FF946484A4FC030A0638463C7E93F
:1023A00002A5C7E904B5BD61C7E9075643487D6288
:1023B0003030C7E900083846FEF7E2FE08B1FEF704
:1023C00048F96763002205212720BC63FFF7BAF8AC
:1023D0002720FFF7A9F807B0BDE8F08FDFF8E48009
:1023E000C445F8D1D3F800C04CF0200CC3F800C0AD
:1023F0001B6803F020030593036843F04003036068
:10240000006800F0400005904FF484408DE8230000
:102410000820CDE9032069462B48FEF71BFFDFF8B3
:10242000A0B022490BF1600B18395846CBF80010C8
:102430008905C0E90115C0E90357CBF82060CBF846
:102440001450CBE90659B846CBF82450FEF798FE55
:1024500008B1FEF7FEF81A4F1448C4F838B0C03778
:102460006030CBF838403860C7E903587D61BD6102
:10247000C7E907564FF020607D62C7E9010A384678
:10248000FEF77EFE08B1FEF7E4F86763002205213F
:102490004720BC63FFF756F847209AE70010014039
:1024A0004438024000040240000002404064024000
:1024B000CC0900200048004000080240286002408B
:1024C000EC0A0020001401400018024070477047D9
:1024D000FEE700000F4810B50D490160032141607F
:1024E00000214FF410228160C0E903124FF4001262
:1024F0004261017641768176C17601774177FEF7B8
:102500001AFB002803D0BDE81040FEF7A2B810BDAA
:1025100000640040900700200F4810B50D4901608D
:102520000321416000214FF410228160C0E90312B1
:102530004FF400124261017641768176C1760177CF
:102540004177FEF7F8FA002803D0BDE81040FEF707
:1025500080B810BD00680040B8070020214808B5C9
:10256000016841F480010160016801F4800100917B
:10257000016841F4001101600068002200F40010BD
:10258000009005210C20FEF7DDFF0C20FEF7CCFFAC
:10259000002205210E20FEF7D5FF0E20FEF7C4FF16
:1025A000002205213920FEF7CDFF3920FEF7BCFFC0
:1025B000002205213A20FEF7C5FF3A20FEF7B4FFBE
:1025C000002205214520FEF7BDFF4520FEF7ACFFA8
:1025D000002205214620FEF7B5FFBDE80840462051
:1025E000FEF7A2BF3038024010B5DCB01C224749CC
:1025F0006846FDF710FF0021684601F02DFA444CB3
:1026000042491C2220601C3107A8FDF704FF00216D
:1026100007A801F021FA3D4960601C2238310EA85C
:10262000FDF7F9FE00210EA801F016FA3749A06067
:102630001C22543115A8FDF7EEFE002115A801F06B
:102640000BFA3249E0601C2270311CA8FDF7E3FE52
:1026500000211CA801F000FA2C4920611C228C31B9
:1026600023A8FDF7D8FE002123A801F0F5F927499A
:1026700060611C22A8312AA8FDF7CDFE00212AA8FE
:1026800001F0EAF92149A0611C22C43131A8FDF70B
:10269000C2FE002131A801F0DFF91C49E0611C22D3
:1026A000E03138A8FDF7B7FE002138A801F0D4F9D1
:1026B000164920621C22FC313FA8FDF7ACFE002128
:1026C0003FA801F0C9F960621C22124946A8FDF733
:1026D000A2FE002146A801F0BFF90E49A0621C220B
:1026E0001C314DA8FDF797FE00214DA801F0B4F96B
:1026F0000849E0621C22383154A8FDF78CFE002105
:1027000054A801F0A9F920635CB010BDD0530008B3
:1027100074000020E854000870B586B014216846A3
:10272000FDF7ABFE22480025016841F0020101607F
:10273000016801F002010591016841F0400101606A
:10274000016801F040010591016841F0010101605B
:10275000016801F001010591016841F00801016083
:10276000016801F008010591016841F00401016070
:10277000016801F004010591016841F080010160E8
:1027800000680C4E00F080004FF4E05405900022E9
:1027900021463046FEF75EFE0120CDE900400220D2
:1027A000CDE9020569463046FEF754FD06B070BD1E
:1027B00030380240001C024010B586B00024174893
:1027C00000940194029403940494134905940160C5
:1027D00044F29F11C0E901146321C0E9031444616C
:1027E0008461FFF7E1F908B1FDF733FF4FF4805042
:1027F000009069460948FFF77FFA08B1FDF729FF05
:10280000049404A905480594FFF786F9002801D02F
:10281000FDF71FFF06B010BD00000140E0070020DB
:1028200010B586B0002416480094019402940394D5
:1028300004944FF080410594016042F2D001C0E958
:1028400001146321C0E903148461FFF7ADF908B1F5
:10285000FDF7FFFE4FF48050009069460848FFF7EF
:102860004BFA08B1FDF7F5FE049404A90448059459
:10287000FFF752F9002801D0FDF7EBFE06B010BDBE
:102880002808002010B586B0002417480094019451
:1028900002940394049413490594016044F29F1137
:1028A000C0E901146321C0E9031444618461FFF7A6
:1028B0007BF908B1FDF7CDFE4FF4805000906946DA
:1028C0000948FFF719FA08B1FDF7C3FE049404A9FB
:1028D00005480594FFF720F9002801D0FDF7B9FE5F
:1028E00006B010BD00040140700800201FB5002193
:1028F00010480091019102910D4A0391026044F247
:102900009F12C0E901216322C0E903218161FFF721
:102910004BF908B1FDF79DFE4FF4805000906946D9
:102920000448FFF7E9F9002801D0FDF792FE1FBD2A
:1029300000400140B80800200C4810B50A49016069
:102940004FF4E1314160002181600C22C160C0E997
:1029500004128161C161FFF72BFC002803D0BDE8A0
:102960001040FDF776BE10BD0010014000090020A8
:102970000C4810B50A4901600B4941600021816093
:102980000C22C160C0E904128161C161FFF710FC33
:10299000002803D0BDE81040FDF75BBE10BD00006D
:1029A0000048004044090020A08601000C4810B5F2
:1029B0000A4901604FF4E1314160002181600C223D
:1029C000C160C0E904128161C161FFF7F1FB002819
:1029D00003D0BDE81040FDF73CBE10BD001401401F
:1029E00088090020FEE7FEE730B5144B1C686569D6
:1029F00045F0400565611B68DC6844F01004DC604C
:102A00000F4B1C68256825F0010525601C682568AA
:102A1000ED07F7D11D680B4CAC601C68E0601868CE
:102A20000161186842601868016841F48021016002
:102A30001868016841F00101016030BD44090020BF
:102A40008C0A0020044800400122D1020348FEF70E
:102A500001FD012000F0F4FFFBE70000001C024034
:102A600001F0A4FA0A4900200A4C4880C881488332
:102A7000094EC8844FF49677012500BFB4F90600CB
:102A8000B84200DD3570012000F0DAFFF6E7000003
:102A9000BC01002024010020020000202DED0E8B3F
:102AA00082B000249FEDFB8AFB4E00BF04EB840044
:102AB000F0EE481A00EBC40006EB8000B0EE612A8D
:102AC000B2EE041AF6EE000AB3EE0E0A01F041F877
:102AD000641CE4B2042CE9D3DFF8C0B39FEDF0BB73
:102AE000DFF8C4A39FEDF1CBF24D9FEDF3AB9FED6B
:102AF000F48BDFF8D4834FF00009002404EB440189
:102B000008EB8107B7F9060000EE100A05EB840018
:102B1000F8EEC00A90ED000A04EB840000EBC4005C
:102B200006EB800000F0C2FFBDEEC00A641CE4B2F8
:102B300010EE100A042C7880E0D3E44800780128D5
:102B400004D19BF80B005F46032817D0A8F8029029
:102B5000A8F80E90A8F81A90A8F82690B8F92610B0
:102B60000091B8F91A30B8F90E20B8F90210002017
:102B700001F06AFB012000F063FFBEE7B7F9040033
:102B8000A0F2CE3064283AD8B7F90600A0F2CE30D1
:102B9000642834D8B7F9080040F2324188422EDC6C
:102BA00040F2CE3188422ADB5FF0000404EB44019E
:102BB00008EB8107B7F9060000F53471B1F5B46F81
:102BC00017D99FEDC30A00EE900A05EB840104EBD0
:102BD000840000EBC40081ED000AF8EEE00A06EB89
:102BE000800000F063FFBDEEC00A10EE100A78808E
:102BF00001E0A7F80290641C042CD7DBAEE7B7F91C
:102C0000080040F2324188420BDDA0F5806040436D
:102C100002F009F941EC100B00F053FE53EC1B2BB2
:102C200010E040F2CE31884213DAA0F580604043D4
:102C300002F0F9F841EC100B00F043FE9FEDA51BEC
:102C400053EC112B51EC100B01F02AFFCAE90001E3
:102C500001E08AED00CB9FEDA1DB9AED000B53EC78
:102C60001D2B51EC100B02F0F5F841EC100B8AED26
:102C7000000B02F0A9F804B2B7F90610B7F9040086
:102C8000A1F580614943A0F5806000FB001002F0CF
:102C9000CAF841EC100B00F014FE9248B0EE409AD6
:102CA000F0EE609A80ED000BB7F90600A0F58060A9
:102CB00002F0B9F853EC192B01F0F2FE8A4AC2E98E
:102CC0000001B7F90400A0F5806002F0ACF853EC05
:102CD000192B01F0E5FE854F53EC1B2BC7E90001D2
:102CE00051EC190B01F0DCFE53EC1D2B02F0B2F895
:102CF0007F4AC2E900019AED000B53EC1C2B51EC0A
:102D0000100B02F025F8784897ED00EB90ED00DB12
:102D100053EC1E2B51EC1D0B5ED102F065FA0746F9
:102D200041EC190B7248019153EC1A2B90ED000BFA
:102D300051EC100B02F08EF8044653EC192B009165
:102D400002F088F853EC182B02F084F801F0C2FD71
:102D5000E860019941EC117B009953EC112B41EC97
:102D6000104B51EC100B02F075F89FED629B53EC89
:102D7000192B02F06FF801F0ADFD686053EC1E2BCB
:102D800051EC1D0B01F0D8FD41EC110B01910099A4
:102D9000074641EC104B53EC112B51EC100B02F099
:102DA00059F853EC182B02F055F801F093FD286008
:102DB000019941EC107B009953EC102B41EC114B25
:102DC00051EC110B02F046F853EC192B02F042F8CB
:102DD00001F080FDA860C1E602F006FA41EC190B93
:102DE000434853EC1A2B90ED000B51EC100B02F002
:102DF00031F8CDE9000153EC192B02F02BF853EC1C
:102E0000182B02F027F801F0DFFF07B23B4853EC24
:102E10001E2B078051EC1D0B01F08EFD41EC100BB9
:102E2000DDE9000153EC102B02F014F853EC182BE1
:102E300002F010F801F0C8FF01B231480180381BE0
:102E400000EBD070401000EE100A38194042B8EE86
:102E5000C00A00EBD070401085ED030A00EE100AA6
:102E6000081B00EBD070B8EEC00A401085ED010AD7
:102E700000EE100A08194042B8EEC00A00EBD0700C
:102E8000401085ED000A00EE100AB8EEC00A85ED8C
:102E9000020A63E600008046D003002024010020DF
:102EA0000000000000A0844040000020000000005E
:102EB00000000000A001002039B4C876BE9FE63FA4
:102EC000000000000000E03F10020020020000208F
:102ED000000000000000000000A084C0000000000E
:102EE00000E3C1401800002020000020280000203E
:102EF00030000020000000000000E0BF380000208B
:102F00003A0000202DED028B82B0DFED481AB1EEC1
:102F1000041AB0EE612ADFED460A4648B3EE040A11
:102F2000019000F016FE9FED440ADFF81081DFF8F3
:102F30001091444988ED000AB7EE000A89ED000AB5
:102F4000F0200880DFED401AB1EE041AF2EE040A18
:102F5000B0EE612A9FED3D8A36483430B0EE480A23
:102F6000834600F0F6FD3A4E3A4DDFF8ECA0DFED77
:102F70003B8A3B4C0027E87A032825D1B5F90000AD
:102F8000A0F26541B1F50C7F02D286ED058A0BE017
:102F9000A0F5A270B0F5167F04D29FED320A86ED3F
:102FA000050A01E0C6ED058AB4F9420000EE100AF8
:102FB0005846F8EEC00A96ED050A00F077FDBDEE22
:102FC000C00A10EE100AE087E87A01281ED08AF8BD
:102FD0000070B4F9360000EE100AF8EEC00AB0EE48
:102FE000680A019800F062FDBDEEC00A10EE100AFA
:102FF00001B261860097B4F94A30B4F93E2001204D
:1030000001F0F4F8012000F01BFDB4E701218AF87B
:103010000010D8ED000A99ED001AB4F9360080EEE0
:10302000810A00EE900AF8EEE00ADAE70000804636
:103030000AD7233C3403002000C055455C00002023
:1030400058000020600000200060EA460000704246
:103050008401002024010020540000200000000012
:10306000BC010020000070C22DED028B82B0DFF8A1
:1030700000B200249FED7F8A7F4E00BF04EB8400E6
:10308000F0EE481A00EBC40006EB8000B0EE612AB7
:10309000B2EE041AF6EE000AB3EE0E0A00F059FD85
:1030A000641CE4B2042CE9D3DFED741AB1EE041A07
:1030B000F2EE040AB0EE612A9FED710A71480190A8
:1030C00000F047FDDFF8C081DFF8C091DFF8C0A154
:1030D000704D00BF98F80B1002297DD16E49097818
:1030E000012979D1B8F9080040F2324188420BDD5C
:1030F000A0F58060404301F096FE41EC100B00F01B
:10310000E0FB9FED661B0EE040F2CE31884213DA01
:10311000A0F58060404301F086FE41EC100B00F00A
:10312000D0FB9FED601B51EC100B53EC112B01F009
:10313000B7FCCAE9000103E09FED5C0B8AED000BD0
:103140009FED5C0B544653EC102B9AED000B51ECA9
:10315000100B01F07FFE41EC100B84ED000B01F031
:1031600033FE00B200EE100A5FF00004B8EEC00AB1
:1031700089ED030A00EE100AB8EEC00A89ED010AD3
:1031800000EE100AB8EEC00A89ED000A00EE100A3F
:10319000B8EEC00A89ED020A04EB440005EB800793
:1031A000B7F9060000EE100A09EB8400F8EEC00A39
:1031B00090ED000A04EB840000EBC40006EB8000F5
:1031C00000F074FCBDEEC00A641CE4B210EE100AFC
:1031D000042C7880E0D300E045E0B5F926000090AB
:1031E000B5F91A30B5F90E20B5F90210002001F03A
:1031F0002BF89FED320B53EC102B9AED000B51EC9A
:10320000100B01F04DFC9FED2F1B53EC112B01F027
:1032100047FC9FED2E1B53EC112B01F01BFE9FED85
:103220002D1B53EC112B01F015FE01F053FB00EEAA
:10323000100ABBF942000BF1320400EE900A01982B
:10324000F8EEE00A00F032FCBDEEC00A10EE100A03
:1032500002B2A28100200090B4F91830B4F9001035
:10326000012000F0C3FF012000F0EAFB32E700007C
:10327000BC01002000008046D00300200060EA4628
:10328000000070426803002024010020A0010020FB
:10329000400000201002002002000020000000007A
:1032A00000A084400000000000A084C000000000D6
:1032B000000000000000000000E3C140000000002A
:1032C000000033400000000000003E4000000020ED
:1032D000AE8F37C0000000C0CCCCDC3F012000F036
:1032E000AFFBFBE7012000F0ABFBFBE7012000F0A8
:1032F000A7FBFBE7012000F0A3FBFBE7012000F0A8
:103300009FFBFBE7012000F09BFBFBE7012000F0A7
:1033100097FBFBE7012000F093FBFBE710B5FEF7FE
:10332000A5F801F001FA012803D0BDE8104001F032
:103330008DB910BD30B593B030216846FDF79DF8CA
:1033400014210CA8FDF799F81D480025016841F0EB
:1033500080510160006800F08050119019480168A8
:1033600041F4804101600068022400F48040119023
:1033700001200090000401908001CDE90640062064
:103380000890A820CDE9090404200B906846FEF7B8
:10339000F7F908B172B6FEE70CA90F2081E83100F9
:1033A0004FF4A0500F904FF48050109005210CA8BE
:1033B000FEF7FAF8002801D072B6FEE713B030BD70
:1033C00040380240007000400248016841F470013A
:1033D0000160704788ED00E010B50448FEF7FBFC83
:1033E000BDE810400248FEF7F6BC0000E0070020F0
:1033F000B8080020144810B5828E14491448FAB158
:1034000001220A7090ED000AF7EE000A30EE200A61
:1034100080ED000A0F4AD2ED000AB4EE600AF1EE28
:1034200010FA08D100229FED0C0A0A7080ED000A04
:103430000A48FEF749FCBDE810400848FEF7CBBC3F
:1034400090ED000AE6E70000BC01002054000020D7
:10345000500000200C00002000000000E0070020C9
:103460000148FEF7B8BC0000280800200148FEF71C
:10347000B2BC000070080020F0B50268254C264D53
:10348000264E274F274B4FF0804CA04209D0604575
:1034900007D0A84205D0B04203D0B84201D098422C
:1034A00004D122F0700E4A6842EA0E02A0421BD0FC
:1034B000604519D0A84217D0B04215D0B84213D0F9
:1034C000984211D0184DA8420ED0184DA8420BD0EA
:1034D000174DA84208D0174DA84205D0164DA84256
:1034E00002D0164DA84203D122F44075CA682A437F
:1034F0004D6922F080022A4302608A68C2620A682B
:103500008262A04201D0984201D109690163012180
:103510004161F0BD0000014000040040000800408F
:10352000000C004000040140004001400044014004
:103530000048014000180040001C004000200040EE
:1035400010B5846842EA032224F47F440A432243EC
:10355000826010BD826822F070020A4342F00701C7
:103560008160704710B5036A046A24F001040462A4
:10357000846924F0F00444EA021423F00A020A43A6
:103580008461026210BD10B5036A23F01003036268
:103590008369046A23F4704343EA023224F0A003EF
:1035A00043EA01118261016210BD10B5806B0021F8
:1035B000C185C184FEF7C7FC10BD01680C3151E81C
:1035C000002F22F4907241E80023002BF5D101680E
:1035D000143151E8002F22F0010241E80023002BB2
:1035E000F5D1016B012909D101680C3151E8002F97
:1035F00022F0100241E80023002BF5D1202180F8B1
:103600003E1000210163704708B590F83E10222952
:1036100001D0022008BD82684FF480539A4201D144
:10362000016921B1816A9A421BD04AB10AE002685D
:10363000816A5268C2F308020A80816A891C08E024
:10364000026972B10268526802F07F020A70816AF0
:10365000491C8162C18D491E0904090CC18503D032
:1036600019E002685268F1E70168CA6822F0200296
:10367000CA600168CA6822F48072CA6001684A6937
:1036800022F001024A61202180F83E10016B0129DD
:1036900003D0FEF71BFF002008BD00210163016875
:1036A0000C3151E8002F22F0100241E80023002BDA
:1036B000F5D101680A68D20602D50A684968009106
:1036C000818DFEF73FFCE6E770B5044600680169AE
:1036D000E26821F44051114301612169A068E26967
:1036E00008436169114308432168CA6849F20C63C1
:1036F0009A430243CA6020684169A26921F440717B
:103700001143416131492068884202D030498842E2
:1037100002D1FDF7F3FF01E0FDF7E0FFE2690023CE
:10372000192164253226B2F5004F626828D0A0FB2B
:103730000101930F9200FCF7F7FD0146B0FBF5F095
:103740006FF01802504301EB800006EB0010B0FB55
:10375000F5F000F0F002B1FBF5F002EB0012B1FB66
:10376000F5F06FF01803584301EB800006EB0010F2
:10377000B0FBF5F000F00F0021681044886070BDC8
:10378000A0FB010192185B41FCF7CEFD0146B0FBA6
:10379000F5F00201B1FBF5F06FF01803584301EBAF
:1037A000800006EBC000B0FBF5F000F0F80002EB83
:1037B0004002B1FBF5F0584301EB800006EBC0007E
:1037C000B0FBF5F000F00700D6E700000010014064
:1037D000001401400148FEF7B7BB000000090020BB
:1037E000264818B400680168890604D50168406855
:1037F000009018BC704722490968C906F9D50168CC
:103800004068204A0090106801684FF024030C03C0
:103810001D49046824F00104046016D4106844684B
:10382000C4F12404A4B20C8043601068016841F420
:10383000002101601068016841F001010160122C53
:10384000D7D1124901F1160015E014686068C0F183
:10385000240080B2088063600D498B6A23F4002342
:103860008B6211680A6842F001020A601228C0D116
:10387000064901F13A0018BC00F0A0BB4409002041
:10388000004800408C0A0020000000202401002095
:10389000006002400148FEF757BB00008809002085
:1038A000FEE70907090E002804DB00F1E02080F89C
:1038B0000014704700F00F0000F1E02080F8141DA4
:1038C000704700B52DED048BB0EE409AF0EE609A93
:1038D00083B051EC190B01F0BBFB41EC180B18EE57
:1038E000100A18EE901A8DED008B002818BF0120E9
:1038F000084320F00040C0F17F6000F1E040C00FBD
:1039000014D019EE101A19EE900A8DED009B0029C3
:1039100018BF0121084320F00040C0F17F6000F192
:10392000E040C00F04BF0120FCF7D6FDB0EE480A0E
:1039300003B0F0EE680ABDEC048B00BD00B58BB09F
:1039400000210122CDE90612059100910191029119
:10395000039104910E21CDE908216946FCF7F2FE9E
:103960000448FDF7AFFA02210248FCF774FE0BB0E1
:1039700000BD00009007002000B58BB001230E228F
:1039800000210793CDE9052103910491CDE9083287
:103990000091019102916946FCF7D4FE0448FDF7BD
:1039A00091FA02210248FCF756FE0BB000BD000060
:1039B000B807002000B587B00246009100210291AF
:1039C000039108210491012369460248FCF755FE42
:1039D00007B000BD90070020FDF750FDFFF7AAFCDF
:1039E000FEF79AFEFEF7BAFDFEF774FDFEF794FDB2
:1039F000FEF7E2FEFEF714FFFEF744FFFEF776FF48
:103A0000FEF79AFFFEF7B4FFFEF7D0FF0748FFF777
:103A100095FF0748FFF7B0FF01221146901EFDF702
:103A200091FDFEF7E1FD00F012F8FEE7900700209F
:103A3000B807002001460020842900D0C81C704728
:103A400010B500B9012000F0F5FC002010BD10B544
:103A500000F016FD002010BD7FB50D4604464169FB
:103A6000B0F9080081B1A16971B1FFF7E3FFD4E9B2
:103A700005128DE80700D4E900102B46226900F0FA
:103A800028FE039004B070BDFFF7D4FF03A9CDE971
:103A90000001208A2B4682B2D4E9001000F0ECFD30
:103AA000012801D00020EDE70398EBE780ED050A3F
:103AB000C0ED060A90ED071A70EE600A80ED081A54
:103AC000C0ED070A90ED000A60EE201AC0ED091A59
:103AD00090ED0A0A90ED012A02EE200A70EEC10A6A
:103AE00080ED0A0A90ED021A20EE812A80ED0B2A61
:103AF000D0ED030AB1EE601AB4EEC10AF1EE10FA8D
:103B000002D8B0EE410A06E0B4EEE00AF1EE10FA97
:103B100001DBB0EE600A80ED0A0A31EE800A30EE79
:103B2000020A80ED0C0AD0ED040AB1EE601AB4EE80
:103B3000C10AF1EE10FA02D8B0EE410A06E0B4EE86
:103B4000E00AF1EE10FA01DBB0EE600A80ED0C0A3B
:103B5000704780EC050A70472DE9F041184C0F467C
:103B60000546E6682068001D00F09CFB38B9206817
:103B700090F82C1001208840216981432161681C44
:103B800007D137B12168BDE8F0410E48091D00F0AA
:103B9000CDBB20683544B5424560216805D2A06B95
:103BA000BDE8F041091D00F0A9BB606B091D00F0E4
:103BB000A5FBA06A854200D2A562BDE8F0810000A5
:103BC000BC000020E80C00202DE9F041054600F083
:103BD000B9FB2E4CA068401CA06020682C4F10B18F
:103BE000606940B32DE02560A068012829D1002636
:103BF00006EB860007EB800000F072FB761C072EB8
:103C0000F6D323488C3000F06BFB2148A03000F045
:103C100067FB1F48B43000F063FB1D48C83000F05C
:103C20005FFB1B48DC3000F05BFB19488C306063A5
:103C30001430A06305E02068E96AC06A884200D8B1
:103C40002560606A401C6062E96A01202269884040
:103C50001043206101EB810007EB8000291D00F07B
:103C600065FB00F08FFB606900280CD02068E96AD2
:103C7000C06A884207D207494FF080500860BFF3FE
:103C80004F8FBFF36F8FBDE8F0810000BC000020B4
:103C90000C0C002004ED00E010B5044690F8510033
:103CA00058B101280CD002280FD0502080F3118881
:103CB000BFF34F8FBFF36F8FFEE7206B00F076FBF3
:103CC0002046BDE8104000F071BB10BD10484FF415
:103CD0007051420706D0C01D0D4920F00700411A5F
:103CE000C1F570510B4A00230144C2E900030839B1
:103CF000183A21F0070111604B600B600B1AC0E904
:103D0000001393604FF00040536050617047000013
:103D1000FC0C002010010020144E154CA6F1C80721
:103D20004FF08058DFF84C9012E000BF00F00AFB23
:103D3000F068C568281D00F0B5FAA068401EA060B4
:103D40006068401E606000F01DFB2846FFF7A4FF7E
:103D500060680028EAD138680128F9D9C9F80080DC
:103D6000BFF34F8FBFF36F8FF2E70000D40C00203A
:103D7000BC00002004ED00E02DE9F0479A46DDE9A3
:103D8000098481466FF00303206B03EB8202104429
:103D9000089E20F00707780707D0502080F311888D
:103DA000BFF34F8FBFF36F8FFEE7002561B1002097
:103DB00023180A5C83F834200A5C12B1401C1028D6
:103DC000F6D384F8435001E084F83450072E00D332
:103DD0000626E662C4E91165201D00F08CFA04F1A4
:103DE000180000F088FA2461C6F107006462A0613F
:103DF000E56484F8505052464946384600F0C0F811
:103E00002060B8F1000F01D0C8F80040BDE8F0878D
:103E100030B5114900E011460A688242FBD34B6875
:103E20005C18844203D140681844486008464368DF
:103E30001C18944209D1084C183C2468A24209D0AD
:103E400052681A4442600A6812680260814200D0D7
:103E5000086030BD0460F9E7100100200648416B9E
:103E6000096829B1416BC968C968496881627047AE
:103E70004FF0FF31FAE70000BC000020084840681E
:103E8000401C4FF0500080F3118804D0BFF34F8FD7
:103E9000BFF36F8FFEE7BFF34F8FBFF36F8FFEE768
:103EA000180100202DE9F0410546002700F01EFB17
:103EB000324E306808B9FFF709FF706905424ED1EC
:103EC000C5B3083568070ED005F00700C0F108003B
:103ED0000544680707D0502080F31188BFF34F8F47
:103EE000BFF36F8FFEE72DB37068854237D8234844
:103EF000183001460C6801E020460C466168A94272
:103F000002D221680029F7D131688C4227D0076896
:103F10002168016060680837411B10290FD96019BA
:103F2000420708D0502080F31188BFF34F8FBFF3B2
:103F30006F8FFEE713E041606560FFF769FF61681E
:103F40007068401A7060B268904200D2B0607069C8
:103F500001430020C4E90001F068401CF06000F05B
:103F600057FC780707D0502080F31188BFF34F8F9C
:103F7000BFF36F8FFEE73846BDE8F081F800002000
:103F800010B5031F4FF080741C601B1F21F001014E
:103F90001960191F044B0B6014390A60091F6FF078
:103FA000020244380A6010BD7D3E00080249242206
:103FB000A1F12400FEF718BD5E0100202DE9F041BB
:103FC0000D4604007ED0002D7CD02078617840EA38
:103FD0000120C0F30A0028806078A178C00840EA78
:103FE0004110C0F30A006880A078E178800940EAB7
:103FF0008100217940EA8120C0F30A00A88020795D
:104000006179400840EAC110C0F30A00E880607995
:10401000C0F30110A87260798009E872A079E17993
:1040200040EA0120A881207A617A40EA0120E881F3
:10403000A07AE17A40EA01202882207BA874607B84
:10404000E874A07BE17B40EA0120A882207C617CAF
:10405000564E40EA012028810020215C3154401C4A
:104060000728FADD33215148FFF7A4FC0820215C22
:104070003218401C02F8081C0F28F8DD34214B4888
:10408000FFF798FC207C3070607C7070A07CB07072
:10409000032000273754401C0728FBDD3521434807
:1040A000FFF788FC42480188491C89B20180C82971
:1040B00005D107804FF480613E48FDF7C3F9B5F99B
:1040C000001000E070E040F214423B48914202DDF3
:1040D000018864310CE0B1F57B7F02DA0188643934
:1040E00006E0A1F57B71282903D83449B1F84010C6
:1040F0000180A07B10F0010C314880F800C0A07B4B
:1041000000F002072F480770A07B00F004062E483D
:104110000670A07B00F008012C480170A07B00F025
:1041200040052B480570A07B00F0800329480370F0
:10413000A07B294A00F010001070A07B274A00F0F5
:1041400020001070264840F2946205D0B0F900407B
:10415000944201DC241D04804FF4A2742FB1B0F905
:104160000070A74201DB3F1F07801E4829B1B0F94C
:104170000010914201DC091D01802EB1B0F9001040
:10418000A14201DB091F018017482DB1B0F90010D1
:10419000914201DC091D0180002B05D0B0F900100F
:1041A000A14201DB091F0180BDE8F081620000200F
:1041B00014000020001C024010000020BC01002060
:1041C00048000020490000204A0000204B00002049
:1041D0004C0000204D0000204E0000204F00002029
:1041E00004000020060000200800002010B588B060
:1041F0000A9C18B340F2FF10029000200490059032
:1042000008200690080A8DF800008DF80110100AA9
:104210008DF80200180A8DF804008DF80530200A88
:104220008DF806008DF803208DF8074001236A46BB
:1042300002A90448FCF721FA08B010BD4FF4007041
:10424000DAE700009007002010B588B00A9C18B388
:1042500040F2FF1002900020049005900820069084
:10426000080A8DF800008DF80110100A8DF8020080
:10427000180A8DF804008DF80530200A8DF8060024
:104280008DF803208DF8074001236A4602A90448EF
:10429000FCF7F3F908B010BD4FF40070DAE7000046
:1042A000B8070020D0E9013201699A60D0E9012302
:1042B0005A604A68824201D182684A6000220261E3
:1042C0000868401E0860086870470000034B0360E0
:1042D00003F1540008608020106070473C05002006
:1042E00000F108014FF0FF32C0E90112C160016125
:1042F00000210160704700210161704730B50B68F3
:104300005A1C02D000F1080202E0026904E02246D1
:10431000546825689D42FAD953684B6099608A6059
:10432000516008610168491C016030BD42684A6003
:1043300093688B6093685960916008610168491CBB
:1043400001607047502080F31188BFF34F8FBFF397
:104350006F8F0A494868401C486001280CD1084802
:10436000006810F0FF0F07D0502080F31188BFF3D2
:104370004F8FBFF36F8FFEE77047000018010020DA
:1043800004ED00E00849486828B1401E486001D1AA
:1043900080F311887047502080F31188BFF34F8F4E
:1043A000BFF36F8FFEE700001801002070B50028F2
:1043B0002AD0164DA0F1080460686969084207D147
:1043C000502080F31188BFF34F8FBFF36F8FFEE74C
:1043D00022683AB1502080F31188BFF34F8FBFF3AA
:1043E0006F8FFEE78843606000F080F8606869685E
:1043F000084468602046FFF70BFD2869401C2861CF
:10440000BDE8704000F004BA70BD0000F800002064
:104410004FF0E02000210161816105494FF47A727B
:104420000968B1FBF2F1491E416107210161704742
:10443000B800002010B5020014D00F48006B38B14E
:10444000502080F31188BFF34F8FBFF36F8FFEE7CB
:1044500000F04CF800211046FFF77EFB00F0D8F981
:10446000002807D105494FF080500860BFF34F8FF7
:10447000BFF36F8F10BD0000BC00002004ED00E012
:1044800010B586B00024039405AA04A903A80494D7
:10449000FFF71CFFDDE903010094CDE901100023C3
:1044A0000EA11048059A00F014F90F490028C862BF
:1044B00011D0502080F31188BFF34F8FBFF36F8F5F
:1044C0004FF0FF30886201204861CC6006B0BDE843
:1044D000104000F041B806B010BD000049444C4502
:1044E00000000000193D0008BC0000200248016BDC
:1044F000491C016370470000BC0000201448016B98
:1045000011B10121C16170470021C1610169B1FA96
:1045100081F1C1F11F0101EB81020E4951F82230F6
:104520006BB101EB820101F108034A6852684A60ED
:104530009A4201D152684A60D168016070475020A8
:1045400080F31188BFF34F8FBFF36F8FFEE700003A
:10455000BC0000200C0C00201CB537480168374A0D
:10456000914207D1502080F31188BFF34F8FBFF3E2
:104570006F8FFEE700683149491E884207D15020FD
:1045800080F31188BFF34F8FBFF36F8FFEE72C4985
:1045900008780190FF20087008788DF800009DF8D9
:1045A00000009DF8002000F0F000904207D050205D
:1045B00080F31188BFF34F8FBFF36F8FFEE79DF835
:1045C0000000204C00F0500020700720A06005E0A3
:1045D0009DF8002052008DF80020401E9DF800201C
:1045E0001206F5D4A060032807D0502080F311886C
:1045F000BFF34F8FBFF36F8FFEE74FF44070A060A3
:10460000019808700C482030016841F47001016085
:10461000016841F070410160FFF7FAFE0020606020
:10462000FBF726FE0848016841F040410160FBF7B6
:104630000BFE00201CBD000000ED00E071C20F4128
:1046400000E400E01801002034EF00E010B5502035
:1046500080F31188BFF34F8FBFF36F8F00F072F8B4
:1046600018B104494FF080500860002080F3118891
:1046700010BD000004ED00E02DE9FF5F8346DDE999
:104680000E87994616468A469000FFF70BFC0500F8
:104690001CD05420FFF706FC040014D00020256332
:1046A00084F85100CDE90240CDE900874B463246FF
:1046B00051465846FFF760FB2046FFF785FA012078
:1046C00004B0BDE8F09F2846FFF770FE4FF0FF30C2
:1046D000F6E7F0B585B0DDE90B640A9DA6B1DCB163
:1046E000542700972663022684F85160002604AF01
:1046F000CDE90246CDE90057FFF73EFB2046FFF724
:1047000063FA049805B0F0BD502080F31188BFF320
:104710004F8FBFF36F8FFEE7502080F31188BFF3F8
:104720004F8FBFF36F8FFEE70548416919B1006BEA
:1047300018B1002070470120704702207047000028
:10474000BC0000202DE9F0412F4C0026206B28B141
:10475000A069401CA0613046BDE8F081E5686D1C91
:10476000E56013D1606B006838B1502080F3118888
:10477000BFF34F8FBFF36F8FFEE7606BA16B616379
:10478000A063206A401C2062FFF768FBA06ADFF884
:104790007C80854209D3606B0068A0B1606BC06803
:1047A000C7687868854211D2A0622068C06A00EBB1
:1047B000800158F82100012800D90126E06900286D
:1047C000C9D00126C7E74FF0FF30EDE7381DFFF7EE
:1047D00069FDB86A18B107F11800FFF763FDF96ABF
:1047E0000120226988401043206101EB810108EB20
:1047F0008100391DFFF79AFDF86A2168C96A88426D
:10480000C9D30126C7E70000BC0000200C0C002023
:104810002DE9F0472C4D00242746286B38B1FFF7CF
:1048200091FD286B401E2863286B40B146E0502064
:1048300080F31188BFF34F8FBFF36F8FFEE7A96836
:10484000224E0120D1B3A6F1B40980463068E8B108
:10485000F068C46804F11800FFF724FD201DFFF77D
:1048600021FDE06A2A6908FA00F11143296100EB91
:10487000800109EB8100211DFFF758FDE06A2968DE
:10488000C96A8842E2D3C5F81C80DFE70CB1FFF7A4
:10489000E5FAAC6944B14646FFF754FF00B1EE615A
:1048A000641EF9D10020A861E86938B108490127E0
:1048B00038070860BFF34F8FBFF36F8FFFF762FDBC
:1048C0003846BDE8F0870000BC000020C00C002086
:1048D00004ED00E021F00042A2F16052B2F5801F29
:1048E00001F0004328BFD2F17F6C0BD95FEA001CB6
:1048F00043EAC20242EB507018BF704728BF20F055
:1049000001007047B2F5801FBCBF184670474FEAE0
:10491000410C1CF5001F02D2084600F054BD70B5D2
:1049200000F042FB00000089FFF7F6BF4FF00040A7
:10493000A0F580007047000010B591EA030F48BF52
:1049400083F0004300F15884841A71EB030C05D204
:10495000121943EB0C03001B61EB0C01DFF824E19F
:104960004FEA1154A4EB135C1EEA430F18BF9EEAF2
:10497000445F73D023EA0E03DCF1200E21EA0451D8
:1049800043F4801332D322FA0CFE10EB0E0023FA0C
:104990000CFE41EB0E01CCF1200E03FA0EFE10EBE3
:1049A0000E0051F10001B1F5801FCCF1200E32D282
:1049B00001EB045112FA0EF2BDE8104058BF7047E7
:1049C000401C38BF5FEA420218BF7047002814BF7E
:1049D00020F0010041F100014FEA410313F5001FEF
:1049E00038BF7047A1F1C04100F02CBB012A43EB56
:1049F0000302ACF1200CDCF11F0E32BF4FF0000EB1
:104A000023FA0CF310EB030041EB0451B4EB115FFC
:104A1000D0D0A1EB045101F5801149085FEA3000C4
:104A200001EB04510ED350F1000038BF12FA0EFE14
:104A300008D1BDE81040C9E7401C38BF5FEA420218
:104A4000CAD1C3E7BDE810404FEA410313F5001F88
:104A500038BF7047A1F1C04100F0F4BA9EEA445F4C
:104A600008D011EA5E0FBDE8104004BF01F000411C
:104A700000207047BDE8104070B500F095FA00BF07
:104A800064FBBE3E0000E0FF491058BFC1F1404149
:104A90005B1058BFC3F140438B42EFF30080704777
:104AA0002DE9C04130B4DFF8A0C23CEA111418BFB0
:104AB0003CEA131400F0EC8081EA03051CEA1114AF
:104AC00044EAD57418BF1CEA131500F0C780A4EBA4
:104AD00005044FF0004545EAC12145EAC32341EAF8
:104AE000505143EA525304F17F74994204F5003463
:104AF0004FEAC0204FEAC22208BF904200F09C80DB
:104B00004FEA13650FF24016765D4FEA134506FB38
:104B100005F7C7F1807706FB07F74FEAD737A7FB02
:104B200003687642C8F58038A7FB06CE38BFA8F1E7
:104B3000010807FB08E64FF0000EA6FB028CE6FB1F
:104B400003CEDCF1000CCEF1004E38BFAEF1010E09
:104B5000A6FB0C584FF000074FF00005E6FB0E8750
:104B6000A1FB08C6A0FB07CE16EB0E0645F100051B
:104B7000E1FB076515F1E04E7EBFA4F580345FEAE6
:104B800046066D4116F1800745F100054FEA1727EB
:104B90004FEA066647EA0567A6F1DE46B6F1805F92
:104BA0004FEA15251FD9384624F0010C05EBC471D6
:104BB000BCF1FE6F01EB0C1102D8F0BCBDE8008126
:104BC00024425CBF01F5801E9EEAC47F02D4F0BC83
:104BD000BDE80081244238D4F0BCA1F1C041BDE859
:104BE000004100F02FBA4FEAD22242EA43524FEA84
:104BF000D323A7FB02864FEAD02040EA415007FBAF
:104C000003661EEA0E0F4FEAD12105FB026658BF6C
:104C1000A6EB0056B6EB00564FEA520E4EEAC37EA4
:104C200018EB0E0E56EB530EBDD518EB02085E4185
:104C30007F1C55F10005B6E74FF480154FF00007D3
:104C40004FF000064FF00008ADE7F0BC4FF0000059
:104C500001F1C04101F00041BDE8008111EA0C1FE3
:104C60000CEA131500D00CE013EA0C1F00F02580AD
:104C70004FF00000F0BC81EA030101F00041BDE803
:104C80000081F0BCBDE8004181EA030100F0DAB91F
:104C9000F0BCBDE8004170B500F086F9097EFC3E2D
:104CA00000F007B881EA03014FF0000001F0004175
:104CB000704781EA030100F0C5B9F0BCBDE80041CE
:104CC0004FF0000021497047FFFDFBF9F7F5F4F2C2
:104CD000F0EEEDEBE9E8E6E4E3E1E0DEDDDBDAD897
:104CE000D7D5D4D3D1D0CFCDCCCBCAC8C7C6C5C4F5
:104CF000C2C1C0BFBEBDBCBBBAB9B8B7B6B5B4B30C
:104D0000B2B1B0AFAEADACABAAA9A8A8A7A6A5A4F6
:104D1000A3A3A2A1A09F9F9E9D9C9C9B9A999998BA
:104D20009797969595949393929191908F8F8E8E5D
:104D30008D8C8C8B8B8A89898888878786858584EA
:104D400084838382828181800000FF070000F87FD6
:104D500051EA030C17D41CF5801F58BFBCF5801F07
:104D600000F10680994218BF704708BF9042704713
:104D700007D711F5801F58BF13F5801F19D499422A
:104D80007047894270471CF5801F08D5BCF5801F0D
:104D9000F7D58B4218BF704708BF824270474FF467
:104DA000001C1CEB410F38BF1CEB430F01D28B42A0
:104DB000704770B500F0F8F8922449004FF00051A8
:104DC0004FF08053FFF760BE4FEA41034FEA535361
:104DD000A3F58063D3F11E03C8BFD3F1210C0CDD12
:104DE0004FF0004242EAC12242EA505232FA03FC3A
:104DF0008CEAE17CACEBE1707047102BC4BF002063
:104E0000704703F5787CBCF1FF3F04D06FF000429F
:104E100082EA2100704770B500F0C6F849922480FC
:104E200000207047F2E710F0004248BF4042B0FA5D
:104E300080F310FA03F10AD0C3F11D0303F5806378
:104E40004FEA415002EB035202EBD12170474FF081
:104E500000007047DFF848C170B51CEA111E1EBF84
:104E60001CEA13159EEA0C0F95EA0C0F00F06F80F8
:104E700081EA030423EA4C134EEAD47E21EA4C1162
:104E800041F4801143F48013AE44A1FB024CA0FB1B
:104E90000365AEF17F7E361955EB0C05A1FB034C83
:104EA0004CF10003A0FB021C16EB0C06654153F10C
:104EB0000003094218BF46F0010613F4007F0BD12E
:104EC0004FEA03314FEA0530340341EA155140EA15
:104ED00016506FF003020AE04FEAC3214FEAC520E3
:104EE000F40241EA555140EA56506FF0020202EBDB
:104EF0002E4201EB025585EACE710AD05FEA440CDE
:104F000018BF24F0004450F1000041F1000120EAF4
:104F1000D47040F2FE7C624500D270BDA84214BF3E
:104F20004FF080444FF04044002E08BF0024BEF1F3
:104F3000806FA8BFA1F1C041BDE8704080F28280BF
:104F40004FF0000001F1C04101F0004170479EEABE
:104F50000C0F0CEA131518BF95EA0C0F06D04FF092
:104F6000000081EA030E0EF0004170BD00F01CF855
:104F70008900013E00F007B800F009B84FEA430C81
:104F80005FEA5C5C08D081EA030100F05BB84FEA9D
:104F9000410C5FEA5C5CF6D14FF0000001497047BC
:104FA0000000FF070000F87F0EF1020E2EF0030E46
:104FB0005EF8046B364205D4012A43EB030515F570
:104FC000001F12D8012841EB010C1CF5001F0CD862
:104FD0000ED14FEAD17C15F5001F0CEB4C0C0CF1F7
:104FE000020C08BF4CEBD37C04E04FF0080C01E04E
:104FF0004FEAD37C0CEB4C0526FA05F606F00706C3
:10500000B6F1040C06D20EEB860CBDE870404CF0F5
:10501000010C6047DFE80CF0090B02024FF0004181
:105020004FF00000A1F5002170BD1946104601287F
:1050300051EB010418BFD4F5001484BF002001F027
:10504000004170BD0808A0F500114FEA310170471A
:105050002DE9F04101F5801CBCF5001FC0F2A980CC
:105060004FEA115C21EA0C510CF1FD0C41F4801166
:105070005FEA5C0C0CF5C07C01D34000494130A4D0
:10508000890241EA905187028E0E0A0CA45D04FB4E
:1050900004F602FB06F6C6F14046A4FB0662F60DD6
:1050A00046EA422606FB06F4A4FB01235242C3F162
:1050B000404338BF5B1EA6FB02420024E6FB0324EC
:1050C000D20B42EA4446A6FB0623A1FB02E2A3FB65
:1050D00007E4E3FB61426442C2F1404E38BFAEF1E7
:1050E000010EA6FB04234FF00002E6FB0E32A2FBEA
:1050F00003463400E2FB6264A1FB06E6A4FB07E87A
:10510000E4FB61687642C8F1405838BFA8F1010855
:10511000A2FB06E4A3FB08E5E2FB6854A1FB05E65D
:10512000A7FB04E8E1FB648618F1200556F10006B0
:10513000A809A8F11B08B10908F03F08B8F10A0F47
:1051400040EA86601CD901EB0C51BDE8F08100BF3C
:10515000FCF5EEE8E2DDD8D3CFCBC7C3C0BDB9B60E
:10516000B4B1AEACA9A7A5A3A19F9D9B9A98969513
:105170009392908F8D8C8B8988878685848382819A
:10518000A0FB006800FB01F208EB4208B8EB87289F
:1051900007D5341858EB0104D5D5401C51F1000156
:1051A000D1E7341A78EB0104CDD4401E71F100012F
:1051B000C9E75FEA4C0C5FEA9C5C0DD105D34FF068
:1051C000000001F00041BDE8F081BDE8F04170B59C
:1051D000FFF7EAFE6DDBFFBEBDE8F0414FF00000D7
:1051E000004970470000F87F10B591EA030F48BFEF
:1051F00083F000433FF5A8AB841A71EB030C07D290
:1052000012198CF0004C43EB0C03001B61EB0C01FA
:10521000DFF8A4E14FEA1154A4EB135C1EEA430F3C
:1052200018BF9EEA445F00F0B08023EA6E0352424A
:1052300021EA0451C3EB6E0338BF5B1EDCF1200E84
:1052400025D322FA0CFE10EB0E0043FA0CFE41EBC4
:105250000E01CCF1200E03FA0EFE10EB0E0051F100
:105260000001CCF1200E29D412FA0EF201EB045108
:10527000BDE8104058BF7047401C1CBFB2F1004F42
:10528000704700280CBF491C20F00100704712EB4A
:10529000020E43EB030218BF4FF0010E4EEA42022A
:1052A000ACF1200CDCF11E0E54D943FA0CFE10EBCD
:1052B0000E0051F1FF31CCF11E0ED5D50EF1010ECD
:1052C00012FA0EFE404141EB010101EB445C5FEA42
:1052D0005C5C10D910EBDE7001EB045138BFBEF1FD
:1052E000004FBDE8104018BF704700280CBF491C94
:1052F00020F00100704730D24FEAD42C11F5001194
:1053000024F400641BD0B1FA81F20B3AA41AA41E53
:10531000D2F12003914030FA03F31943904001EB9E
:10532000CC71002C01EB0451BDE81040A8BF7047C0
:1053300001F1C0414FF0000001F000417047B0FAA8
:1053400080F310FA03F100D110BDE41A173C4805B0
:10535000C90AE4E701EB045110BD491001EB045107
:10536000BDE810404FEA300002E04FF00001704706
:105370004A0008BF0042F8D0B2F5001F28BF7047AE
:1053800001F000414FF0000070479EEA445F07D0F3
:1053900011EA5E0FBDE8104004BF002100207047F5
:1053A000BDE8104070B5FFF7FFFD00BF40DFF63EDF
:1053B00083F00041104670470000E0FF4FF040705E
:1053C000E1EE100A7047FF2141EAD050C005704756
:1053D000EC550008492A0008000000000000000009
:1053E000800000000000000000000000745500086C
:1053F000612A0008FDFF000000000000800000009E
:1054000000000000000000008C5500089D2A0008E4
:10541000FDFF000000000000800000000000000010
:1054200000000000A4550008052F0008FDFF000043
:1054300000000000800000000000000000000000EC
:10544000B055000869300008FDFF000000000000B2
:10545000800000000000000000000000BC550008B3
:10546000DD320008FDFF00000000000080000000A9
:105470000000000000000000C8550008E5320008E8
:10548000FDFF0000000000008000000000000000A0
:1054900000000000D4550008ED320008FDFF0000B8
:1054A000000000008000000000000000000000007C
:1054B000E0550008F5320008FDFF00000000000084
:1054C0008000000000000000000000005C550008A3
:1054D000FD320008FDFF0000000000008000000019
:1054E00000000000000000006855000805330008B7
:1054F000FDFF000000000000800000000000000030
:1055000000000000805500080D330008FDFF00007A
:10551000000000008000000000000000000000000B
:105520009855000815330008FDFF0000000000003A
:1055300080000000000000000000000000061016BF
:105540000006101600000000000000000102030425
:105550000607080900000000010203046D79546188
:10556000736B3130000000006D795461736B313121
:10557000000000006D795461736B30320000000050
:105580006D795461736B3132000000006D795461A4
:10559000736B3033000000006D795461736B3133ED
:1055A000000000006D795461736B3034000000001E
:1055B0006D795461736B3035000000006D79546172
:1055C000736B3036000000006D795461736B3037B7
:1055D000000000006D795461736B303800000000EA
:1055E0006D795461736B3039000000006465666149
:1055F000756C745461736B0018560008000000202D
:1056000024010000C40100083C57000824010020C8
:105610003C4E0000E001000800000000000400040F
:10562000000400000000C84200100000000000005C
:10563000000000000000000000000000000000006A
:10564000000000000000000000000000000000005A
:10565000000000000000000000000000000000004A
:10566000000000000000000000000000000000003A
:10567000000000000000000000000000000000002A
:10568000000000000000000000000000000000001A
:10569000000000000000000000000000000000000A
:1056A00000000000000000000000000000000000FA
:1056B00000000000000000000000000000000000EA
:1056C00000000000010000001000000000000000C9
:1056D0000024F400000000000000000000000000B2
:1056E00000000000000000000000000000000000BA
:1056F00000000000000000000000000000000000AA
:105700000000000000000000000000000000000099
:105710000000000000000000000000000000000089
:105720000000000000000000000000000000000079
:0C57300000000000AAAAAAAA00000000C5
:040000050800018965
:00000001FF
