:020000040800F2
:10000000184E00200D030008B32900084D250008F4
:10001000B12900080F060008E12E000800000000CA
:100020000000000000000000000000004D02000879
:10003000FD09000800000000A9020008BD29000811
:1000400027030008270300082703000827030008E8
:1000500027030008270300082703000827030008D8
:1000600027030008270300082703000827030008C8
:10007000C506000827030008D1060008270300086A
:100080002703000827030008270300081D060008AF
:1000900011060008270300082703000827030008AB
:1000A0002703000827030008270300082703000888
:1000B0002703000827030008270300082703000878
:1000C0002703000827030008270300082703000868
:1000D000270300082703000827030008392E00081B
:1000E0002703000827030008270300082703000848
:1000F0002703000827030008270300082703000838
:100100002703000827030008270300082703000827
:100110002703000827030008270300082703000817
:1001200027030008DD06000827030008270300084E
:1001300027030008270300082703000835060008E6
:1001400029060008270300082703000827030008E2
:1001500027030008E906000827030008992E000875
:1001600027030008270300082703000827030008C7
:1001700027030008270300082703000800000000E9
:1001800027030008270300082703000827030008A7
:100190002703000827030008270300082703000897
:1001A00000000000000000002703000800F002F833
:1001B00000F03CF80AA090E8000C82448344AAF1C5
:1001C0000107DA4501D100F031F8AFF2090EBAE8C3
:1001D0000F0013F0010F18BFFB1A43F0010318477B
:1001E000705E0000905E0000103A24BF78C878C1AD
:1001F000FAD8520724BF30C830C144BF04680C602D
:10020000704700000023002400250026103A28BF74
:1002100078C1FBD8520728BF30C148BF0B60704778
:100220001FB505F095FC1FBD10B510BD00F0BAF963
:100230001146FFF7F5FF04F051F900F0D8F903B4C7
:10024000FFF7F2FF03BC00F0DBF900002C4B19684C
:100250000868B0E8F04F80F30988BFF36F8F4FF064
:10026000000080F311887047000000000848006813
:10027000006880F308884FF0000080F3148862B6AD
:1002800061B6BFF34F8FBFF36F8F00DF00BF00BFBA
:1002900008ED00E0DFF80C00016841F47001016036
:1002A000704700BF88ED00E0EFF30980BFF36F8F68
:1002B000134B1A681EF0100F08BF20ED108A20E9BA
:1002C000F04F106009B44FF0500080F31188BFF375
:1002D0004F8FBFF36F8F04F0C3FD4FF0000080F32A
:1002E000118809BC19680868B0E8F04F1EF0100FBB
:1002F00008BFB0EC108A80F30988BFF36F8F704796
:1003000030000020EFF30580704700000948804767
:1003100009480047FEE7FEE7FEE7FEE7FEE7FEE7E7
:10032000FEE7FEE7FEE7FEE704480549054A064BFF
:1003300070470000692A0008AD0100081848002035
:10034000184E0020184A0020184A002053EA020CD8
:1003500000F069802DE9F04B4FF00006002B1FBF25
:10036000B3FA83F503FA05F424FA05F65E4012BFEA
:100370001643B2FA82F502FA05F4C5F120051EBF54
:1003800022FA05FC44EA0C04203556EA044C4FEAF4
:10039000144418BF641C4FF000084FF0000990424D
:1003A00071EB030C39D3002919BFB1FA81F701FAB7
:1003B00007F6B0FA80F700FA07F6C7F120071EBF6C
:1003C00020FA07FC46EA0C062037B6FBF4FCA7EB44
:1003D0000507103F07F01F0BCBF120060CFA0BFBB3
:1003E0002CFA06F644BFB3460026202FA4BF5E4673
:1003F0004FF0000B5BEA060C08BF4FF0010B19EB46
:100400000B09ABFB027C48EB0608C01B06FB02CCC9
:100410000BFB03CC71EB0C01C1E70B4602464146D6
:100420004846BDE8F08B13B54FF000004FF00001D7
:10043000AFF30080BDE81C407047032A40F23080D3
:1004400010F0030C00F0158011F8013BBCF1020F15
:10045000624498BF11F801CB00F8013B38BF11F896
:10046000013BA2F1040298BF00F801CB38BF00F8AD
:10047000013B11F0030300F02580083AC0F008802A
:1004800051F8043B083A51F804CBA0E80810F5E70E
:10049000121D5CBF51F8043B40F8043BAFF30080F1
:1004A000D20724BF11F8013B11F801CB48BF11F866
:1004B000012B24BF00F8013B00F801CB48BF00F836
:1004C000012B704710B5203AC0F00B80B1E81850EE
:1004D000203AA0E81850B1E81850A0E81850BFF42E
:1004E000F5AF5FEA027C24BFB1E81850A0E81850CD
:1004F00044BF18C918C0BDE810405FEA827C24BF21
:1005000051F8043B40F8043B08BF7047D20728BFAE
:1005100031F8023B48BF11F8012B28BF20F8023BFD
:1005200048BF00F8012B70474FF0000200B513469A
:1005300094469646203922BFA0E80C50A0E80C5003
:10054000B1F12001BFF4F7AF090728BFA0E80C50B4
:1005500048BF0CC05DF804EB890028BF40F8042BAD
:1005600008BF704748BF20F8022B11F0804F18BF1A
:1005700000F8012B704770477047704710B500F0C6
:1005800009F8006810BD10B5044600F003F80460D7
:1005900010BD000000487047B84700200048704771
:1005A000B84700207546FFF7F9FFAE4605006946DB
:1005B000534620F00700854618B020B5FFF7B4FE7B
:1005C000BDE820404FF000064FF000074FF0000854
:1005D0004FF0000B21F00701AC46ACE8C009ACE8D5
:1005E000C009ACE8C009ACE8C0098D46704710B539
:1005F0000446AFF300802046BDE81040FFF71FBE61
:1006000001491820ABBEFEE7260002007047FEE756
:10061000014800F08CBB000038050020014800F0C4
:1006200086BB000038050020014800F080BB0000B8
:1006300060050020014800F07ABB00006005002042
:1006400010B58AB000200121019002900891049019
:100650000090CDE9060103900E24059069460994A7
:10066000174800F069FA08B100F0C9F9144800F021
:100670006FFE08B100F0C3F90321114800F0E6F95C
:1006800008B100F0BCF90E48059469462830099479
:1006900000F052FA08B100F0B2F90948283000F031
:1006A00057FE08B100F0ABF905480321283000F0EF
:1006B000CDF9002801D000F0A2F90AB010BD000069
:1006C00038050020014800F0D1BE000010060020CF
:1006D000014800F0CBBE000070060020014800F089
:1006E000C5BE0000D0060020014800F0BFBE0000DB
:1006F000300700202DE9F04F85680024099E802DE9
:1007000018D0894DC563894D456490F83450012D4A
:1007100015D0012580F8345090F83550012D10D0B7
:10072000002180F834100224002180F83410204683
:10073000BDE8F08F4FF4807141650120F8E7022099
:10074000F6E7022580F835500025456505682F68D5
:1007500047F480272F6005682B6103685E6083681B
:10076000402B03682AD099600168CA60714D704EB1
:10077000704FDFF8BC81DFF8B891DFF8B8A1DFF87F
:10078000B4B1EA14DFF8A8E10168183630379302F3
:10079000A9F148090AF1600A0BF1180BAEF1300E0D
:1007A0004FF0006C41452DD9A94205D0494503D0F1
:1007B000514501D0B14205D1202220E09A60026863
:1007C000D160D3E759451AD0714518D0594D7835C5
:1007D000A94214D0564D3035A94210D0B9420BD0A1
:1007E000534A183A914207D0524A9032914203D06C
:1007F0004F4A4832914201D11A4600E062464C49C4
:100800004C392EE0DFF82C8108F1A80841452AD99F
:10081000A94205D0494503D0514501D0B14201D18B
:1008200020221CE059451AD0714518D0414D783529
:10083000A94214D03E4D3035A94210D0B9420BD058
:100840003B4A183A914207D03A4A9032914203D03B
:10085000374A4832914201D11A4600E06246344993
:1008600050390A605AE0DFF8CC8008F14808414569
:100870002AD9A94205D0494503D0514501D0B142FA
:1008800001D120221CE059451AD0714518D0294DBC
:100890007835A94214D0264D3035A94210D0B9423E
:1008A0000BD0234A183A914207D0224A9032914203
:1008B00003D01F4A4832914201D11A4600E06246F5
:1008C0001C491039CA6029E0A94205D0494503D026
:1008D000514501D0B14201D120221CE059451AD026
:1008E000714518D0134D7835A94214D0104D3035CC
:1008F000A94210D0B9420BD00D4A183A914207D004
:100900000C4A9032914203D0094A4832914201D1B7
:100910001A4600E06246074910398A6001680A6891
:1009200042F001020A60FFE61D4300084943000847
:10093000586402401060024001681823CAB2103A9D
:10094000B2FBF3F2054B6FF30901032A9B5CC3650D
:1009500000D9091D8165084670470000D45B000876
:1009600010B5014600208B698A6A4FF0C07453B1FC
:10097000B3F5005F15D072B1012A0CD0022A0AD05B
:10098000032A09D104E01AB1012A06D0022A03D1B0
:10099000C96AC90100D5012010BDC96AA142FAD0B7
:1009A00010BD002AF7D0012AF2D0022AF3D0032A80
:1009B000F3D010BD30B50468256825F48025256086
:1009C000046863608368402B036803D09960006803
:1009D000C26030BD9A600068C16030BD064A012126
:1009E000517001680A68D20604D5C968C90601D5E4
:1009F00004F0B6B87047000004010020704772B6DA
:100A0000FEE7000010B558B1084C491E0BD310F892
:100A1000013B5340DBB234F8133083EA1222F4E78F
:100A20004FF6FF7010BD104610BD0000F45C0008CA
:100A300010B5054C04E000BF10F8013B5340E25CE8
:100A4000491EF9D2104610BDF45B000890F8202032
:100A5000012A07D0022A05D0416A41F4802141626F
:100A600001207047006842690A43426100207047D4
:100A7000F0B590F820500468A468012D05D0022D2F
:100A800003D0416A41F4802153E014F0406F01D15A
:100A9000E5004BD5C4F30164022C03D9416A41F44B
:100AA000000146E00125A5401D608D684FF4C0732C
:100AB0009DB1CE6835434E6845EAC605066803EB2E
:100AC0000417F5514FF4C275076805EB04150E695C
:100AD0007E51097D012905D009E00E88CD6845EADF
:100AE0004655EBE701684E5946F480764E51117930
:100AF000D2F805504FF4C67641EA0525016806EBA9
:100B000004168D511178D2F801204FF4C47541EAD2
:100B10000221026805EB04155151006803EB041132
:100B2000425842F0010242500020F0BD416A41F4B7
:100B3000001141620120F0BD10B590F82020012A7B
:100B400007D0022A05D0416A41F480214162012088
:100B500010BD3B48D0F8002242F00102C0F800224C
:100B6000D0F8002222F47C52C0F80022D0F80022F3
:100B70004B6A42EA0322C0F800220A7D02F01F03FA
:100B800001229A40D0F81C329343C0F81C32CB6942
:100B9000B3B9D0F80C329343C0F80C328C894B684F
:100BA00064F31F434C6900EBC404C4F840320C8961
:100BB0000B6864F31F434C6900EBC404C4F844326F
:100BC000CB69012B16D1D0F80C321343C0F80C328C
:100BD0000C884B6864F31F434C6900EBC404C4F8F1
:100BE00040320C89CB6864F31F434C6900EBC404AA
:100BF000C4F844328B69002BD0F804320ED0134372
:100C0000C0F804320B69002BD0F8143208D013431B
:100C1000C0F81432096A012904D008E09343EFE7D1
:100C20009343F5E7D0F81C121143C0F81C12D0F81A
:100C3000001221F00101C0F80012002010BD0000D8
:100C400000640040704730B590F82040012C05D07A
:100C5000022C03D0416A41F480215DE00468002940
:100C600055D02469A40754D04FF4D874056804EB18
:100C700001142D5915F00405956005682D594ED0C5
:100C8000ED08556005682C5904F00204D4604FF457
:100C9000DA74056804EB01142D5905F00F05156190
:100CA00005682D59C5F30725956105682C59240C55
:100CB00054614FF4DC72046802EB0112A4581C70FA
:100CC0000468A458240A5C700468A458240C9C701E
:100CD0000468A258120EDA704FF4DE72046802EB58
:100CE0000112A4581C710468A458240A5C71046899
:100CF000A458240C9C710468A258120EDA71006882
:100D000081B1016941F020010161002030BDE4683A
:100D1000A8E7416A41F400114162012030BD6D0D28
:100D20001560AFE7C16841F02001C160EDE72DE932
:100D3000F05F0546006800244669D0F80490876893
:100D4000D0F80CB0D0F810A0D0F81880F10748D037
:100D5000F90714D001218160B80703D5284600F0B7
:100D600024FB0CE0780702D54FF4006407E0380755
:100D700002D54FF4805402E0284600F015FBF80538
:100D800016D529684FF480708860B80503D52846C9
:100D900000F00DFB0CE0780502D544F4005407E0A8
:100DA000380502D544F4804402E0284600F0FEFAFB
:100DB000F80316D529684FF480308860B80303D54E
:100DC000284600F0F6FA0CE0780302D544F400441B
:100DD00007E0380302D544F4803402E0284600F0EE
:100DE000E7FA300707D55FEACB6004D52968102001
:100DF00044F40074C86070074FF0080707D55FEA35
:100E00000B7004D52868C760284600F0A9F9B00720
:100E100006D52868C068800702D0284600F0A2F9ED
:100E2000700607D55FEACA6004D52968102044F42B
:100E300080640861B00607D55FEA0A7004D52868A7
:100E40000761284600F080FAF00606D52868006998
:100E5000800702D0284600F078FAB00308D55FEA90
:100E6000C96005D5296810204860284600F06EFA50
:100E7000F00307D55FEA097004D528684760284663
:100E800000F098FA300446D55FEA497040D5F00585
:100E900004D55FEAC87001D044F00104B00504D560
:100EA0005FEA887001D544F00204700504D55FEA5A
:100EB000487001D544F00404300529D518F0700FAE
:100EC00026D008F07000402815D006DC102809D084
:100ED00020280AD0302816D10AE050280ED06028E9
:100EE00011D10EE044F008040DE044F010040AE0D3
:100EF00044F0200407E044F0400404E044F080049F
:100F000001E044F480742868816921F070018161F6
:100F1000296804204860002C05D0686A2043686274
:100F20002846FFF78FFEBDE8F09F70B5040003D0A0
:100F300094F8200010B104E0012070BD204600F0BC
:100F400081F82068016841F00101016000F020FD96
:100F50000546052604E000F01BFD401B0A2811D8B9
:100F600020684068C007F6D02068016821F00201BF
:100F7000016000F00DFD05460BE000F009FD401B8F
:100F80000A2806D9606A40F40030606284F8206064
:100F9000D2E7206840688007EFD4207E01282068CF
:100FA00001683DD021F080010160607E0128206849
:100FB000016838D021F040010160A07E012820683E
:100FC000016833D021F020010160E07E0128206813
:100FD00001682ED041F010010160207F01282068B7
:100FE000016829D021F008010160607F0128206894
:100FF000016824D021F004010160D4E90201084312
:10100000D4E90412114308436168491E084321686A
:10101000C86100206062012084F82000002070BDBB
:1010200041F08001C0E741F04001C5E741F02001F7
:10103000CAE721F01001CFE741F00801D4E741F001
:101040000401D9E7F0B587B0044614216846FFF7DC
:101050006BFA3E4B3E48DFF8F0E01968D4F800C068
:101060003B4A03250226092710300024491CF44579
:101070002AD11960012907D1016841F0007101608E
:10108000006800F000700590106840F008001060E3
:101090001068CDE9005600F00800CDE904706946FB
:1010A0002C48CDE9024500F053FB00220521132016
:1010B00000F0E0FC132000F0CFFC002205211420FA
:1010C00000F0D8FC14203BE0DFF88CE0F44539D187
:1010D000D0F800C04CF0806CC0F800C0D0F800C060
:1010E00001290CF0806CCDF814C0196007D101689B
:1010F00041F000710160006800F000700590106818
:1011000040F002001060106802AB00F00200059091
:101110004FF44050CDE9000683E8B00069460F481F
:1011200000F016FB002205213F2000F0A3FC3F2029
:1011300000F092FC00220521402000F09BFC4020A2
:1011400000F08AFC07B0F0BD0064004014000020ED
:1011500030380240000C02400068004000040240A9
:101160007047000010B570498AB088427ED16F4B3D
:101170006F4A00216C48FFF766FD6D486B49A0F18E
:101180000A030268A1F12600B2F5407F2ED0A2F535
:101190004074013C02D10488012C38D0A2F5407083
:1011A000023821D1088840BA00EE100A6148B8EE32
:1011B000400A80ED0D0A4A8852BA00EE102AB8EEB5
:1011C000400A80ED0E0A8A8852BA00EE102AB8EE64
:1011D000400A80ED0F0AC88840BA00EE100A56484F
:1011E000B8EE400A80ED000A0AB010BD0288002A5D
:1011F000FAD10A8852BA1A804A8852BA5A808A8822
:1012000052BA9A80C98849BAD980012148E0484A2F
:101210001C88203A14805C8854809C889480DB88E9
:10122000D3800B885BBA13818B789372CB78D3729F
:101230004A7902F00103838002F00203C38002F0C6
:101240000403038102F00803438102F04003838119
:1012500002F08003C38102F01003038202F0200237
:1012600042820A7902F00103838200E01AE002F070
:101270000203C38202F00403038302F008034383E2
:1012800002F01003838302F02003C38302F04003C3
:10129000038402F080024284C98849BA8184002113
:1012A0000180A1E7254988429ED1006824498842EF
:1012B00005D107AB6A4600212048FFF7C4FC00991E
:1012C0002048A1F20121072913D2C9B2BDF81C2080
:1012D00001EB410100EB810152BA8A80BDF81E206A
:1012E00052BACA80BDF8202052BA0A819DF8222045
:1012F0008A720099A1F205210729D2D2C9B2BDF89C
:101300001C2001EB410100EB810052BA8280BDF844
:101310001E1049BAC180BDF8201049BA01819DF85C
:101320002210817260E7000038050020C000002014
:10133000BC450020D8450020E400002060050020C6
:10134000006800402401002070477047704700008B
:1013500070B5044690F82000012804D0606A40F47B
:101360000020606218E0022084F8200020680168F4
:1013700021F00101016000F00BFB05460EE000BF0B
:1013800000F006FB401B0A2808D9606A40F40030D0
:101390006062052084F82000012070BD206840684C
:1013A000C007EDD1606270BD7047704770477047ED
:1013B0007047704770472DE9F0410446876D00F093
:1013C000E7FA064694F835000025022806D080206A
:1013D000606584F834500120BDE8F0812068016820
:1013E00021F0160101602068416921F0800141610E
:1013F000206C08B9A06C20B12068016821F00801B8
:1014000001602068016821F0010101600CE000F03A
:10141000BFFA801B052807D920206065032084F8C7
:10142000350084F83450D7E720680068C007EED153
:1014300094F85C103F208840B860012084F83500A3
:1014400084F834500020C7E790F83510022903D003
:101450008021416501207047052180F83510006822
:10146000016821F001010160002070472DE9F84377
:1014700004464FF00009CDF8009063484FF4165130
:10148000A56D0068B0FBF1F72E6894F85C10082099
:1014900000FA01F131420FD021680A6852070BD5DA
:1014A0000A6822F004020A6094F85C108840A86080
:1014B000606D40F00100606594F85C104FF0010829
:1014C00008FA01F0304208D021684969090604D5BC
:1014D000A860606D40F00200606594F85C10042024
:1014E0008840304208D021680968890704D5A8607F
:1014F000606D40F00400606594F85C101020884036
:10150000304218D021680968090714D5A8602068FE
:101510000168490304D50068000308D5A16C07E001
:101520000168C90503D4016821F008010160216C3C
:1015300009B12046884794F85C102020884030424A
:1015400031D021680968C9062DD5A86094F8350006
:1015500005282068016806D0490347D500680003C4
:101560001DD4616C1CE021F0160101602068416906
:1015700021F080014161206C08B9A06C20B1206885
:10158000016821F00801016094F85C103F20884058
:10159000A86084F8358084F83490216D1FE0E16BF9
:1015A00009B120468847606D00282BD0606DC007C8
:1015B00014D0052084F835002068016821F001016D
:1015C00001600098401C0090B84203D82068006871
:1015D000C007F6D184F8358084F83490E16C002996
:1015E00010D001B02046BDE8F04308470168C905A6
:1015F000D5D4016821F01001016084F8358084F8A9
:101600003490CCE7BDE8F8832C0000202DE9F041B0
:10161000044600F0BDF906465CB1022084F83500AE
:10162000002584F834502068016821F00101016030
:101630000DE00120BDE8F08100F0AAF9801B05282B
:1016400005D920206065032084F83500F2E7206882
:101650000068C007F0D12268116820480140D4E931
:1016600001031843D4E9033633431843636918432D
:10167000A3691843E3691843236A18430843616A5E
:10168000042903D1D4E90B131943084310602068DF
:101690004069666A20F0070130460E43012704289E
:1016A0000CD1A06A0643E06A40B12046FFF758F922
:1016B00020B14020606584F83570BAE72068466143
:1016C0002046FFF739F994F85C203F219140816072
:1016D000656584F835700020ACE700003F8010F0AD
:1016E0002DE9F0410446866D90F83400002501286C
:1016F0000DD0012084F8340094F835700020012FBB
:1017000007D084F8340002252846BDE8F081022085
:10171000FBE7022784F8357060652046FFF74AF939
:1017200094F85C103F208840B0602068016841F068
:1017300016010160206C20B12068016841F00801A9
:1017400001602068016841F001010160DCE70000F0
:101750002DE9F84FDFF8F8A10022012403254FF00E
:101760000F090AF1040BAAF1040E00BF0B6804FA7A
:1017700002F63340B34270D10F7907F00307012F0F
:1017800001D0022F16D187684FEA420805FA08FCFB
:1017900027EA0C07D1F80CC00CFA08FC4CEA070C3D
:1017A000C0F808C04768B7430E79C6F300169640E4
:1017B0003E4346600E79F643B6070AD0C7684FEA43
:1017C000420C05FA0CF6B7438E6806FA0CF63E4357
:1017D000C6600E7906F00306022E10D1D60800EB83
:1017E0008608D8F8206057074FEAD76C09FA0CF73B
:1017F000BE430F6907FA0CF73743C8F82070066834
:101800004FEA420C05FA0CF7BE430F7907F00307C5
:1018100007FA0CF7374307604E6816F4403F1CD0B8
:101820004C4E376847F480473760366822F003072C
:1018300006F480460096484E07EB060CDCF8086874
:1018400097073F0F09FA07F826EA0806DFF80C8128
:10185000404503D14FF0000841E072E0DFF800811D
:10186000404502D14FF0010839E0DFF8F8804045EB
:1018700002D14FF0020832E0DFF8EC80404502D19F
:101880004FF003082BE0DFF8E480404502D14FF031
:10189000040824E0DFF8D880404502D14FF0050865
:1018A0001DE0DFF8D080404502D14FF0060816E079
:1018B000DFF8C480404502D14FF007080FE0DFF8A1
:1018C000BC80404502D14FF0080808E0DFF8B08046
:1018D000404502D14FF0090801E04FF00A0808FA2C
:1018E00007F848EA0608CCF80888DAF80060574696
:1018F000D1F804C09E435FEACC2C00D51E433E6065
:10190000DBF800605F46D1F804C09E435FEA8C2C90
:1019100000D51E433E60DEF800607746D1F804C073
:101920009E435FEA8C3C00D51E433E60084F083F53
:101930003E68D1F804C09E435FEACC3C00D51E430C
:101940003E60521C102AFFF411AFBDE8F88F000072
:10195000083C014044380240003001400000024091
:101960000004024000080240000C02400010024047
:101970000014024000180240001C024000200240F7
:10198000002402400AB1816170470904FBE70000AE
:1019900001488068704700002000002002488168EC
:1019A0000278114481607047200000200B4810B578
:1019B000016841F400710160016841F480610160D7
:1019C000016841F480710160032000F073F80F207A
:1019D00000F006F800F024F8002010BD003C0240A2
:1019E00070B50D4D04464FF47A712878B1FBF0F0D4
:1019F0000A490968B1FBF0F000F010FB48B9102C5F
:101A000007D200222146501E00F034F800206C60FE
:101A100070BD012070BD0000200000202C000020BF
:101A20000C4882B0016841F480410160006800F414
:101A3000804000900748001F016841F0805101601C
:101A40000068002200F0805000900F21901E02B02C
:101A500000F010B844380240002809DB00F01F02F3
:101A6000012191404009800000F1E020C0F8001100
:101A700070470000F0B40E4B1B680C46C3F3022302
:101A8000C3F10705042D00D90425191D072901D22A
:101A9000002300E0DB1E012606FA05F1491E214065
:101AA00099409E40761E16403143F0BC01F052BB77
:101AB0000CED00E0064900F0070208684FF6FF034E
:101AC000184040EA0220034A1043086070470000B3
:101AD0000CED00E00000FA052DE9F0470E46050088
:101AE00065D0DFF81481D8F80000F7B200F00F00DD
:101AF000B04207D288F80070D8F8000000F00F005C
:101B0000B04254D128683D4C810712D5400703D517
:101B1000206840F4E05020602878000703D5206852
:101B200040F4604020602068A96820F0F00008437D
:101B300020602878C0072DD030496868083901280E
:101B400012D0022813D0032811D009688907002970
:101B50002DDA216821F0030101432160FFF718FF0E
:101B6000814641F2883A0EE009688903EFE7096887
:101B70008901ECE7FFF70CFFA0EB0901514502D901
:101B80000320BDE8F0872068696800F00C00B0EB26
:101B9000810FEFD1D8F80010404601F00F01B1429B
:101BA00007D90770006800F00F00B04201D0012093
:101BB000E7E72878400705D52068E96820F4E05079
:101BC000084320602878000706D52068296920F49A
:101BD000604040EAC100206000F038F82168084AFF
:101BE000C1F30311515CC84006490860064800680B
:101BF000FFF7F6FE0020C4E7003C02400838024030
:101C0000DC5B00082C00002024000020044805496B
:101C100000680968044AC1F38221515CC8407047DA
:101C20002C00002008380240EC5B000804480549FD
:101C300000680968044AC1F34231515CC8407047EA
:101C40002C00002008380240EC5B0008154810B555
:101C5000006810F00C02144813D01449042A0FD065
:101C6000082A0ED10F4C241F2268236802F03F027D
:101C70005B0207D52068C0F38810A0FB010106E0D5
:101C8000084610BD2168C1F38811A1FB00010023A3
:101C9000FEF75CFB2168C1F30141491C4900B0FB20
:101CA000F1F010BD083802400024F400001BB7001A
:101CB0002DE9F84F04006ED02078DFF84C93C00770
:101CC000A9F104054AD009F104000168C1F38101BA
:101CD000012908D00068C0F3810002280AD1D9F890
:101CE0000000400206D52868800337D560680028C8
:101CF000E1D033E06068B0F5803F10D0B0F5A02FA0
:101D0000286810D020F480302860286820F48020D3
:101D100028606068A8B1FFF73BFE06460DE0286822
:101D200040F48030F4E740F480202860F7E700BFFB
:101D3000FFF72EFE801B642873D828688003F7D530
:101D40000CE0FFF725FE064605E000BFFFF720FE8A
:101D5000801B6428F0D828688003F7D42078DFF847
:101D6000AC8280074FF0000A3ED5A748001D0168ED
:101D700011F00C0F08D00068C0F3810002280BD1CD
:101D8000D9F80000400207D42868800716D5E0681B
:101D9000012800D112E033E1E068B8B10120C8F8B1
:101DA0000000FFF7F5FD064605E000BFFFF7F0FD78
:101DB000801B0228C0D828688007F7D528682169C9
:101DC00020F0F80040EAC10028600DE0C8F800A04B
:101DD000FFF7DEFD064604E0FFF7DAFD801B022870
:101DE0001FD828688007F7D42078000722D5864FAF
:101DF00087486169703771B101210160FFF7C8FD43
:101E0000064604E0FFF7C4FD801B022809D83868A5
:101E10008007F7D50EE0C0F800A0FFF7B9FD064631
:101E200005E082E0FFF7B4FD801B02287DD838680A
:101E30008007F7D42078400768D5DFF8CCB10027B9
:101E40000BF13C0BDBF80000C0000BD4DBF80010FA
:101E500041F08051CBF80010DBF80000012700F0C2
:101E6000805000906B4E3068C00510D4306840F44C
:101E700080703060FFF78CFD009005E0FFF788FD73
:101E80000099401A022850D83068C005F6D55E4E39
:101E9000A0686C3601280FD00528306810D020F0DB
:101EA00001003060306820F004003060A068B8B1F4
:101EB000FFF76EFD00900FE0306840F00100F4E79E
:101EC00040F004003060F7E7FFF762FD0099411A27
:101ED00041F28830814266D830688007F4D50EE040
:101EE000FFF756FD009007E0FFF752FD0099411AF9
:101EF00041F28830814256D830688007F4D42FB13F
:101F0000DBF8001021F08051CBF80010A069C8B3B5
:101F10003D49091D0968C1F3810102294AD00228FF
:101F2000504607D0C8F8600000E03CE0FFF730FD05
:101F300004463BE04746C8F86000FFF729FD064627
:101F400005E000BFFFF724FD801B02282BD828687E
:101F50008001F7D4D4E907010843A16A2E4A490851
:101F600002EB0141626A41EA8211084394F82C10A5
:101F700040EA0161C9F8001001203866FFF708FD4A
:101F8000044606E03EE000BFFFF702FD001B02280A
:101F900009D828688001F7D534E000BFFFF7F8FCC6
:101FA000001B022802D90320BDE8F88F28688001B1
:101FB000F4D427E00128F7D0D9F80000E26900F452
:101FC000800191421CD1226A00F03F01914217D159
:101FD00047F6C071626A0140B1EB821F10D1A26A5C
:101FE0004FF0FF3300F4403103EB5202B1EB024FEC
:101FF00006D194F82C1000F07060B0EB016F01D0A6
:102000000120D1E70020CFE704380240000047421A
:10201000800E4742007000400000FFFF10B5401ED8
:10202000B0F1807F01D3012010BD4FF0E02460614A
:102030000F21601701F08EF80020A06107202061B9
:10204000002010BD704710B504460068406994F840
:102050003D10C0F3C010212911D180B12068143087
:1020600050E8001F21F0800140E80012002AF5D15D
:10207000606B08B1FFF79FF9204600F09FFD2068D4
:10208000406994F83E10C0F38010222911D180B12C
:102090002068143050E8001F21F0400140E8001291
:1020A000002AF5D1A06B08B1FFF785F9204600F0B2
:1020B0005EFD002010BD7047F8B501680446086851
:1020C000CA684B6910F00F0F4FF0000559D003F0AC
:1020D000010602F49077374365D0C10705D0D105DA
:1020E00003D5216C41F001012164410705D5D907D1
:1020F00003D0216C41F002012164810705D5D90785
:1021000003D0216C41F004012164010707D502F0DE
:102110002001314303D0216C41F008012164216C7E
:1021200000293AD0800604D5900602D5204600F05A
:1021300053FD20684069216CC0F38010090700D46A
:1021400060B3204600F013FD20684069400621D5A9
:102150002068143050E8001F21F0400140E80012D0
:10216000002AF5D1A06BA8B16C490165A06BFFF7FF
:102170006BF9002811D0A06B016D01B0BDE8F040F3
:10218000084783060FD593060DD52046BDE8F840D5
:1021900000F022BD2046FFF78EFFF8BD2046FFF776
:1021A0008AFF2564F8BD266B2023012E79D1C6064F
:1021B00077D5D60675D50868486800904869400606
:1021C00040D5A16B086840680004000CEAD0A28DDD
:1021D0008242E7D9E085C869B0F5807F2DD02068BC
:1021E0000C3050E8001F21F4807140E80012002AF2
:1021F000F5D12068143050E8001F21F0010140E8BB
:102200000012002AF5D12068143050E8001F21F098
:10221000400140E80012002AF5D184F83E302563E1
:1022200020680C3050E8001F21F0100140E8001237
:10223000002AF5D1A06BFFF7BEF8A08DE18D401A02
:1022400081B229E0A08DE18D401A81B2E08D002895
:10225000A8D00029A6D020680C3050E8002F22F426
:10226000907240E80026002EF5D12068143050E826
:10227000002F22F0010240E80026002EF5D184F85C
:102280003E30256320680C3050E8002F22F0100209
:1022900040E80023002BF5D12046FFF7D3FEF8BD20
:1022A000FFE705062BD5150629D594F83D00212812
:1022B000F5D1A068B0F5805F01D12069B0B1206A86
:1022C000411C2162216800784860E08C401E0004B7
:1022D000000CE084E3D12068C16821F08001C16076
:1022E0002068C16841F04001C160D8E7206A0088D9
:1022F000C0F308004860206A801C2062E5E74006C1
:10230000CDD55006CBD5CA68204622F04002CA601F
:1023100084F83D3000F019F9C1E70000792A00087F
:1023200070B5040004D094F83D00002510B106E01B
:10233000012070BD84F83C50204600F023F8242092
:1023400084F83D002068C16821F40051C160204636
:1023500000F0A2FC2068016921F49041016120682D
:10236000416921F02A0141612068C16841F40051AE
:10237000C1602564202084F83D0084F83E000020E0
:1023800070BD00002DE9F04786B004461421684670
:10239000FEF7CAF85948584F236802210322002546
:1023A00006154FF0400ABB424DD1544B10331F6805
:1023B00047F480271F601B6803F48023059303689C
:1023C00043F008030360006800F008000590100265
:1023D0008DE823000720CDE9032069464848FFF730
:1023E000B7F9494F47484FF000683860C7E90185A1
:1023F000C7E903567D61BD61FD613D6238467D627E
:10240000FFF704F908B1FEF7FAFAA763BC633E4F81
:102410003C4860373030C7E903567D61BD61FD61DE
:102420003D627D6287E801053846FFF7EFF808B1A5
:10243000FEF7E5FA6763002205212720BC63FFF75A
:1024400019FB272052E0314FBB4251D12B4B1433A3
:102450001F6847F020071F601B6803F020030593E7
:10246000036843F040030360006800F040000590FB
:102470004FF484408DE823000820CDE9032069460D
:102480002348FFF765F9204F2248C0374FF02068F6
:102490003860C7E90185C7E903567D614FF400390B
:1024A000BD61C7E9075938467D62FFF7AFF808B14B
:1024B000FEF7A5FAA763BC63174F1648C7E9035692
:1024C0007D61BD61C7E9075978307D6287E8010504
:1024D0003846FFF79BF808B1FEF791FA67630022D0
:1024E00005214720BC63FFF7C5FA4720FFF7B4FA80
:1024F00006B0BDE8F08700000048004030380240D8
:10250000000C024028600240100600200014014028
:1025100000180240286402403007002090F83E3046
:10252000202B0ED159B152B190F83C30012B08D07C
:10253000012380F83C300023036300F033BC01200A
:10254000704702207047704770477047FEE70000F1
:102550002DE9F0470E4607460025DFF89491C0E0CC
:10256000785DA52873D178190446052100F0D8FCC0
:1025700000286CD06078A17840EA012805EB0800BB
:102580000930B04246D8204608F1090100F0AAFC03
:1025900000285CD06079A17940EA012040F2022154
:1025A000A0F20222884261D018DCB0F5817F40D0D1
:1025B0000ADC01281BD0032820D005282BD0A0F549
:1025C0008070013822D12DE0B0F5827F38D0A0F59F
:1025D000807005383CD0FC2818D140E0092A15D27B
:1025E000DFE802F0144B525960676E7577000B20DC
:1025F000804602463E48E11D8F3805E02020804697
:1026000002463B48E11D8338FDF717FF05EB080044
:102610000930C5B265E00D20804602463448E11D10
:102620006338F1E70420804602463148E11D563800
:10263000EAE70420804602462D48E11D5238E3E7D0
:102640000220804602462A48E11D4E38DCE746E07B
:102650000120804602462648E11D4C38D4E71B2065
:10266000804602462248E11D4B38CDE710208046C7
:1026700002461F48E11D3038C6E71020804602465A
:102680001B48E11D2038BFE701208046024618485C
:10269000E11D1038B8E70120804602461448E11DCC
:1026A0000F38B1E70120804602461148E11D0E387F
:1026B000AAE70720804602460D48E11D0D38A3E732
:1026C0000620804602460A48E11D801F9CE7042040
:1026D00000E0062080460246E11D484694E76D1C56
:1026E000EDB2B542FFF43CAFBDE8F04702F064BA8A
:1026F000144500200F4810B50D49016003214160C9
:1027000000214FF410228160C0E903124FF400123F
:102710004261017641768176C17601774177FEF795
:1027200004FC002803D0BDE81040FEF768B910BDD6
:1027300000640040380500200F4810B50D490160C5
:102740000321416000214FF410228160C0E903128F
:102750004FF400124261017641768176C1760177AD
:102760004177FEF7E2FB002803D0BDE81040FEF7FA
:1027700046B910BD0068004060050020194808B542
:10278000016841F400110160016801F40011009139
:10279000016841F4800101600068002200F48000BB
:1027A000009005210C20FFF765F90C20FFF754F984
:1027B000002205210E20FFF75DF90E20FFF74CF9EE
:1027C000002205213920FFF755F93920FFF744F998
:1027D000002205214520FFF74DF9BDE808404520BE
:1027E000FFF73AB93038024010B59CB01C221649A8
:1027F0006846FDF767FE0021684601F09AFE134C1B
:1028000011491C2220601C3107A8FDF75BFE002146
:1028100007A801F08EFE0C4960601C2238310EA81A
:10282000FDF750FE00210EA801F083FE0649A060CE
:102830001C22543115A8FDF745FE002115A801F012
:1028400078FEE0601CB010BD645B0008040000204E
:102850002DE9F04387B014216846FDF765FE354841
:102860000024016841F040010160016801F040016D
:102870000591016841F001010160016801F0010169
:102880000591016841F008010160016801F008014B
:102890000591016841F080010160016801F080014B
:1028A0000591016841F020010160016801F02001FB
:1028B0000591016841F010010160016801F010010B
:1028C0000591016841F0020101600068DFF868804D
:1028D00000F002004FF400670590002239464046A0
:1028E000FFF750F8DFF85490FE00002231464846CA
:1028F000FFF748F8402000900225CDE9015403205D
:10290000CDE9034069464846FEF722FF0124CDE9A0
:10291000007469464046CDE90245FEF719FFCDE94E
:10292000006469464846CDE90245FEF711FF07B04D
:10293000BDE8F0833038024000100240001402402D
:102940000C4810B50A4901604FF4E13141600021A3
:1029500081600C22C160C0E904128161C161FFF78E
:10296000DFFC002803D0BDE81040FEF748B810BDDA
:1029700000480040880500200C4810B50A49016055
:102980004FF4E1314160002181600C22C160C0E957
:1029900004128161C161FFF7C3FC002803D0BDE8C8
:1029A0001040FEF72CB810BD00140140CC050020EB
:1029B000FEE7FEE7012001F0B0FDFBE710B5FEF7F2
:1029C000EDFF02F063FB012803D0BDE8104002F0E8
:1029D000EFBA10BD30B593B030216846FDF7A4FDC5
:1029E00014210CA8FDF7A0FD1D480025016841F049
:1029F00080510160006800F0805011901948016812
:102A000041F4404101600068022400F4404011900C
:102A100001200090000401908001CDE906400620CD
:102A20000890A820CDE9090404200B906846FFF720
:102A30003FF908B172B6FEE70CA90F2081E831001A
:102A40004FF4A0500F904FF48050109005210CA827
:102A5000FFF742F8002801D072B6FEE713B030BD90
:102A600040380240007000400248016841F47001A3
:102A70000160704788ED00E010B5806B0021C185D2
:102A8000C184FFF718FB10BD70B5846B20684069E6
:102A900094F83D10C0F3C0100025212904D118B1CD
:102AA000E584204600F08AF82068406994F83E10DA
:102AB000C0F38010222904D118B1E585204600F02A
:102AC00056F8206C40F0100020642046FFF7F3FA1F
:102AD00070BD10B50146806B09680968C9052FD41F
:102AE0000021C18501680C3151E8002F22F4807269
:102AF00041E80023002BF5D10168143151E8002F83
:102B000022F0010241E80023002BF5D101681431C5
:102B100051E8002F22F0400241E80023002BF5D1BC
:102B2000202180F83E10016B012909D101680C3188
:102B300051E8002F22F0100241E80023002BF5D1CC
:102B4000016B012902D0FFF7FEFC10BD818DFFF75C
:102B500079FA10BD10B5806B016B012902D0FFF727
:102B6000F3FC10BD818D4908FFF76CFA10BD0168B8
:102B70000C3151E8002F22F4907241E80023002B21
:102B8000F5D10168143151E8002F22F0010241E82B
:102B90000023002BF5D1016B012909D101680C310B
:102BA00051E8002F22F0100241E80023002BF5D15C
:102BB000202180F83E1000210163704701680C312C
:102BC00051E8002F22F0C00241E80023002BF5D18C
:102BD000202180F83D10704708B590F83E1022295A
:102BE00001D0022008BD82684FF480539A4201D17F
:102BF000016921B1816A9A421BD04AB10AE0026898
:102C0000816A5268C2F308020A80816A891C08E05E
:102C1000026972B10268526802F07F020A70816A2A
:102C2000491C8162C18D491E0904090CC18503D06C
:102C300019E002685268F1E70168CA6822F02002D0
:102C4000CA600168CA6822F48072CA6001684A6971
:102C500022F001024A61202180F83E10016B012917
:102C600003D0FFF770FC002008BD0021016301685C
:102C70000C3151E8002F22F0100241E80023002B14
:102C8000F5D101680A68D20602D50A684968009140
:102C9000818DFFF7D7F9E6E770B504460068016952
:102CA000E26821F44051114301612169A068E269A1
:102CB00008436169114308432168CA6849F20C63FB
:102CC0009A430243CA6020684169A26921F44071B5
:102CD0001143416131492068884202D0304988421D
:102CE00002D1FEF7A3FF01E0FEF790FFE2690023A7
:102CF000192164253226B2F5004F626828D0A0FB66
:102D00000101930F9200FDF721FB0146B0FBF5F0A6
:102D10006FF01802504301EB800006EB0010B0FB8F
:102D2000F5F000F0F002B1FBF5F002EB0012B1FBA0
:102D3000F5F06FF01803584301EB800006EB00102C
:102D4000B0FBF5F000F00F0021681044886070BD02
:102D5000A0FB010192185B41FDF7F8FA0146B0FBB8
:102D6000F5F00201B1FBF5F06FF01803584301EBE9
:102D7000800006EBC000B0FBF5F000F0F80002EBBD
:102D80004002B1FBF5F0584301EB800006EBC000B8
:102D9000B0FBF5F000F00700D6E70000001001409E
:102DA0000014014038B5816282850025134604462F
:102DB0000564222084F83E00A26B1C48D063A26BFD
:102DC0001B481064A26B1B48D064A06B0A460565C3
:102DD0002168A06B091DFEF783FC2068016840682C
:102DE000009084F83C50206948B120680C3050E8CD
:102DF000001F41F4807140E80012002AF5D12068DC
:102E0000143050E8001F41F0010140E80012002A90
:102E1000F5D12068143050E8001F41F0400140E82F
:102E20000012002AF5D1002038BD0000D32A000886
:102E3000552B0008892A000810B50448FDF7CEFD7F
:102E4000BDE810400148FFF737B9000088050020B1
:102E50000E4908B5062048700D4801680A684A689E
:102E60000092CA6842F01002CA6001684A6942F0E2
:102E700040024A61C82100910168064B806BA3F1B2
:102E8000C802091DFDF736FC08BD00000401002042
:102E900088050020F046002038B50E4C0620606002
:102EA0000D4800680168C1F3001169B1016840680C
:102EB00000900948FFF7C7F8084800684068C0F16B
:102EC0006400207001206070BDE838400248FFF7C0
:102ED000F3B8000018000020CC050020D006002028
:102EE000FEE7000030B50C46050014D0022C12D9C4
:102EF0000A48A11E02882846FDF784FD2919C2B29E
:102F000011F8023C9A4206D111F8011CB1EB102FC6
:102F100001D1012030BD002030BD0000980000200C
:102F200030B50C4605000CD0022C0AD9FF22611ED8
:102F3000FDF77EFD291911F8011C814201D1012004
:102F400030BD002030BD000038B50D4CB4F936005E
:102F500000EE100A0B48F8EEC00A90ED040A0A4889
:102F600001F012FBBDEEC00A10EE100A01B2002003
:102F70006186034602460090012001F0C1FD38BD84
:102F80002401002008010020480200202DE9F04122
:102F9000504900232DED048B01264FF07E57B1F9E7
:102FA0000000DFF834C14D4D9FED4D1A4D4CA26825
:102FB000D4ED010A94ED030A38B100F1050EBEF11B
:102FC0000A0F51D8012A46D048E04748B0F900001E
:102FD00000F1310163292AD2012A02D184ED070AC6
:102FE000A360D4ED071A414930EE610A10EE100AD1
:102FF00084ED080ADFED3E1A884202D930EE210A3C
:1030000006E010EE100A3B49884203DD30EE610A0B
:1030100084ED080A10EE100AB84203DC10EE100A24
:1030200060451ED920EE200A85ED040A48E000F232
:103030009321B1F5A56F43D202F06BFB9FED2E1BE0
:1030400053EC112B02F0DEF99FED2D1B41EC100B20
:1030500053EC112B1BE084ED070AA360D4ED071A93
:10306000D4E785ED041A2BE000F580429FED269B06
:103070009FED278BB2F5004F11D802F04AFB53ECBD
:10308000192B02F071FB53EC182B41EC100B51EC97
:10309000100B02F069FB02F0DBF828610FE04FF43F
:1030A0008042904203DD0A809FED1B0A05E01B4A27
:1030B000904205DA0A809FED1A0A85ED040AA6609F
:1030C000FFF742FFBDEC048B0120BDE8F04101F0A9
:1030D00024BA0000BE000020000080BF08010020CC
:1030E00000000000CC0000209C450020000034C3FC
:1030F0000000B443000034430000000000A084C07E
:10310000000000000000594000000000000010BF57
:10311000000000000088B34000409CC500C0FFFFD5
:1031200000409C4503B401984100009850EAC1203A
:1031300018BF04204A0D18BF40F0010040F2FF7292
:10314000B2EB515F08BF40F00200012808BF052024
:1031500002B070470907090E002804DB00F1E020E7
:1031600080F80014704700F00F0000F1E02080F8B4
:10317000141D70470000000010B52F499FED2C1B57
:103180002DED020B84B0059820F000408842D8BF96
:103190009DED040B2DDD2949884209D1049840B9E1
:1031A0004FF00100FDF7EFF900F0A2FC06B010BDF2
:1031B00005DB9DED040B00F08FFC06B010BD6846EA
:1031C0009DED040B00F0A0F810F0030004BF9DED8E
:1031D000021B9DED000B0CD001280ED09DED021BB3
:1031E0009DED000B022817D0012000F0DDFB06B09A
:1031F00010BD00F0A5FA06B010BD9DED021B9DEDBF
:10320000000B012000F0D0FB51EC100B02F014F881
:1032100006B041EC100B10BD00F092FA51EC100B0F
:1032200002F00AF806B041EC100B10BD00000000DF
:103230000000000000000000FB21E93F0000F07FDB
:1032400010B52F499FED2C1B2DED020B84B0059876
:1032500020F000408842DCBF00209DED040B32DDF1
:103260002849884209D1049840B94FF00100FDF780
:103270008AF900F03DFC06B010BD05DB9DED040BA6
:1032800000F02AFC06B010BD68469DED040B00F06E
:103290003BF810F0030011D0012818D09DED021B5F
:1032A0009DED000B02281AD000F04AFA51EC100BE9
:1032B00001F0C2FF06B041EC100B10BD9DED021BEA
:1032C0009DED000B012000F06FFB06B010BD9DEDE1
:1032D000021B9DED000B00F033FA06B010BD01207B
:1032E00000F062FB51EC100B01F0A6FF06B041ECC0
:1032F000100B10BD000000000000000000000000E6
:10330000FB21E93F0000F07F2DE9F14F04462DED50
:10331000020B2DED088B8AB09FEDE70B80ED020BC1
:10332000139EE74826F0004585420ADC9DED120B0E
:10333000002084ED000B0AB0BDEC088B03B0BDE8A3
:10334000F08FE0489FEDE0AB9FEDE1BBA84247DD89
:10335000E14F9FEDE39B9FEDE48B9DED120B53EC52
:103360001A2B51EC100B002E1CDD02F007FB41EC78
:10337000100BBD4208D053EC1B2B51EC100B02F08C
:10338000FDFAC4E900010BE053EC192B51EC100BD2
:1033900002F0F4FA53EC182B02F0F0FAC4E9000141
:1033A0000120C8E701F086FF41EC100BBD4208D0B8
:1033B00053EC1B2B51EC100B01F07CFFC4E9000116
:1033C0000BE053EC192B51EC100B01F073FF53EC95
:1033D000182B01F06FFFC4E900014FF0FF30AAE79E
:1033E000C348A84279DB9DED120B51EC100B00F0A5
:1033F000DBFF41EC180B9FEDC00B53EC102B02F0E0
:10340000B3F99FEDBF1B53EC112B01F053FF02F0FA
:1034100051F9074602F07DF941EC190B53EC1A2BD8
:1034200002F0A2F953EC182B02F09CFA41EC180BB5
:1034300053EC1B2B51EC190B02F096F9DFF8C8A2E4
:1034400041EC100B4FEA15580125FA4453EC102BB0
:1034500051EC180B02F092FA032DC4E900013DD0A3
:10346000C1F30A5005EB4511A8EB00001139814268
:1034700034DA0AEB051BB0EE48AA9BED000BF0EE28
:1034800068AA53EC102B51EC190B02F06DF941ECCA
:103490001B0B51EC1A0B53EC1B2B02F06FFA41EC97
:1034A000180B51EC1A0B53EC182B02F067FA53EC83
:1034B0001B2B02F063FA9BED020B41EC1A0B53EC51
:1034C000102B51EC190B02F04FF953EC1A2B02F0B0
:1034D00055FA41EC100B6D1CB8E70EE0002EA8BFAA
:1034E0003846BFF628AF94ED000B51EC100B01F0FD
:1034F000A3FEC4E9000178421DE7C6F3130040F4BF
:10350000801EC6F30A50A0F2F530471100F01F05E7
:10351000C5F12000DDF848B0089000200690079023
:103520000520EC467949002D07EB0002794408BFDD
:1035300051F8221009D051F8223001EB8201AB4042
:103540004A68089922FA01F11943A1FB0E26A1FB52
:103550000B131A449A4234BF0123002303EB0608DD
:103560000CEB8003D3E901A60E448E4234BF012147
:10357000002192448A4411B1924502D903E0924558
:1035800001D2012100E00021C3E901A641444CF829
:103590002010011EA0F10100C4DC029800F10050CF
:1035A000850F0298DDE903678000DDF8148002F0E2
:1035B000B0F841EC1A0B304602F0C2F89FED541BF4
:1035C00053EC112B02F0D0F841EC1B0B384602F003
:1035D000B7F89FED511B53EC112B02F0C5F841ECED
:1035E000180B404602F0ACF89FED4D1B53EC112B2D
:1035F00002F0BAF841EC190B51EC180B53EC192BF3
:1036000001F058FE53EC1B2B01F054FE53EC1A2B27
:1036100001F050FECDE90801002008909DED080B57
:1036200053EC1A2B51EC100B02F0A8F953EC1B2BA6
:1036300002F0A4F953EC182B02F0A0F953EC192B6B
:1036400002F090F99FED381B53EC112B02F08CF82F
:103650009FED370B41EC180B53EC102B9DED080B35
:1036600051EC100B02F080F853EC182B01F022FE05
:103670009FED310B41EC180B53EC102B9DED080B1B
:1036800051EC100B02F070F853EC182B01F012FE05
:1036900041EC100B139810F0004F06D06D4251EC26
:1036A000100B01F0C9FD41EC100B284684ED000B16
:1036B00041E60000000000000000000000000000E3
:1036C000FB21E93F7CD9024000004054FB21F93F37
:1036D0003163621A61B4D03DFB21F93F0000000064
:1036E0000000601A61B4D03D7370032E8A19A33BA9
:1036F000FB2139410000000083C8C96D305FE43F01
:10370000000000000000E03FDA2A0000282A000044
:10371000000000000000103E000000000000103C0F
:10372000000000000000103A182D4454FB21F93D20
:103730003326A611460B113C00000054FB21F93D35
:1037400010B52DED040B2DED088B82B0B0EE419A33
:10375000F0EE619A0B9820F000449FED4BABB4F172
:10376000795F11DA9DED0A0B51EC100B01F0A2FF0D
:10377000002801BFB0EE4A0AF0EE6A0A02B0BDECC2
:10378000088B04BF04B010BD9DED0A0B53EC102B49
:1037900051EC100B01F0E8FF41EC180B3C480621FE
:1037A000B0EE480AF0EE680A784400F081F853EC75
:1037B000182B51EC100B01F0D7FF9DED0A0B41ECDB
:1037C0001B0B53EC192B51EC100B01F0CDFF41EC0E
:1037D000190B53EC1B2B51EC180B01F0C5FF53ECEC
:1037E000192B02F0CBF89FED2C0B41EC190B53EC8D
:1037F000102B51EC180B01F0B7FF41EC100B2848CF
:10380000844210DA53EC192B51EC100B02F0B6F88D
:1038100053EC1A2B02F0A6F841EC100B02B0BDECF1
:10382000088B04B010BD1F48A042BCBF9FED1E1BFB
:103830008DED001B06DBA4F5001001900020009028
:103840009DED001B51EC100B53EC112B02F096F880
:103850009DED000B41EC180B53EC102B51EC1A0BA7
:1038600002F08CF841EC1A0B53EC192B51EC180BAD
:1038700002F084F853EC1A2B02F074F841EC100BB0
:10388000CCE7000000000000000000000000F03F56
:103890004C27000000000000000000000000E03F96
:1038A0003333D33F0000E93F000000000000D23F67
:1038B00070B504462DED028B4D1E00EBC500B0EE39
:1038C000408AF0EE608A90ED000B35F0060017D0CC
:1038D00053EC182B51EC100B01F046FF41EC100B90
:1038E0006D1E04EBC50090ED001B51EC100B53EC6A
:1038F000112B01F0DFFC41EC100B35F00600E7D195
:10390000022D36D0042D1CD0062D1CBFBDEC028B21
:1039100070BD53EC182B51EC100B01F025FF94ED0A
:103920000A1B53EC112B01F0C5FC53EC182B01F0D2
:103930001BFF94ED081B53EC112B01F0BBFC41EC79
:10394000100B53EC182B51EC100B01F00DFF94ED04
:10395000061B53EC112B01F0ADFC53EC182B01F0BE
:1039600003FF94ED040B53EC102B01F0A3FC41EC8E
:10397000100B53EC182B51EC100B01F0F5FE94EDED
:10398000021B53EC112B01F095FC53EC182B01F0AA
:10399000EBFE94ED001B53EC112B01F08BFCBDEC06
:1039A000028B41EC100B70BD31B504462DED040BBC
:1039B0002DED0A8BB0EE41BAF0EE61BA0B989DED99
:1039C0000A0B20F00040B0F1795F0DDA51EC100BDA
:1039D000FFF7A8FB042808BF00F09AF89DED0A0B3A
:1039E000BDEC0A8B05B030BD53EC102B51EC100B25
:1039F00001F0BAFE41EC180B9DED0A0B53EC182BAD
:103A000051EC100B01F0B0FE41EC190B2C48B0EE5C
:103A1000480AF0EE680A05217844FFF749FF9FED58
:103A20002ACBB0EE40AAF0EE60AA9CB353EC1C2B5C
:103A300051EC190B01F098FE41EC1C0B53EC1A2BC6
:103A400051EC190B01F090FE9FED210B41EC190B8D
:103A500053EC102B51EC1B0B01F086FE53EC192B91
:103A600001F08CFF53EC182B01F07EFE53EC1B2B66
:103A700001F084FF53EC1C2B01F080FF9DED0A1B2D
:103A800053EC112B01F06EFFBDEC0A8B05B041EC3D
:103A9000100B30BDFFE753EC1A2B51EC180B01F063
:103AA00063FE53EC1C2B01F005FC53EC192B01F0C9
:103AB0005BFE9DED0A1B53EC112B01F0FBFBE3E7D2
:103AC000D425000000000000495555555555C5BF87
:103AD000000000000000E03F10B553EC102B51EC4B
:103AE000100B01F0E7FB41EC100B10BD00000000D3
:103AF0009FED050B10B553EC102B51EC100B01F0A2
:103B000081FC41EC100B10BD000000000000000023
:103B10009FED050B10B553EC102B51EC100B01F081
:103B200023FE41EC100B10BD00000000000000104F
:103B30001D48B0F90210B0F904201144B0F9062074
:103B4000114400EE101A1949B8EEC00A81ED020ABC
:103B5000B0F90220B0F90430D21AB0F906301A4494
:103B600000EE102AB8EEC00A81ED030AB0F9042075
:103B7000B0F902301A44B0F906309A1A00EE102A51
:103B8000B8EEC00A81ED000AB0F90420B0F90230A5
:103B9000B0F90600D21A104400EE100AB8EEC00ABE
:103BA00081ED010A70470000F000002008010020AC
:103BB000094808B5B0F926100091B0F91A30B0F9EB
:103BC0000E20B0F90210002000F06AFFBDE80840A6
:103BD000012000F0A2BC000024010020B0F8010088
:103BE000014940BA488070479A0000202DE9F04111
:103BF0002648284BD0ED000A2548B0F9000000EE19
:103C0000100AB8EEC00A30EEC00ABDEEC00A10EECF
:103C1000100A18802048B0F90000323064280CD80F
:103C200000F0A8FBB3F90000411D0B2903D3C0EB42
:103C30000010400000E00020D880FFF779FF174E09
:103C4000174FDFF86080002404EB440006EB80058A
:103C5000B5F9060000EE100A07EB8400F8EEC00A82
:103C600090ED000A04EB840000EBC40108EB810036
:103C700000F08AFCBDEEC00A641CE4B210EE100A2B
:103C8000042C6880E0D3BDE8F0810000D80000205B
:103C90009C000020F00000209C4500202401002012
:103CA00008010020780100202DE9F0419448954951
:103CB000954D2DED068B0088098850EA01029FED95
:103CC00093AB9FED949B4FF4FA66944CC6F10007BA
:103CD00001D0C0B914E0B5F9080000F1320165293E
:103CE00011D3404201F015FD53EC1A2B01F08AFB71
:103CF00053EC192B01F038FD01F0DCFCE08003E00F
:103D000009B1E78000E0E6808548D0ED000A8548EB
:103D1000B0F9000000EE100AB8EEC00A30EEC00A9A
:103D2000BDEEC00A10EE100A00B200EE100AB8EEA6
:103D3000C00ADFED7D0A80EE201ABDEEC10A10EE4A
:103D4000100A00B2208001F0E4FC41EC100BFFF7F8
:103D500013FA51EC100B01F07BFA2061B4F900006A
:103D600001F0D7FC41EC100BFFF76AFA51EC100B95
:103D700001F06EFA08EE100A6D4A84ED038A6B4872
:103D800013886C4A0188128841EA030040EA020C59
:103D9000694800885CEA000C03D00025E9B3A680DE
:103DA0004BE0B5F9060001F0B4FC53EC1A2B01F01E
:103DB00029FB53EC192B01F0D7FC01F07BFCA08010
:103DC000B5F9040001F0A5FC53EC1A2B01F01AFB25
:103DD00053EC192B01F0C8FC01F06CFC6080B4F9C5
:103DE00002102181B4F9042000EE101A6281D4ED92
:103DF000040AB8EEC00A20EE201A00EE102AB8EE2F
:103E0000C00A00EE481ABDEEC10A10EE100A60802A
:103E100000EE101AB8EEC00A00E00AE020EE081A20
:103E200000EE102AB8EEC00A00EE201ABDEEC10A5C
:103E300033E00BB1A78000E0A5800AB1678003E002
:103E400008B1668000E06580B4F902102181B4F900
:103E50000400608100EE100AB8EEC00A60EE080AA5
:103E600000EE101AB8EEC01A94ED040A41EE400AB2
:103E7000FDEEE00A10EE902A628000EE901AF8EE55
:103E8000E00A20EE881A00EE900AF8EEE00A00EE52
:103E9000801AB1EE410ABDEEC00A10EE100AA080F1
:103EA000FFF746FE254E264FDFF89880002400BF1E
:103EB00004EB440006EB8005B5F9060000EE100A9D
:103EC00007EB8400F8EEC00A90ED000A04EB8400D2
:103ED00000EBC40108EB810000F056FBBDEEC00A08
:103EE000641CE4B210EE100A042C6880E0D300F0E9
:103EF0003DF9BDEC068BBDE8F041FFF759BE00006F
:103F0000A6000020A80000209C4500200000000022
:103F100000A08440000000000040BF40F0000020EE
:103F2000D80000209C000020333365429E00002012
:103F3000A0000020A2000020A400002024010020F6
:103F400008010020780100202DE9F04778497748E2
:103F50007C4C7D4EDFF8F4A14FF000052DED048B75
:103F60000F88744902880B88734942EA0700184396
:103F7000B1F8008040EA08017048B0F800C070480D
:103F800051EA0C01008800D140B140F2DC59C9F17E
:103F90000001002A7ED0A4F8049083E06C490A4610
:103FA000B1F90470B2F9060007F13203B2F90880E2
:103FB000642B43D800F13202642A3FD8B8F1320FA3
:103FC0003CDC894618F1320F38DBA5806580E5803E
:103FD00000244FF4347800BF04EB440006EB800764
:103FE000B7F9060000F5B471414513D900EE100A87
:103FF00004EB840000EBC401B8EEC00A0AEB8100B8
:10400000DFED540A00F0C0FABDEEC00A10EE100A4F
:10401000788000E07D8000F0A9F8FFF7C9FD641CFE
:10402000042CD9DBB9F900003130632801D2FFF745
:10403000DDFD00F09BF8FFF7BBFD42E001F069FBFE
:104040009FED458B53EC182B01F0DCF99FED449B61
:1040500053EC192B01F088FB01F02CFBA0803846B3
:1040600001F057FB53EC182B01F0CCF953EC192B52
:1040700001F07AFB01F01EFB6080C8F1000001F046
:1040800048FB53EC182B01F0BDF953EC192B01F050
:104090006BFB00E002E001F00DFB45E00FB1A180F9
:1040A00000E0A580B8F1000F01D0494600E00BB157
:1040B000618000E06580BCF1400F30D0802831D0B5
:1040C000E580FFF735FDDFF8A0800024554600BFEE
:1040D00004EB440006EB8007B7F9060000EE100A77
:1040E00008EB8400F8EEC00A90ED000A04EB8400AF
:1040F00000EBC40005EB800000F046FABDEEC00AFC
:10410000641CE4B210EE100A042C7880E0D300F0B6
:104110002DF8BDEC048BBDE8F047FFF749BD4FF427
:10412000FA6001E04FF63000E080CAE79E00002010
:10413000A0000020A2000020A4000020A600002073
:10414000A8000020F00000202401002078010020B9
:104150009C450020000000000000000000A08440FA
:10416000000000000040BF40080100202F489FEDE4
:10417000300AD0ED011A90ED021A407880B111EEAC
:10418000100A2C49DFED2C0A884211DA11EE100AD0
:104190002A49884207DD9FED2A2AC1EE021A04E06F
:1041A000DFED280A20E0DFED281A61EEA00A1BE00F
:1041B00011EE900A2549884214DD11EE900A244937
:1041C000884208DA9FED231A9FED232A71EE611AC7
:1041D00081EE821A01E0B0EE401ADFED201A41EEC6
:1041E000210A01E0DFED1E0A1E49002000EB8002DB
:1041F00002EBC00201EB8202401C92ED0C1AC0B22D
:104200000428B0EEC11A31EE000AEFD3B4EEE00A92
:10421000F1EE10FA09DD80EE801A81ED0C1A81EDC5
:10422000191A81ED261A81ED331A704720450020B6
:10423000000000000000484200007A460000A04054
:104240000000484200007A47CDCCCC3D000020421F
:104250000000A0420000A0420000204200409C4616
:1042600000A00C47780100202DED028B0024144D96
:104270009FED148ADFED148A04EB8400F0EE481AF7
:10428000F0EE680A00EBC40005EB8000B0EE612A96
:10429000B0EE601AB2EE040A00F0D4F9641CE4B285
:1042A000042CE9D3094CA07A022805D0FFF74CFE74
:1042B000012000F032F9F6E7FFF7F6FCF8E700001E
:1042C0007801002000803B45000000009C45002054
:1042D0000E4900200E4C4880C8814883C8840D4E8A
:1042E000DFF8349048864FF4967701254FF48068C4
:1042F000B4F90600B84205DD357001224146484652
:10430000FDF740FB012000F008F9F1E7240100204F
:104310009C45002000000020001C02400749896BDA
:10432000814209D10068016841F40021016004481C
:1043300001780448FEF70CB970470000880500209A
:1043400004010020284600200749896B814209D1D9
:104350000068016821F400210160044801780448E4
:10436000FEF7F6B870470000880500200401002021
:10437000F04600200B49B1F9000000F10902132AB0
:1043800001D2002005E0002805DDB42802DDA0F5FB
:10439000B47008807047FDDA10F1B40FFADA00F556
:1043A000B470F6E7F000002082B0CDE9000121F002
:1043B000004001909DED000B02B051EC100B7047D6
:1043C0000F4B10B51878012819D10E4A10787328B0
:1043D00002D11046FFF702FC0021197008460A4B73
:1043E00002E01154401CC0B21C78A042F9D31970ED
:1043F000BDE81040642203490448FEF78FB810BDA1
:10440000190000203845002018000020CC050020AD
:10441000DFED271ADFED270A08B5B0EE612AB0EE0E
:10442000601A9FED250A254800F00CF92448006821
:10443000016841680091C16841F01001C1606422C7
:1044400020491F48FEF76AF81F4D204E204F214C8F
:10445000DFF8848095ED0D0A84ED030A95ED0E0AD0
:1044600084ED040A95ED0F0A84ED050AFFF7A8FF15
:10447000F07A012806D194ED030AB5EEC00AF1EEF8
:1044800010FA01D1387868B12078D4ED060A00EE30
:10449000100AB8EE400A20EE800A88ED040AFEF702
:1044A00053FD01E0FEF772FD012000F036F8D1E780
:1044B0000060EA4600000000000048434802002077
:1044C000CC05002038450020D84500209C45002020
:1044D000C8000020CC00002008010020FDF766FA8B
:1044E000FEF778FAFEF7B4F9FEF748F9FEF702F99D
:1044F000FEF722F9FEF724FAFEF73EFAFEF7A8FCD3
:10450000FCF79EF8FEF770F900F00EF8FEE70146A2
:104510000020842900D0C81C704710B500B90120C4
:1045200000F03AFC002010BD10B500F05BFC00204C
:1045300010BD7FB50D4604464169B0F9080081B150
:10454000A16971B1FFF7E3FFD4E905128DE8070017
:10455000D4E900102B46226900F06DFD039004B0F1
:1045600070BDFFF7D4FF03A9CDE90001208A2B46D7
:1045700082B2D4E9001000F031FD012801D0002002
:10458000EDE70398EBE7000080ED050AC0ED060AB1
:1045900030EE601AD0ED071AB4EE600AC0ED081ACA
:1045A000F1EE10FA80ED071A02D19FED250A70474F
:1045B00090ED000A20EE012A80ED092A90ED0A0A0A
:1045C000D0ED010A00EE810A71EE610A80ED0A0A5F
:1045D00090ED021A60EE811AC0ED0B1AD0ED030ABD
:1045E000B1EE601AB4EEC10AF1EE10FA02D8B0EEE4
:1045F000410A06E0B4EEE00AF1EE10FA01DBB0EE9B
:10460000600A80ED0A0A32EE000A30EE210A80EDDF
:104610000C0AD0ED040AB1EE601AB4EEC10AF1EE54
:1046200010FA02D8B0EE410A06E0B4EEE00AF1EE6C
:1046300010FA01DBB0EE600A80ED0C0A7047000052
:104640000000000080EC050A704700002DE9F041F1
:10465000184C0F460546E6682068001D00F0D4FAA5
:1046600038B9206890F82C100120884021698143D6
:104670002161681C07D137B12168BDE8F0410E48BF
:10468000091D00F005BB20683544B542456021682E
:1046900005D2A06BBDE8F041091D00F0E1BA606BE6
:1046A000091D00F0DDFAA06A854200D2A562BDE8CE
:1046B000F0810000300000206C0800202DE9F0415E
:1046C000054600F0F1FA2E4CA068401CA06020685E
:1046D0002C4F10B1606940B32DE02560A06801281F
:1046E00029D1002606EB860007EB800000F0AAFA2D
:1046F000761C072EF6D323488C3000F0A3FA21480D
:10470000A03000F09FFA1F48B43000F09BFA1D481B
:10471000C83000F097FA1B48DC3000F093FA1948D3
:104720008C3060631430A06305E02068E96AC06AD9
:10473000884200D82560606A401C6062E96A0120F6
:10474000226988401043206101EB810007EB800063
:10475000291D00F09DFA00F0C7FA606900280CD00E
:104760002068E96AC06A884207D207494FF0805042
:104770000860BFF34F8FBFF36F8FBDE8F08100007B
:10478000300000209007002004ED00E010B5044642
:1047900090F8510058B101280CD002280FD05020B9
:1047A00080F31188BFF34F8FBFF36F8FFEE7206B4D
:1047B00000F0AEFA2046BDE8104000F0A9BA10BDE6
:1047C00010484FF47051420706D0C01D0D4920F02B
:1047D0000700411AC1F570510B4A00230144C2E998
:1047E00000030839183A21F0070111604B600B6093
:1047F0000B1AC0E9001393604FF000405360506102
:10480000704700008008002084000020144E154CE2
:10481000A6F1C8074FF08058DFF84C9012E000BFB7
:1048200000F042FAF068C568281D00F0EDF9A068B4
:10483000401EA0606068401E606000F055FA284687
:10484000FFF7A4FF60680028EAD138680128F9D989
:10485000C9F80080BFF34F8FBFF36F8FF2E70000FE
:10486000580800203000002004ED00E02DE9F0475A
:104870009A46DDE9098481466FF00303206B03EB60
:1048800082021044089E20F00707780707D05020C6
:1048900080F31188BFF34F8FBFF36F8FFEE70025C2
:1048A00061B1002023180A5C83F834200A5C12B13D
:1048B000401C1028F6D384F8435001E084F83450AB
:1048C000072E00D30626E662C4E91165201D00F01C
:1048D000C4F904F1180000F0C0F92461C6F1070022
:1048E0006462A061E56484F85050524649463846F7
:1048F00000F0C0F82060B8F1000F01D0C8F8004007
:10490000BDE8F08730B5114900E011460A688242DF
:10491000FBD34B685C18844203D14068184448605C
:10492000084643681C18944209D1084C183C246876
:10493000A24209D052681A4442600A6812680260B2
:10494000814200D0086030BD0460F9E78400002097
:104950000648416B096829B1416BC968C968496853
:10496000816270474FF0FF31FAE70000300000200D
:1049700008484068401C4FF0500080F3118804D074
:10498000BFF34F8FBFF36F8FFEE7BFF34F8FBFF3C0
:104990006F8FFEE78C0000202DE9F04105460027CF
:1049A00000F056FA324E306808B9FFF709FF706917
:1049B00005424ED1C5B3083568070ED005F0070093
:1049C000C0F108000544680707D0502080F3118823
:1049D000BFF34F8FBFF36F8FFEE72DB37068854233
:1049E00037D82348183001460C6801E020460C46B1
:1049F0006168A94202D221680029F7D131688C424E
:104A000027D007682168016060680837411B1029BA
:104A10000FD96019420708D0502080F31188BFF3E6
:104A20004F8FBFF36F8FFEE713E041606560FFF7C4
:104A300069FF61687068401A7060B268904200D285
:104A4000B060706901430020C4E90001F068401CB7
:104A5000F06000F08FFB780707D0502080F31188BA
:104A6000BFF34F8FBFF36F8FFEE73846BDE8F0818D
:104A70006C00002010B5031F4FF080741C601B1FDA
:104A800021F001011960191F044B0B6014390A60F1
:104A9000091F6FF0020244380A6010BD7149000816
:104AA00010B588B00A9C30B340F2FF10029000208D
:104AB0000490059008200690080A8DF800008DF8F3
:104AC0000110100A8DF80200180A8DF804008DF804
:104AD0000530200A8DF806008DF803208DF8074078
:104AE00001236A4602A90548FBF7C2FF0120FFF730
:104AF00014FD08B010BD4FF40070D7E7600500202A
:104B000010B588B00A9C30B340F2FF20029000201C
:104B10000490059008200690080A8DF800008DF892
:104B20000110100A8DF80200180A8DF804008DF8A3
:104B30000530200A8DF806008DF803208DF8074017
:104B400001236A4602A90548FBF792FF0120FFF7FF
:104B5000E4FC08B010BD40F2FF10D7E7600500206C
:104B600038B50446006801684068009010488442E7
:104B70001DD1A06B0068016821F001010160A06BEC
:104B800001684A680B4BC2F1C8021A700968090330
:104B900001D5416C00E0C16B8847A16BC820096852
:104BA0004860A06B0068016841F00101016038BDF8
:104BB0008805002004010020124800F1A00190F8AF
:104BC00049204A7010F84A2F0A70D0F81E2000EED3
:104BD000102A81ED010A428C00EE102AB8EE400A3C
:104BE00081ED020A828B00EE102AB8EE400A81EDB8
:104BF000040A808C00EE100AB8EE400A81ED050A26
:104C00007047000080440020D0E9013201699A60B9
:104C1000D0E901235A604A68824201D182684A6021
:104C2000002202610868401E0860086870470000A2
:104C3000034B036003F1540008608020106070474C
:104C4000E402002000F108014FF0FF32C0E9011238
:104C5000C16001610021016070470021016170475E
:104C600030B50B685A1C02D000F1080202E002695C
:104C700004E02246546825689D42FAD953684B6087
:104C800099608A60516008610168491C016030BD0B
:104C900042684A6093688B609368596091600861CC
:104CA0000168491C01607047502080F31188BFF3F0
:104CB0004F8FBFF36F8F0A494868401C4860012836
:104CC0000CD10848006810F0FF0F07D0502080F387
:104CD0001188BFF34F8FBFF36F8FFEE7704700005F
:104CE0008C00002004ED00E00849486828B1401E0F
:104CF000486001D180F311887047502080F31188FB
:104D0000BFF34F8FBFF36F8FFEE700008C000020D2
:104D100070B500282AD0164DA0F1080460686969B2
:104D2000084207D1502080F31188BFF34F8FBFF3A3
:104D30006F8FFEE722683AB1502080F31188BFF3ED
:104D40004F8FBFF36F8FFEE78843606000F080F8FD
:104D500060686968084468602046FFF7D3FD2869E9
:104D6000401C2861BDE8704000F004BA70BD00002E
:104D70006C0000204FF0E0200021016181610549B5
:104D80004FF47A720968B1FBF2F1491E41610721C3
:104D9000016170472C00002010B5020014D00F48AC
:104DA000006B38B1502080F31188BFF34F8FBFF3F1
:104DB0006F8FFEE700F04CF800211046FFF746FC2D
:104DC00000F0D8F9002807D105494FF0805008605D
:104DD000BFF34F8FBFF36F8F10BD00003000002076
:104DE00004ED00E010B586B00024039405AA04A9E0
:104DF00003A80494FFF71CFFDDE903010094CDE94B
:104E0000011000230EA11048059A00F014F90F4973
:104E10000028C86211D0502080F31188BFF34F8F53
:104E2000BFF36F8F4FF0FF30886201204861CC6084
:104E300006B0BDE8104000F041B806B010BD00005B
:104E400049444C45000000000D4800083000002097
:104E50000248016B491C01637047000030000020CC
:104E60001448016B11B10121C16170470021C1617A
:104E70000169B1FA81F1C1F11F0101EB81020E4913
:104E800051F822306BB101EB820101F108034A684D
:104E900052684A609A4201D152684A60D168016002
:104EA0007047502080F31188BFF34F8FBFF36F8F8F
:104EB000FEE7000030000020900700201CB53748B6
:104EC0000168374A914207D1502080F31188BFF31F
:104ED0004F8FBFF36F8FFEE700683149491E88424C
:104EE00007D1502080F31188BFF34F8FBFF36F8F2E
:104EF000FEE72C4908780190FF20087008788DF8AB
:104F000000009DF800009DF8002000F0F0009042A5
:104F100007D0502080F31188BFF34F8FBFF36F8FFE
:104F2000FEE79DF80000204C00F0500020700720A4
:104F3000A06005E09DF8002052008DF80020401E82
:104F40009DF800201206F5D4A060032807D0502059
:104F500080F31188BFF34F8FBFF36F8FFEE74FF4DD
:104F60004070A060019808700C482030016841F43E
:104F700070010160016841F070410160FFF7FAFEC5
:104F800000206060FBF786F90848016841F0404165
:104F90000160FBF76BF900201CBD000000ED00E094
:104FA00071C20F4100E400E08C00002034EF00E00B
:104FB00010B5502080F31188BFF34F8FBFF36F8F70
:104FC00000F072F818B104494FF0805008600020DA
:104FD00080F3118810BD000004ED00E02DE9FF5FB3
:104FE0008346DDE90E87994616468A469000FFF70C
:104FF000D3FC05001CD05420FFF7CEFC040014D0D5
:105000000020256384F85100CDE90240CDE90087F6
:105010004B46324651465846FFF728FC2046FFF7DC
:105020004DFB012004B0BDE8F09F2846FFF770FE5D
:105030004FF0FF30F6E7F0B585B0DDE90B640A9D6F
:10504000A6B1DCB1542700972663022684F851608C
:10505000002604AFCDE90246CDE90057FFF706FC74
:105060002046FFF72BFB049805B0F0BD502080F3DD
:105070001188BFF34F8FBFF36F8FFEE7502080F38F
:105080001188BFF34F8FBFF36F8FFEE7054841696B
:1050900019B1006B18B10020704701207047022041
:1050A00070470000300000202DE9F0412F4C002611
:1050B000206B28B1A069401CA0613046BDE8F0819A
:1050C000E5686D1CE56013D1606B006838B1502055
:1050D00080F31188BFF34F8FBFF36F8FFEE7606BD4
:1050E000A16B6163A063206A401C2062FFF730FC63
:1050F000A06ADFF87C80854209D3606B0068A0B1AC
:10510000606BC068C7687868854211D2A062206869
:10511000C06A00EB800158F82100012800D901265F
:10512000E0690028C9D00126C7E74FF0FF30EDE75E
:10513000381DFFF769FDB86A18B107F11800FFF7CD
:1051400063FDF96A0120226988401043206101EB68
:10515000810108EB8100391DFFF79AFDF86A21688B
:10516000C96A8842C9D30126C7E700003000002081
:10517000900700202DE9F0472C4D00242746286B8E
:1051800038B1FFF791FD286B401E2863286B40B1B2
:1051900046E0502080F31188BFF34F8FBFF36F8F2D
:1051A000FEE7A968224E0120D1B3A6F1B4098046DA
:1051B0003068E8B1F068C46804F11800FFF724FD16
:1051C000201DFFF721FDE06A2A6908FA00F111436A
:1051D000296100EB800109EB8100211DFFF758FDDB
:1051E000E06A2968C96A8842E2D3C5F81C80DFE713
:1051F0000CB1FFF7ADFBAC6944B14646FFF754FF75
:1052000000B1EE61641EF9D10020A861E86938B1EF
:105210000849012738070860BFF34F8FBFF36F8F2E
:10522000FFF762FD3846BDE8F0870000300000203F
:105230004408002004ED00E081F00041704780F058
:105240000040704721F00041704720F00040704757
:1052500021F00042A2F16052B2F5801F01F000433C
:1052600028BFD2F17F6C0BD95FEA001C43EAC2026F
:1052700042EB507018BF704728BF20F00100704704
:10528000B2F5801FBCBF184670474FEA410C1CF5B1
:10529000001F02D2084600F060BC70B500F00EFBA3
:1052A00000000089FFF7F6BF4FF00040A0F5800036
:1052B0007047000010B591EA030F48BF83F0004328
:1052C00000F16483841A71EB030C05D2121943EBCD
:1052D0000C03001B61EB0C01DFF824E14FEA1154D1
:1052E000A4EB135C1EEA430F18BF9EEA445F73D021
:1052F00023EA0E03DCF1200E21EA045143F480136B
:1053000032D322FA0CFE10EB0E0023FA0CFE41EB16
:105310000E01CCF1200E03FA0EFE10EB0E0051F13F
:105320000001B1F5801FCCF1200E32D201EB045107
:1053300012FA0EF2BDE8104058BF7047401C38BF4B
:105340005FEA420218BF7047002814BF20F0010036
:1053500041F100014FEA410313F5001F38BF7047C8
:10536000A1F1C04100F0F8BA012A43EB0302ACF10D
:10537000200CDCF11F0E32BF4FF0000E23FA0CF3AD
:1053800010EB030041EB0451B4EB115FD0D0A1EB63
:10539000045101F5801149085FEA300001EB045126
:1053A0000ED350F1000038BF12FA0EFE08D1BDE84E
:1053B0001040C9E7401C38BF5FEA4202CAD1C3E7C8
:1053C000BDE810404FEA410313F5001F38BF704796
:1053D000A1F1C04100F0C0BA9EEA445F08D011EAD2
:1053E0005E0FBDE8104004BF01F00041002070478F
:1053F000BDE8104070B500F061FA00BF64FBBE3E2E
:105400000000E0FF2DE9C04130B4DFF8A0C23CEA63
:10541000111418BF3CEA131400F0EC8081EA030574
:105420001CEA111444EAD57418BF1CEA131500F0E5
:10543000C780A4EB05044FF0004545EAC12145EAC9
:10544000C32341EA505143EA525304F17F74994215
:1054500004F500344FEAC0204FEAC22208BF904250
:1054600000F09C804FEA13650FF24016765D4FEA1C
:10547000134506FB05F7C7F1807706FB07F74FEAF0
:10548000D737A7FB03687642C8F58038A7FB06CE5E
:1054900038BFA8F1010807FB08E64FF0000EA6FB95
:1054A000028CE6FB03CEDCF1000CCEF1004E38BFDF
:1054B000AEF1010EA6FB0C584FF000074FF00005AF
:1054C000E6FB0E87A1FB08C6A0FB07CE16EB0E0677
:1054D00045F10005E1FB076515F1E04E7EBFA4F53F
:1054E00080345FEA46066D4116F1800745F10005FC
:1054F0004FEA17274FEA066647EA0567A6F1DE4638
:10550000B6F1805F4FEA15251FD9384624F0010C0B
:1055100005EBC471BCF1FE6F01EB0C1102D8F0BCBD
:10552000BDE8008124425CBF01F5801E9EEAC47F75
:1055300002D4F0BCBDE80081244238D4F0BCA1F113
:10554000C041BDE8004100F007BA4FEAD22242EA6A
:1055500043524FEAD323A7FB02864FEAD02040EA0A
:10556000415007FB03661EEA0E0F4FEAD12105FBEF
:10557000026658BFA6EB0056B6EB00564FEA520E35
:105580004EEAC37E18EB0E0E56EB530EBDD518EB4C
:1055900002085E417F1C55F10005B6E74FF4801507
:1055A0004FF000074FF000064FF00008ADE7F0BCE9
:1055B0004FF0000001F1C04101F00041BDE8008161
:1055C00011EA0C1F0CEA131500D00CE013EA0C1FB3
:1055D00000F025804FF00000F0BC81EA030101F0EB
:1055E0000041BDE80081F0BCBDE8004181EA030153
:1055F00000F0B2B9F0BCBDE8004170B500F05EF952
:10560000097EFC3E00F007B881EA03014FF000007C
:1056100001F00041704781EA030100F09DB9F0BC40
:10562000BDE800414FF0000021497047FFFDFBF944
:10563000F7F5F4F2F0EEEDEBE9E8E6E4E3E1E0DEC5
:10564000DDDBDAD8D7D5D4D3D1D0CFCDCCCBCAC837
:10565000C7C6C5C4C2C1C0BFBEBDBCBBBAB9B8B75E
:10566000B6B5B4B3B2B1B0AFAEADACABAAA9A8A851
:10567000A7A6A5A4A3A3A2A1A09F9F9E9D9C9C9B1F
:105680009A999998979796959594939392919190CA
:105690008F8F8E8E8D8C8C8B8B8A8989888887875B
:1056A0008685858484838382828181800000FF07D0
:1056B0000000F87F4FEA41034FEA5353A3F580639C
:1056C000D3F11E03C8BFD3F1210C0CDD4FF0004213
:1056D00042EAC12242EA505232FA03FC8CEAE17CEF
:1056E000ACEBE1707047102BC4BF0020704703F58E
:1056F000787CBCF1FF3F04D06FF0004282EA2100C9
:10570000704770B500F0DAF84992248000207047A5
:10571000F2E710F0004248BF4042B0FA80F310FABE
:1057200003F10AD0C3F11D0303F580634FEA415032
:1057300002EB035202EBD12170474FF0000070479B
:10574000B0FA80F310FA03F10AD0C3F11D0303F598
:1057500080634FEA41504FEA035202EBD121704778
:105760004FF0000070470000DFF848C170B51CEA38
:10577000111E1EBF1CEA13159EEA0C0F95EA0C0FB2
:1057800000F06F8081EA030423EA4C134EEAD47ED2
:1057900021EA4C1141F4801143F48013AE44A1FB83
:1057A000024CA0FB0365AEF17F7E361955EB0C056C
:1057B000A1FB034C4CF10003A0FB021C16EB0C06F2
:1057C000654153F10003094218BF46F0010613F486
:1057D000007F0BD14FEA03314FEA0530340341EA31
:1057E000155140EA16506FF003020AE04FEAC32158
:1057F0004FEAC520F40241EA555140EA56506FF095
:10580000020202EB2E4201EB025585EACE710AD06C
:105810005FEA440C18BF24F0004450F1000041F14D
:10582000000120EAD47040F2FE7C624500D270BDD7
:10583000A84214BF4FF080444FF04044002E08BFF0
:105840000024BEF1806FA8BFA1F1C041BDE8704047
:1058500080F282804FF0000001F1C04101F0004170
:1058600070479EEA0C0F0CEA131518BF95EA0C0F4F
:1058700006D04FF0000081EA030E0EF0004170BD2B
:1058800000F01CF88900013E00F007B800F009B8EC
:105890004FEA430C5FEA5C5C08D081EA030100F048
:1058A0005BB84FEA410C5FEA5C5CF6D14FF0000058
:1058B000014970470000FF070000F87F0EF1020E5B
:1058C0002EF0030E5EF8046B364205D4012A43EB3A
:1058D000030515F5001F12D8012841EB010C1CF53A
:1058E000001F0CD80ED14FEAD17C15F5001F0CEB30
:1058F0004C0C0CF1020C08BF4CEBD37C04E04FF0D5
:10590000080C01E04FEAD37C0CEB4C0526FA05F6B7
:1059100006F00706B6F1040C06D20EEB860CBDE8C5
:1059200070404CF0010C6047DFE80CF0090B0202FC
:105930004FF000414FF00000A1F5002170BD194665
:105940001046012851EB010418BFD4F5001484BFA0
:10595000002001F0004170BD0808A0F500114FEAD9
:105960003101704791EA030F10B581F000413FF516
:10597000A9AC83F0004300F009B8000010B591EA2B
:10598000030F48BF83F000433FF59CAC841A71EBD2
:10599000030C07D212198CF0004C43EB0C03001BD4
:1059A00061EB0C01DFF8A4E14FEA1154A4EB135CA6
:1059B0001EEA430F18BF9EEA445F00F0B08023EA5E
:1059C0006E03524221EA0451C3EB6E0338BF5B1EE3
:1059D000DCF1200E25D322FA0CFE10EB0E0043FA68
:1059E0000CFE41EB0E01CCF1200E03FA0EFE10EB83
:1059F0000E0051F10001CCF1200E29D412FA0EF262
:105A000001EB0451BDE8104058BF7047401C1CBF5B
:105A1000B2F1004F704700280CBF491C20F0010074
:105A2000704712EB020E43EB030218BF4FF0010E5A
:105A30004EEA4202ACF1200CDCF11E0E54D943FABE
:105A40000CFE10EB0E0051F1FF31CCF11E0ED5D53E
:105A50000EF1010E12FA0EFE404141EB010101EB85
:105A6000445C5FEA5C5C10D910EBDE7001EB045122
:105A700038BFBEF1004FBDE8104018BF7047002886
:105A80000CBF491C20F00100704730D24FEAD42CE3
:105A900011F5001124F400641BD0B1FA81F20B3A25
:105AA000A41AA41ED2F12003914030FA03F3194343
:105AB000904001EBCC71002C01EB0451BDE810408B
:105AC000A8BF704701F1C0414FF0000001F0004154
:105AD0007047B0FA80F310FA03F100D110BDE41A58
